:100000000C9434000C9419030C941A030C941B03E5
:100010000C941C030C941D030C941E030C941F03DE
:100020000C9420030C9421030C9422030C942303BE
:100030000C9447030C9448030C9449030C944A0312
:100040000C944B030C944C030C944D030C947303CD
:100050000C9497030C9498030C94BC030C94BD036C
:100060000C94BE030C94BF0311241FBECFEFD8E045
:10007000DEBFCDBFF894A89584B7877F84BFE0E644
:10008000F0E08081886180831082789411E0A0E0A4
:10009000B1E0ECEEF7E102C005900D92AC34B1078F
:1000A000D9F723E0ACE4B1E001C01D92A23EB20753
:1000B000E1F70E94DB030C94DE0B80E480937C006C
:1000C0008FE880937A000E9492000895EAE7F0E0BA
:1000D0008081806480830895ECE7F0E02081809146
:1000E000780090917900ACE4B1E027702C93937084
:1000F00012969C938E93119780818F5F808380816D
:100100008770853059F02CE431E04FE050E060E03A
:1001100070E080E093E00E94CE0908958081887F9E
:100120008083F1CFECE8F1E0A0E8B1E028E931E02C
:100130008FEF93E0819391931D921D92E217F30745
:10014000C9F70895E8E9F1E080E6DF011D928A959C
:10015000E9F7E8EFF1E088E0DF011D928A95E9F721
:10016000E0E0F2E08CE0DF011D928A95E9F7089566
:10017000CF92DF92EF92FF920F931F93CF93DF9373
:10018000082F192FF801C08180914F0190915001E3
:10019000A0915101B0915201892B8A2B8B2B09F42C
:1001A00091C040914F015091500160915101709167
:1001B0005201463051056105710508F469C0AC2F44
:1001C000B0E0FD01E850FE4F9081F80121813281BD
:1001D000FD01EE0FFF1FEE0FFF1FEE0FFF1FE90FD8
:1001E000F11DEE0FFF1FE856FE4F3183208346338B
:1001F00051056105710508F444C080E1C89FF00114
:100200001124E856FE4F88E000E010E09801C1910B
:10021000D1910C0F1D1F211D311D8150C1F7689414
:1002200012F836952795179507951694D1F768011A
:10023000FD01EE0FFF1FEF01C050DE4F1983088351
:10024000E058FE4F0190F081E02DE017F10738F4FF
:10025000FD01EE0FFF1FE058FE4F11830083FD01EB
:10026000EE0FFF1FE457FE4F0190F081E02DCE16F8
:10027000DF0638F4FD01EE0FFF1FE457FE4F118338
:10028000008381E0890F973001F1A850BE4F8C9315
:100290004F5F5F4F6F4F7F4F40934F01509350011F
:1002A0006093510170935201EAE7F0E0808180642D
:1002B0008083DF91CF911F910F91FF90EF90DF909E
:1002C000CF9008950E94A2006CCFA850BE4F1C9200
:1002D000DFCF282F392F2130310541F02230310571
:1002E00051F08091000290910102089580918C015B
:1002F00090918D01089580918001909181010895E0
:10030000282F392F2130310541F02230310551F0AD
:100310008091020290910302089580918E01909144
:100320008F01089580918201909183010895282F73
:10033000392F2130310541F02230310551F08091C3
:10034000040290910502089580919001909191018D
:10035000089580918401909185010895109255012E
:10036000109254010895CF93DF930E94D502C82FB5
:10037000D92F0E94D002E091530181E08E0F80932B
:100380005301F0E0EE0FFF1FE45FFD4FD183C08308
:10039000803171F080915401909155018C179D0727
:1003A00020F4D0935501C0935401DF91CF9108956B
:1003B00010925301EFCFECE0F2E04CE252E090E01B
:1003C00080E021913191820F931FE417F507C9F75F
:1003D000929582958F7089279F70892708950E9432
:1003E000DB0108958091540190915501089580E2B8
:1003F00090E00E94C3032FEF87EA91E621508040EE
:100400009040E1F700C0000080E290E00E94C70346
:100410002FEF89E698E1215080409040E1F700C03D
:100420000000E5CF80E290E00E94C3032FEF83ED50
:1004300090E3215080409040E1F700C0000080E24E
:1004400090E00E94C7032FEF82E597E021508040A3
:100450009040E1F700C00000E5CF80E290E00E940C
:10046000C3032FEF81EE94E0215080409040E1F7EC
:1004700000C0000080E290E00E94C7032FEF83EDF0
:1004800090E3215080409040E1F700C00000E5CFAC
:1004900080E290E00E94C3032FEF80E792E02150BA
:1004A00080409040E1F700C0000080E290E00E94B0
:1004B000C7032FEF89E698E1215080409040E1F793
:1004C00000C00000E5CF80E290E00E94C3032FEF60
:1004D00080E792E0215080409040E1F700C00000AA
:1004E00080E290E00E94C7032FEF80E792E0215066
:1004F00080409040E1F700C00000E5CF80E290E04E
:100500000E94C3032FEF81EE94E021508040904081
:10051000E1F700C0000080E290E00E94C7032FEFE7
:1005200081EE94E0215080409040E1F700C000004F
:10053000E5CF282F392FF894109280001092810077
:100540001092850010928400259A223081E03807AD
:10055000A9F048F0233081E0380791F02430314091
:1005600089F40E944802211581E0380729F02130E2
:10057000314041F40E9412020E94F7010E942D02B4
:100580000E9463020E947E028AB1837F8AB98BB186
:100590008C608BB9E9E6F0E080818A608083089501
:1005A000109259011092580108958091580190912C
:1005B0005901089580915601909157010895E09B4B
:1005C0000AC0809158019091590101969093590168
:1005D00080935801E09AE19B0AC080915601909166
:1005E000570101969093570180935601E19A08951F
:1005F00080915A01882371F02D9810925A0130E0B1
:1006000020E046EB53E060E070E080E091E00E9483
:10061000CE0908952D9A81E080935A0130E020E0C0
:1006200042E350E060E070E080E091E00E94CE099B
:100630000895189518951895189518951895189562
:100640001895189518951F920F920FB60F921124B6
:100650002F933F934F935F936F937F938F939F93CA
:10066000AF93BF93EF93FF930E944B08FF91EF91DD
:10067000BF91AF919F918F917F916F915F914F91BA
:100680003F912F910F900FBE0F901F9018951895C6
:10069000189518951895189518951F920F920FB6E2
:1006A0000F9211242F933F934F935F936F937F93F8
:1006B0008F939F93AF93BF93EF93FF938091C60067
:1006C0000E941607FF91EF91BF91AF919F918F917B
:1006D0007F916F915F914F913F912F910F900FBE3E
:1006E0000F901F9018951F920F920FB60F92112422
:1006F0002F933F934F935F936F937F938F939F932A
:10070000AF93BF93EF93FF930E94CD07FF91EF91BB
:10071000BF91AF919F918F917F916F915F914F9119
:100720003F912F910F900FBE0F901F901895189525
:100730001F920F920FB60F9211242F933F934F9356
:100740005F936F937F938F939F93AF93BF93EF9339
:10075000FF930E946C00FF91EF91BF91AF919F9129
:100760008F917F916F915F914F913F912F910F905A
:100770000FBE0F901F9018951895189518951895FD
:10078000259A209A089595B1982B95B9089595B119
:100790008095892385B90895F8940E940F080E94D6
:1007A000C0030E9472040E942A060E945D000E94FB
:1007B000C402789408950E94CC038FED92E00E94C9
:1007C000230980E290E00E94C30387E090E00E944A
:1007D000B2086BE178E080E096E00E94280968EFBB
:1007E00072E080E091E00E94280968EB70E080E010
:1007F00093E00E94280963EB71E080E094E00E949E
:10080000280961E574E080E095E00E9428096DE820
:1008100074E080E092E00E9428096FEE77E080E0CB
:1008200097E00E94280930E020E04AEF50E060E0C5
:1008300070E080E096E00E94980930E020E048EB0C
:100840005BE060E070E080E091E00E94CE0930E083
:1008500020E048EE53E060E070E080E094E00E9429
:10086000980930E020E040E85EEE66E370E080E06A
:1008700095E00E94980930E020E048EE53E060E007
:1008800070E080E097E00E9498090E9466000E9454
:100890002D0A8FEF9FEF089510925C0110925B017B
:1008A00008950E94DA0290935E0180935D0108959D
:1008B00080915B0190915C0120915D0130915E011E
:1008C000820F931F90935C0180935B0110925E01F5
:1008D00010925D0190E080E0089580915B0190911D
:1008E0005C01089510928000E1E8F0E0108210921F
:1008F0008500109284008FEC97E09093890080939C
:100900008800808188608083808182608083EFE6B8
:10091000F0E08081826080830895CF92DF92EF9231
:10092000FF920F931F93CF93DF9300D000D000D09E
:10093000CDB7DEB78D839E83ED81FE81EE5AFF4FEA
:10094000408141110DC0ED81FE816381EFEFE60F23
:10095000EF3008F076C1F0E0E052F44F0C949E0ABC
:10096000AD81BE8113966C9113976295607F12964C
:100970008C910E94890667C090E080E00E949701F8
:1009800000E312E0D8011D969C938E931C9790E093
:1009900080E00E948001F8019787868790E080E0E0
:1009A0000E946901D80151969C938E93509782E0E2
:1009B00090E00E949701F8019783868382E090E09F
:1009C0000E948001D80119969C938E93189782E01B
:1009D00090E00E946901F8019387828781E090E0AE
:1009E0000E949701D8018D939C9381E090E00E9432
:1009F0008001F8019383828381E090E00E94690185
:100A0000D80115969C938E931497ED81FE81638196
:100A10006295607F22E130E0A80182810E94D706C2
:100A200080915F0190916001A0916101B09162019C
:100A30000196A11DB11D80935F0190936001A09369
:100A40006101B093620126960FB6F894DEBF0FBE27
:100A5000CDBFDF91CF911F910F91FF90EF90DF906D
:100A6000CF9008950E9492000E94AE010E944C0413
:100A7000AD81BE8113966C9113976295607F30E0D3
:100A800020E050E040E012968C910E948F06C8CF83
:100A90008AE892E00E946408ED81FE81638162959C
:100AA000607F28E030E04AE852E082810E94D70669
:100AB000B7CF0E94EF0102E912E0D8018D939C9319
:100AC0000E94F201F80193838283AD81BE81139667
:100AD0006C9113976295607F24E030E0A801129634
:100AE0008C910E94D7069CCF0E9458040CE212E021
:100AF000F801918380830E946D04D80113969C9322
:100B00008E931297ED81FE8163816295607F24E070
:100B100030E0A80182810E94D70682CF1092110195
:100B200030E020E050E040E060E6AD81BE8112960A
:100B30008C910E948F0674CF0E940908682F792F2C
:100B40008EE492E00E94D70B0EE412E0F8010190CF
:100B50000020E9F731970F2EF0E2CF2EFBE5DF2ED4
:100B6000F02DD182C08212820E940C08682F792F4A
:100B7000C8010E94CC0BF80101900020E9F73197E1
:100B80000F2EFDE5EF2EF12CF02DF182E0820E9478
:100B9000980A682F792F8CE692E00E94D70B0CE61A
:100BA00012E0F80101900020E9F73197D182C0826C
:100BB00012820E949B0A682F792FC8010E94CC0BD9
:100BC000F80101900020E9F73197F182E0820E945C
:100BD000D80769837A838B839C8302E412E0F8014F
:100BE000608371838283938380915F019091600120
:100BF000A0916101B091620184839583A683B7833C
:100C00000E949B08D80118966D937D938D939C93B9
:100C10001B97ED81FE8163816295607F28E430E05F
:100C2000A80182810E94D706FBCE30E020E050E090
:100C300040E060EFAD81BE8112968C910E948F06DC
:100C4000EFCE6295607F41E0ED81FE8182810E945E
:100C50008906E6CE1092C50080E18093C400E0ECE6
:100C6000F0E08081826080838EE08093C20088ED16
:100C70008093C1000895811110926401E091640194
:100C800080916501E81751F081E08E0F8093640137
:100C9000F0E0E65CFC4F808190E00895E1ECF0E04C
:100CA00080818F7D80838FEF9FEF0895282F392FCC
:100CB000962F613508F090E5662351F0F901AAE31B
:100CC000B3E0290F311D81918D93E217F307D9F716
:100CD0009093650181E00E943B068093C600E1ECA1
:100CE000F0E08081806280830895E9E0F1E094E0A3
:100CF0009183828363834583860F9927991F24817B
:100D0000820F911D480F592F511D40954683CF01E9
:100D100008950E94750668E00E94560608950F9394
:100D20001F93CF93DF93042F152F422F532FEFE8FC
:100D3000F3E09BE4DF011D929A95E9F7EAE8F3E01E
:100D40009EE79083322F93E0920F91838283638397
:100D500096E09483860F9927991F06961416150618
:100D60001CF5F801AFE8B3E0040F151F21912D9396
:100D7000EF0121972881820F911D27FD9A95E01799
:100D8000F107A1F7FA01E657FC4F8095858381E8CA
:100D9000868367E0630F8AE893E00E945606DF913E
:100DA000CF911F910F91089550E040E0EBCFCF938A
:100DB000DF93C42FD52F422F532FEFE8F3E09BE4AE
:100DC000DF011D929A95E9F7EAE8F3E09EE7908348
:100DD000322F93E0920F91838283638396E0948312
:100DE000860F9927991F069614161506E4F4FE013E
:100DF000AFE8B3E0C40FD51F21912D93820F911D51
:100E0000EC17FD07C9F7FA01E657FC4F809585837B
:100E100081E8868367E0630F8AE893E00E945606C4
:100E2000DF91CF91089550E040E0EDCFE0910601D1
:100E3000E150E73008F0B0C0F0E0E151F44F0C941D
:100E40009E0A8E3709F0A8C0E0910701F0910801D1
:100E5000808382E0809306010895E0910701F0917C
:100E600008018183E0910701F091080181818D34AF
:100E700050F08CE48183E0910701F0910801EE5A73
:100E8000FF4F88E0808383E0809306010895E0911E
:100E90000701F09108018283E05BFF4F90E09183AE
:100EA000808384E0809306010895E0910701F0912A
:100EB00008018383DF01A05BBF4F2D913C91119707
:100EC000820F932F911D8D939C938181823031F0FD
:100ED00085E08093060110926301089586E0809377
:100EE00006010895A0910701B0910801E091630106
:100EF00041E04E0F40936301EA0FFB2FF11D848305
:100F0000FD01E05BFF4F20813181820F932F911D06
:100F10009183808311968C918250990B4817190602
:100F2000D9F586E0809306011092630108954091FF
:100F3000070150910801FA01E25BFF4F808332966E
:100F400020813181820F932F911D91838083992776
:100F50008F3F910529F04E5A5F4F82E0FA0180835E
:100F600087E0809306010895813839F0E091070108
:100F7000F0910801EE5AFF4F808381E080930601D3
:100F8000209107013091080141E050E060E070E0FD
:100F900080E092E00E94CE09089580E00E943B0626
:100FA000282F392F2F3F320711F02093C6000895C4
:100FB000CF93DF9300D000D0CDB7DEB7809166012C
:100FC00090916701A0916801B0916901BC01CD01C8
:100FD0000F900F900F900F90DF91CF910895809117
:100FE000660190916701A0916801B0916901019635
:100FF000A11DB11D8093660190936701A0936801C4
:10100000B093690170E060E080E097E00E94040A1C
:10101000089584E191E008958CE191E00895A89508
:1010200084B7877F84BFE0E6F0E0808188618083B9
:101030008FE08083089580911101882309F0A8959D
:1010400008950895482F592F8091DC039091DD0376
:1010500018161906C4F4E091DA03F091DB0329E1D4
:10106000289FB001299F700D11246E0F7F1F8E2FB6
:101070009F2F208131812417350739F07996E617A3
:10108000F707A9F7089580E090E0089584E091E0E3
:101090000E94990208958091720190917301A0912C
:1010A0007401B09175010196A11DB11D809372016B
:1010B00090937301A0937401B0937501E0911201B4
:1010C000F091130109950895E82FF92F80916A0195
:1010D00090916B01A0916C01B0916D0140916E01F6
:1010E00050916F016091700170917101841B950B9B
:1010F000A60BB70B80839183A283B38380916E018B
:1011000090916F01A0917001B091710184839583DA
:10111000A683B78310926E0110926F011092700136
:101120001092710110926A0110926B0110926C0181
:1011300010926D010895CF93DF9300D000D0CDB70A
:10114000DEB78091760190917701A0917801B091FE
:101150007901BC01CD010F900F900F900F90DF919E
:10116000CF910895282F392F121613065CF42131E0
:1011700031050CF45EC080E190E09093DD03809334
:10118000DC0306C080E190E09093DD038093DC03F4
:101190008091DC039091DD0329E1AC01249FC00123
:1011A000259F900D11240E94A40A282F392F3093D7
:1011B000DB032093DA03232B09F440C010927F0154
:1011C00010927E018091DC039091DD0318161906C0
:1011D0007CF530E020E090E080E066E478E0E091AB
:1011E000DA03F091DB03E20FF31F11821082128207
:1011F0001382148215821682178210861186128637
:1012000013861486158616861786108A128A118A06
:10121000748B638B168A158A108E178A0196275E47
:101220003F4F4091DC035091DD0384179507BCF2DA
:1012300008953093DD032093DC03AACF81E091E091
:101240000E949902BBCF90931301809312010895DD
:101250002091DC033091DD0312161306A4F4E09113
:10126000DA03F091DB03A9E1A29FA001A39F500D37
:1012700011244E0F5F1FDF0127852223A9F07996E5
:10128000E417F507C1F780E091E00E9499022091F0
:101290007E0130917F018091DC039091DD03821704
:1012A00093070CF440C008958083918381E0878781
:1012B000638B748B80917E0190917F010196909356
:1012C0007F0180937E01E0917A01F0917B0130975C
:1012D00099F05896FC93EE93579780917C019091EA
:1012E0007D0156969C938E935597B68BA58BB093A4
:1012F0007B01A0937A01CBCFB0937B01A0937A01BD
:10130000B0937D01A0937C010A2E1B2E56961C9251
:101310000E92112455970A2E1B2E58961C920E924F
:1013200011245797B4CF81E091E00E949902BBCF7E
:10133000CF92DF92EF92FF92CF93DF93C42ED52E00
:10134000E62EF72ED22FC32F0E942208E82FF92F66
:101350003097E9F08091720190917301A09174012E
:10136000B091750182839383A483B583C286D386AB
:10137000E486F5868C0D9D1DAE1DBF1D868397836B
:10138000A087B18781E08687808BD18BC28BDF916C
:10139000CF91FF90EF90DF90CF900895CF92DF92A2
:1013A000EF92FF92CF93DF93C42ED52EE62EF72E29
:1013B000D22FC32F0E942208E82FF92F3097E9F08F
:1013C0008091720190917301A0917401B0917501A7
:1013D00082839383A483B583C286D386E486F5860D
:1013E0008C0D9D1DAE1DBF1D86839783A087B18781
:1013F00081E08687108AD18BC28BDF91CF91FF90DD
:10140000EF90DF90CF900895CF93DF93D62FC72F23
:101410000E942208E82FF92F3097E1F040917201E5
:1014200050917301609174017091750142835383EF
:101430006483758382859385A485B585840F951F04
:10144000A61FB71F86839783A087B18781E0868711
:10145000D18BC28BDF91CF910895C0917C01D09147
:101460007D012097F1F316C080917601909177016C
:10147000A0917801B09179010196A11DB11D8093D1
:10148000760190937701A0937801B09379010D884C
:10149000DE89C02D80916A0190916B01A0916C0151
:1014A000B0916D010196A11DB11D80936A019093C9
:1014B0006B01A0936C01B0936D018E85882339F385
:1014C0008091720190917301A0917401B0917501A6
:1014D0004E815F816885798584179507A607B707D0
:1014E000B0F21E8680916E0190916F01A091700103
:1014F000B09171010196A11DB11D80936E01909371
:101500006F01A0937001B0937101EB89FC89898907
:101510009A8909958889882309F4A6CF8E85811137
:10152000A3CF69897A89888199810E94040A9CCF16
:1015300080E391E0089588E391E00895EE0FFF1FA6
:101540000590F491E02D09940F931F93CF93DF93AF
:101550009C01029710F422E030E0E091E003F0916A
:10156000E10390E080E0B0E0A0E0309791F40097D4
:1015700009F445C0821B930B84309105B8F58A812C
:101580009B816115710569F1FB0193838283FE01E3
:1015900011C0408151810281138142175307F0F03D
:1015A0004217530799F4109761F012960C93129713
:1015B00013961C933296CF01DF91CF911F910F911B
:1015C00008950093E0031093E103F4CF009719F01E
:1015D0004817590718F4CA01BD01EF01DF01F801EE
:1015E000C4CF9093E1038093E003D1CFFE01E80FD5
:1015F000F91F21933193029799838883DCCF8091DF
:10160000DE039091DF03892B41F4809102019091D8
:1016100003019093DF038093DE038091000190919A
:101620000101009741F48DB79EB74091040150919C
:101630000501841B950B4091DE035091DF03481791
:10164000590708F0B8CF841B950B8217930708F44D
:10165000B2CFB9016E5F7F4F8617970708F4ABCF03
:10166000640F751F7093DF036093DE03FA0121930B
:101670003193A1CFCF93DF939C010097E9F0FC0158
:10168000329713821282C091E003D091E103DE0110
:1016900090E080E02097A1F480819181280F391F8C
:1016A0008091DE039091DF038217930709F067C0F2
:1016B000F093DF03E093DE03DF91CF910895DA0129
:1016C000AE17BF0708F041C012964D915C91139779
:1016D000CD014115510599F7DC011396FC93EE936A
:1016E00012974D915D91A40FB51FEA17FB0781F486
:1016F000208131812E5F3F4F240F351FDC01119671
:101700003C932E932281338113963C932E93129710
:10171000B0E0A0E08A819B810097B1F5FE01819144
:101720009191E80FF91F8091DE039091DF038E17EE
:101730009F0711F6109759F51092E1031092E003FC
:10174000D093DF03C093DE03B7CFB383A28340817E
:101750005181240F351FA217B30771F44E5F5F4FFD
:101760002D913C911197420F531F51834083129644
:101770002D913C9133832283009709F0ADCFF093F4
:10178000E103E093E00398CFDE01EC01C3CF1396B1
:101790001C921E921297D4CFFB01DC010D90002009
:1017A000E9F7119701900D920020E1F70895FB01F0
:1017B000DC0101900D920020E1F70895F894FFCF2D
:1017C000BC0432055905740548058E059C052106A3
:1017D00021062106210621062106210615062107DC
:0C17E0002D074707550772079707B4074D
:1017EC000000E203200001E6027E0000001500006C
:1017FC0081012108312E352E303035003230323017
:10180C002D30352D32352031373A31313A323600E0
:10181C00312E352E30303300323032302D30352DE4
:0C182C0032352031373A30393A31320081
:00000001FF
