:100000000C9434000C942E030C942F030C943003A6
:100010000C9431030C9432030C9433030C9434038A
:100020000C9435030C9436030C9437030C9438036A
:100030000C945C030C945D030C945E030C945F03BE
:100040000C9460030C9461030C9462030C94880379
:100050000C94AC030C94AD030C94D1030C94D20318
:100060000C94D3030C94D40311241FBECFEFD8E01B
:10007000DEBFCDBFF894A89584B7877F84BFE0E644
:10008000F0E08081886180831082789411E0A0E0A4
:10009000B1E0E6E8F0E202C005900D92A035B107AC
:1000A000D9F723E0A0E5B1E001C01D92AC39B20759
:1000B000E1F70E94F0030C942B1080E480937C0005
:1000C0008FE880937A000E9492000895EAE7F0E0BA
:1000D0008081806480830895ECE7F0E02081809146
:1000E000780090917900A0E5B1E027702C9393708F
:1000F00012969C938E93119780818F5F808380816D
:100100008770853059F020E531E04FE050E060E045
:1001100070E080E093E00E94600B08958081887F0A
:100120008083F1CFE8E9F1E0ACE8B1E024EA31E026
:100130008FEF93E0819391931D921D92E217F30745
:10014000C9F70895E4EAF1E080E6DF011D928A959F
:10015000E9F7E4E0F2E088E0DF011D928A95E9F733
:10016000ECE0F2E08CE0DF011D928A95E9F708955A
:10017000CF92DF92EF92FF920F931F93CF93DF9373
:10018000082F192FF801C0818091530190915401DB
:10019000A0915501B0915601892B8A2B8B2B09F424
:1001A00091C040915301509154016091550170915B
:1001B0005601463051056105710508F469C0AC2F40
:1001C000B0E0FD01EC5FFD4F9081F80121813281AB
:1001D000FD01EE0FFF1FEE0FFF1FEE0FFF1FE90FD8
:1001E000F11DEE0FFF1FEC55FE4F31832083463388
:1001F00051056105710508F444C080E1C89FF00114
:100200001124EC55FE4F88E000E010E09801C19108
:10021000D1910C0F1D1F211D311D8150C1F7689414
:1002200012F836952795179507951694D1F768011A
:10023000FD01EE0FFF1FEF01C45FDD4F198308833F
:10024000E457FE4F0190F081E02DE017F10738F4FC
:10025000FD01EE0FFF1FE457FE4F11830083FD01E8
:10026000EE0FFF1FE856FE4F0190F081E02DCE16F5
:10027000DF0638F4FD01EE0FFF1FE856FE4F118335
:10028000008381E0890F973001F1AC5FBD4F8C9303
:100290004F5F5F4F6F4F7F4F409353015093540117
:1002A0006093550170935601EAE7F0E08081806425
:1002B0008083DF91CF911F910F91FF90EF90DF909E
:1002C000CF9008950E94A2006CCFAC5FBD4F1C92EE
:1002D000DFCF282F392F2130310541F02230310571
:1002E00051F080910C0290910D0208958091980137
:1002F00090919901089580918C0190918D010895BC
:10030000282F392F2130310541F02230310551F0AD
:1003100080910E0290910F02089580919A01909120
:100320009B01089580918E0190918F010895282F4F
:10033000392F2130310541F02230310551F08091C3
:10034000100290911102089580919C0190919D015D
:10035000089580919001909191010895CF93DF933A
:100360000E94EA02C82FD92F0E94E502E0915701AE
:1003700081E08E0F80935701F0E0EE0FFF1FE85EE3
:10038000FD4FD183C0838031A1F0809158019091BD
:1003900059018C179D0720F4D0935901C09358013F
:1003A00070E060E080E094E00E94A70BDF91CF91C5
:1003B000089510925701E9CFE8E1F2E048E352E0F6
:1003C00090E080E021913191820F931FE417F507AF
:1003D000C9F7929582958F7089279F708927089514
:1003E0000E94DC010895809158019091590108956F
:1003F000A82FB92F8AE0EAE5F1E001900D928A95E5
:10040000E1F70895E82FF92F8AE0AAE5B1E001901D
:100410000D928A95E1F7089580E290E00E94D8035A
:100420002FEF87EA91E6215080409040E1F700C02D
:10043000000080E290E00E94DC032FEF89E698E163
:10044000215080409040E1F700C00000E5CF80E2FD
:1004500090E00E94D8032FEF83ED90E3215080407D
:100460009040E1F700C0000080E290E00E94DC03D1
:100470002FEF82E597E0215080409040E1F700C0E7
:100480000000E5CF80E290E00E94D8032FEF81EEDC
:1004900094E0215080409040E1F700C0000080E2ED
:1004A00090E00E94DC032FEF83ED90E32150804029
:1004B0009040E1F700C00000E5CF80E290E00E94AC
:1004C000D8032FEF80E792E0215080409040E1F781
:1004D00000C0000080E290E00E94DC032FEF89E67C
:1004E00098E1215080409040E1F700C00000E5CF46
:1004F00080E290E00E94D8032FEF80E792E0215045
:1005000080409040E1F700C0000080E290E00E944F
:10051000DC032FEF80E792E0215080409040E1F72C
:1005200000C00000E5CF80E290E00E94D8032FEFEA
:1005300081EE94E0215080409040E1F700C000003F
:1005400080E290E00E94DC032FEF81EE94E02150E6
:1005500080409040E1F700C00000E5CF282F392F00
:10056000F8941092800010928100109285001092F1
:100570008400259A223081E03807A9F048F0233022
:1005800081E0380791F02430314089F40E945D0207
:10059000211581E0380729F02130314041F40E94D3
:1005A00027020E940C020E9442020E9478020E94CE
:1005B00093028AB1837F8AB98BB18C608BB9E9E6EB
:1005C000F0E080818A608083089510926701109224
:1005D0006601089580916601909167010895809168
:1005E0006401909165010895E09B0AC080916601C5
:1005F0009091670101969093670180936601E09A5C
:10060000E19B0AC0809164019091650101969093ED
:10061000650180936401E19A0895809168018823BF
:1006200071F02D981092680130E020E046EB53E025
:1006300060E070E080E091E00E94600B08952D9AE8
:1006400081E08093680130E020E042E350E060E028
:1006500070E080E091E00E94600B08951895189575
:100660001895189518951895189518951895189522
:100670001F920F920FB60F9211242F933F934F9317
:100680005F936F937F938F939F93AF93BF93EF93FA
:10069000FF930E941B0AFF91EF91BF91AF919F9131
:1006A0008F917F916F915F914F913F912F910F901B
:1006B0000FBE0F901F9018951895189518951895BE
:1006C000189518951F920F920FB60F9211242F9321
:1006D0003F934F935F936F937F938F939F93AF93CA
:1006E000BF93EF93FF938091C6000E94A807FF91EC
:1006F000EF91BF91AF919F918F917F916F915F919A
:100700004F913F912F910F900FBE0F901F90189512
:100710001F920F920FB60F9211242F933F934F9376
:100720005F936F937F938F939F93AF93BF93EF9359
:10073000FF930E945F08FF91EF91BF91AF919F914E
:100740008F917F916F915F914F913F912F910F907A
:100750000FBE0F901F90189518951F920F920FB60D
:100760000F9211242F933F934F935F936F937F9337
:100770008F939F93AF93BF93EF93FF930E946C006F
:10078000FF91EF91BF91AF919F918F917F916F9169
:100790005F914F913F912F910F900FBE0F901F903F
:1007A00018951895189518951895259A209A0895D2
:1007B00095B1982B95B9089595B18095892385B900
:1007C0000895F8940E9470080E94D5030E9478044E
:1007D0000E94BC060E945D000E94D9027894089590
:1007E0000E94E10384EF92E00E94EB0A80E290E035
:1007F0000E94D80386E090E00E94770A6CE778E0D8
:1008000080E096E00E94F00A6DE073E080E091E005
:100810000E94F00A68EB70E080E093E00E94F00A2A
:100820006EEA71E080E094E00E94F00A61E574E015
:1008300080E095E00E94F00A63E974E080E092E0D5
:100840000E94F00A30E020E04AEF50E060E070E003
:1008500080E096E00E94600B30E020E048EB5BE037
:1008600060E070E080E091E00E94600B30E020E00A
:1008700048EE53E060E070E080E094E00E94600B9E
:1008800030E020E040E85EEE66E370E080E095E076
:100890000E94600B0E9466000E94E40B8FEF9FEFA6
:1008A00008950E94EF0290936C0180936B0170E0B9
:1008B00060E080E095E00E94A70B089580916901B7
:1008C00090916A0120916B0130916C01820F931F0E
:1008D00090936A018093690110926C0110926B01F0
:1008E00090E080E008958091690190916A010895F7
:1008F00010928000E1E8F0E01082109285001092E2
:10090000840083EF91E09093890080938800808138
:1009100088608083808182608083EFE6F0E0808160
:100920008260808308956F927F928F929F92AF92A0
:10093000BF92CF92DF92EF92FF920F931F93CF93CC
:10094000DF9300D000D000D0CDB7DEB78D839E837B
:10095000ED81FE81EE5AFF4F408141110DC0ED81C6
:10096000FE816381EFEFE60FEF3008F0FBC1F0E0AE
:10097000E35DFF4E0C940C0CAD81BE8113966C911F
:1009800013976295607F12968C910E941B072696A2
:100990000FB6F894DEBF0FBECDBFDF91CF911F9190
:1009A0000F91FF90EF90DF90CF90BF90AF909F900E
:1009B0008F907F906F90089590E080E00E94970163
:1009C0000CE312E0D8018D939C9390E080E00E94AC
:1009D0008001F8019383828390E080E00E946901A6
:1009E000D80115969C938E931497ED81FE816381B7
:1009F0006295607F26E030E0A80182810E9469074D
:100A0000C6CF82E090E00E9497010CE312E0D8018B
:100A10008D939C9382E090E00E948001F801938383
:100A2000828382E090E00E946901D80115969C9330
:100A30008E931497ED81FE8163816295607F26E03D
:100A400030E0A80182810E946907A1CF81E090E097
:100A50000E9497010CE312E0D8018D939C9381E0F2
:100A600090E00E948001F8019383828381E090E00E
:100A70000E946901D80115969C938E931497ED817D
:100A8000FE8163816295607F26E030E0A80182816B
:100A90000E9469077CCF0E949200AD81BE811396AF
:100AA0006C9113976295607F30E020E050E040E069
:100AB00012968C910E9421076ACF6DE671E081E762
:100AC00091E00E94480AC0907101D0907201E090BC
:100AD0007301F090740180906D0190906E01A09070
:100AE0006F01B0907001C814D904EA04FB0409F442
:100AF0005CC0C501B4010E94FA0820E030E048EC77
:100B000052E469837A838B839C8369817A818B81A8
:100B10009C810E948809662E772E082F192FD701F5
:100B2000C60188199909AA09BB0989839A83AB83ED
:100B3000BC83BC01CD010E94FA08262F372F482F15
:100B4000592F69827A820B831C8369817A818B8118
:100B50009C810E9488089F938F937F936F9384E179
:100B600091E09F938F9386E492E09F938F930E94EE
:100B7000550D0FB6F894DEBF0FBECDBF26E432E0B0
:100B8000F90101900020E9F79F0127543240AD811F
:100B9000BE8113966C9113976295607F46E452E094
:100BA00012968C910E942107F2CEE6E4F2E08EE4E8
:100BB0009FE29183808381E490E093838283DECF00
:100BC0000E94F00102E412E0F801918380830E9408
:100BD000F301D80113969C938E931297ED81FE81B9
:100BE00063816295607F24E030E0A80182810E94E9
:100BF0006907CDCE0E945E0408E312E0D8018D9310
:100C00009C930E947304F80193838283AD81BE811B
:100C100013966C9113976295607F24E030E0A801F1
:100C200012968C910E946907B2CE1092110130E0A9
:100C300020E050E040E060E8ED81FE8182810E948A
:100C40002107A5CE0E94090C682F792F86E492E037
:100C50000E944E0D26E432E0D9010D900020E9F704
:100C60009D0127543240ED81FE8163816295607F52
:100C700046E452E082810E94210789CE0E946A08E0
:100C8000682F792F86E492E00E944E0D06E412E070
:100C9000F80101900020E9F7319780E29BE591830C
:100CA000808312820E946D08682F792FC8010E94EC
:100CB000430DF80101900020E9F731978DE590E0B0
:100CC00091838083D8010D900020E9F79D0127547E
:100CD0003240ED81FE8163816295607FA80182814F
:100CE0000E94210754CE86E992E00E94F801AD816E
:100CF000BE8113966C9113976295607F2AE030E075
:100D000046E952E012968C910E94690740CEED812F
:100D1000FE8141814250550BBF016C5F7F4F86E9D8
:100D200092E00E943A0D86E992E00E940202AD81B3
:100D3000BE8113966C9113976295607F30E020E03E
:100D400050E040E012968C910E94210720CE30E0C6
:100D500020E050E040E060EFED81FE8182810E9462
:100D6000210715CE6295607F41E0AD81BE8112966C
:100D70008C910E941B070BCE1092C50080E18093DE
:100D8000C400E0ECF0E08081826080838EE080939C
:100D9000C20088ED8093C100089581111092760100
:100DA000E091760180917701E81751F081E08E0F94
:100DB00080937601F0E0EC50FD4F808190E0089543
:100DC000E1ECF0E080818F7D80838FEF9FEF0895CD
:100DD000282F392F962F613508F090E5662351F0C2
:100DE000F901A4EFB2E0290F311D81918D93E21733
:100DF000F307D9F79093770181E00E94CD068093A5
:100E0000C600E1ECF0E08081806280830895E9E033
:100E1000F1E094E09183828363834583860F992771
:100E2000991F2481820F911D480F592F511D409504
:100E30004683CF0108950E94070768E00E94E806F4
:100E400008950F931F93CF93DF93042F152F422FF5
:100E5000532FE9E4F3E09BE4DF011D929A95E9F753
:100E6000E4E4F3E09EE79083322F93E0920F9183C6
:100E70008283638396E09483860F9927991F069651
:100E8000141615061CF5F801A9E4B3E0040F151FAC
:100E900021912D93EF0121972881820F911D27FD2C
:100EA0009A95E017F107A1F7FA01EC5BFC4F8095EA
:100EB000858381E8868367E0630F84E493E00E9482
:100EC000E806DF91CF911F910F91089550E040E027
:100ED000EBCFCF93DF93C42FD52F422F532FE9E4CD
:100EE000F3E09BE4DF011D929A95E9F7E4E4F3E077
:100EF0009EE79083322F93E0920F918382836383E6
:100F000096E09483860F9927991F06961416150666
:100F1000E4F4FE01A9E4B3E0C40FD51F21912D93A1
:100F2000820F911DEC17FD07C9F7FA01EC5BFC4F2E
:100F30008095858381E8868367E0630F84E493E08E
:100F40000E94E806DF91CF91089550E040E0EDCF98
:100F5000E0910601E150E73008F0B0C0F0E0E45C59
:100F6000FF4E0C940C0C8E3709F0A8C0E0910701DD
:100F7000F0910801808382E0809306010895E0915A
:100F80000701F09108018183E0910701F0910801C8
:100F900081818D3450F08CE48183E0910701F091E0
:100FA0000801EE5AFF4F88E0808383E080930601BA
:100FB0000895E0910701F09108018283E05BFF4F03
:100FC00090E09183808384E0809306010895E0910E
:100FD0000701F09108018383DF01A05BBF4F2D91D2
:100FE0003C911197820F932F911D8D939C9381813A
:100FF000823031F085E080930601109275010895EA
:1010000086E0809306010895A0910701B091080140
:10101000E091750141E04E0F40937501EA0FFB2FFF
:10102000F11D8483FD01E05BFF4F20813181820F40
:10103000932F911D9183808311968C918250990BEF
:1010400048171906D9F586E08093060110927501BC
:1010500008954091070150910801FA01E25BFF4FAA
:101060008083329620813181820F932F911D91834D
:10107000808399278F3F910529F04E5A5F4F82E078
:10108000FA01808387E0809306010895813839F062
:10109000E0910701F0910801EE5AFF4F808381E053
:1010A0008093060120910701309108014AE050E049
:1010B00060E070E080E092E00E94600B089580E0C4
:1010C0000E94CD06282F392F2F3F320711F0209391
:1010D000C600089589E191E0089581E291E00895C4
:1010E000A89584B7877F84BFE0E6F0E080818861BF
:1010F00080838FE08083089580911101882309F017
:10110000A89570E060E080E096E00E94A70B08954B
:101110000E949C080C944E090E94470958F00E94B6
:10112000400940F029F45F3F29F00C943709511130
:101130000C9482090C943D090E945F0968F399237D
:10114000B1F3552391F3951B550BBB27AA276217C3
:101150007307840738F09F5F5F4F220F331F441FD0
:10116000AA1FA9F335D00E2E3AF0E0E832D0915004
:101170005040E695001CCAF72BD0FE2F29D0660FF1
:10118000771F881FBB1F261737074807AB07B0E834
:1011900009F0BB0B802DBF01FF2793585F4F3AF03A
:1011A0009E3F510578F00C9437090C9482095F3FFB
:1011B000E4F3983ED4F3869577956795B795F795C0
:1011C0009F5FC9F7880F911D9695879597F90895A8
:1011D000E1E0660F771F881FBB1F62177307840744
:1011E000BA0720F0621B730B840BBA0BEE1F88F753
:1011F000E0950895E89409C097FB3EF4909580959A
:10120000709561957F4F8F4F9F4F9923A9F0F92FCC
:1012100096E9BB279395F695879577956795B7954A
:10122000F111F8CFFAF4BB0F11F460FF1BC06F5F30
:101230007F4F8F4F9F4F16C0882311F096E911C042
:10124000772321F09EE8872F762F05C0662371F063
:1012500096E8862F70E060E02AF09A95660F771F77
:10126000881FDAF7880F9695879597F9089597F96B
:101270009F6780E870E060E008959FEF80EC08953C
:1012800000240A9416161706180609060895002465
:101290000A9412161306140605060895092E0394DF
:1012A000000C11F4882352F0BB0F40F4BF2B11F453
:1012B00060FF04C06F5F7F4F8F4F9F4F089557FDB2
:1012C0009058440F551F59F05F3F71F04795880FB4
:1012D00097FB991F61F09F3F79F08795089512164B
:1012E00013061406551FF2CF4695F1DF08C01616F7
:1012F00017061806991FF1CF8695710561050894A8
:101300000895E894BB2766277727CB0197F90895BE
:101310000E949B090C944E090E94400938F00E94DB
:10132000470920F0952311F00C9437090C943D09DE
:1013300011240C9482090E945F0970F3959FC1F3F8
:10134000950F50E0551F629FF001729FBB27F00D73
:10135000B11D639FAA27F00DB11DAA1F649F6627C8
:10136000B00DA11D661F829F2227B00DA11D621F17
:10137000739FB00DA11D621F839FA00D611D221FD1
:10138000749F3327A00D611D231F849F600D211DB5
:10139000822F762F6A2F11249F5750409AF0F1F038
:1013A00088234AF0EE0FFF1FBB1F661F771F881FA1
:1013B00091505040A9F79E3F510580F00C94370999
:1013C0000C9482095F3FE4F3983ED4F386957795B9
:1013D0006795B795F795E7959F5FC1F7FE2B880F47
:1013E000911D9695879597F908950895682F792FFF
:1013F000A0919603B09197031A161B06A4F4E091EE
:101400009403F091950330E020E08E2F9F2F4081D0
:1014100051814617570749F02F5F3F4F78962A179B
:101420003B0799F7089580E090E0089584E091E00B
:101430000E94AE02089580918001909181010196F1
:10144000909381018093800180918001909181012E
:10145000049731F0E0911201F0911301099508957C
:101460008091820190918301A0918401B0918501C6
:101470000196A11DB11D8093820190938301A093D9
:101480008401B09385011092810110928001E2CF16
:101490000F931F93009178011091790120917A01A7
:1014A00030917B01FC01008311832283338380917F
:1014B0007C0190917D01A0917E01B0917F01FB01A3
:1014C00080839183A283B38310927C0110927D016B
:1014D00010927E0110927F01109278011092790192
:1014E00010927A0110927B011F910F910895282F7D
:1014F000392F121613065CF4213131050CF461C04A
:1015000080E190E0909397038093960306C080E17A
:1015100090E09093970380939603209196033091E7
:101520009703C901880F991F820F931F880F991F76
:10153000880F991F880F991F0E94120C282F392F8E
:101540003093950320939403232B09F43FC010920A
:101550008B0110928A01809196039091970318163F
:10156000190674F530E020E090E080E066E17AE072
:10157000E0919403F0919503E20FF31F1182108222
:1015800012821382148215821682178210861186A7
:10159000128613861486158616861786118A108A77
:1015A000738B628B158A148A178A168A0196285EB5
:1015B0003F4F409196035091970384179507C4F2CB
:1015C00008953093970320939603A7CF81E091E08D
:1015D0000E94AE02BCCF9093130180931201089534
:1015E000CF93DF93C0919603D09197031C161D06ED
:1015F00084F4E0919403F091950330E020E0DF0162
:1016000047854423C9F02F5F3F4F78962C173D073D
:10161000B1F780E091E00E94AE0220918A01309102
:101620008B018091960390919703821793070CF496
:1016300042C0DF91CF9108958083918381E08787B5
:10164000628B738B80918A0190918B0101969093AC
:101650008B0180938A01E0918601F0918701309798
:1016600099F05796FC93EE9356978091880190914C
:10167000890155969C938E935497B58BA48BB09308
:101680008701A0938601C9CFB0938701A0938601FB
:10169000B0938901A09388010A2E1B2E55961C92A7
:1016A0000E92112454970A2E1B2E57961C920E92BE
:1016B00011245697B2CF81E091E00E94AE02B9CFDB
:1016C000CF92DF92EF92FF92CF93DF93C42ED52E6D
:1016D000E62EF72ED22FC32F0E94F609E82FF92FFE
:1016E000309749F18091820190918301A09184010A
:1016F000B091850182839383A483B583C286D38608
:10170000E486F586AC01BD014095509560957095D5
:101710004C155D056E057F05A8F4D701C601841B35
:10172000950BA60BB70B86839783A087B18781E0C3
:101730008687D08BC18BDF91CF91FF90EF90DF90A8
:10174000CF9008958C0D9D1DAE1DBF1DECCF0F9346
:101750001F93CF93DF93D62FC72F0E94F609E82F50
:10176000F92F309739F140918201509183016091B6
:1017700084017091850142835383648375838285DC
:101780009385A485B5858A019B01009510952095C8
:101790003095081719072A073B0788F4801B910B1F
:1017A000A20BB30B86839783A087B18781E08687DE
:1017B000D08BC18BDF91CF911F910F910895840F32
:1017C000951FA61FB71FEECFC0918801D091890148
:1017D0002097F1F303C00C88DD89C02D8E85882306
:1017E000D1F38091820190918301A0918401B09105
:1017F00085014E815F816885798584179507A607E5
:10180000B70748F31E86EA89FB8988899989099573
:10181000E2CF85E391E00895EE0FFF1F0590F4916C
:10182000E02D09940F931F93CF93DF939C010297B0
:1018300010F422E030E0E0919A03F0919B0390E0F5
:1018400080E0B0E0A0E0309791F4009709F445C043
:10185000821B930B84309105B8F58A819B816115B9
:10186000710569F1FB0193838283FE0111C0408100
:1018700051810281138142175307F0F04217530739
:1018800099F4109761F012960C93129713961C938B
:101890003296CF01DF91CF911F910F910895009360
:1018A0009A0310939B03F4CF009719F04817590738
:1018B00018F4CA01BD01EF01DF01F801C4CF909314
:1018C0009B0380939A03D1CFFE01E80FF91F219368
:1018D0003193029799838883DCCF8091980390910C
:1018E0009903892B41F48091020190910301909317
:1018F00099038093980380910001909101010097D2
:1019000041F48DB79EB74091040150910501841BAD
:10191000950B40919803509199034817590708F087
:10192000B8CF841B950B8217930708F4B2CFB90187
:101930006E5F7F4F8617970708F4ABCF640F751F54
:101940007093990360939803FA0121933193A1CF87
:10195000CF93DF939C010097E9F0FC01329713824B
:101960001282C0919A03D0919B03DE0190E080E047
:101970002097A1F480819181280F391F80919803CD
:10198000909199038217930709F067C0F093990328
:10199000E0939803DF91CF910895DA01AE17BF0766
:1019A00008F041C012964D915C911397CD014115FD
:1019B000510599F7DC011396FC93EE9312974D9124
:1019C0005D91A40FB51FEA17FB0781F420813181D7
:1019D0002E5F3F4F240F351FDC0111963C932E9351
:1019E0002281338113963C932E931297B0E0A0E0AE
:1019F0008A819B810097B1F5FE0181919191E80F59
:101A0000F91F80919803909199038E179F0711F603
:101A1000109759F510929B0310929A03D093990353
:101A2000C0939803B7CFB383A28340815181240F21
:101A3000351FA217B30771F44E5F5F4F2D913C9194
:101A40001197420F531F5183408312962D913C9161
:101A500033832283009709F0ADCFF0939B03E0938B
:101A60009A0398CFDE01EC01C3CF13961C921E920D
:101A70001297D4CFFB01DC0102C001900D924150BE
:101A80005040D8F70895FB01DC010D900020E9F7E4
:101A9000119701900D920020E1F70895FB01DC0100
:101AA00001900D920020E1F70895AEE0B0E0EBE583
:101AB000FDE00C9402100D891E8986E08C831A8348
:101AC00009838FEF9FE79E838D83AE01475E5F4F53
:101AD0006F89788DCE0101960E94780D2F8138850F
:101AE000020F131FF80110822E96E4E00C941E10D2
:101AF000AFE0B0E0EEE7FDE00C94F40F7C013B01B9
:101B00008A01DC0117961C921E92169713968C91EF
:101B100081FFC3C19AE0292EFE0131964F01D70102
:101B200013969C91F30193FD859193FF81913F0161
:101B3000882309F448C1853239F493FD859193FFD8
:101B400081913F01853229F4B70190E00E94660F30
:101B5000E6CFB12C412C512CBFE1B51538F08B32BA
:101B600009F188F4803201F1833221F157FC3AC047
:101B700020ED280F2A3040F556FE1FC0B29C200DE4
:101B80001124B22E06C08D3291F0803379F768941B
:101B900050F8F30193FD859193FF81913F018111ED
:101BA000DBCF20C0689451F8689452F8F2CF689463
:101BB00053F8EFCF689454F8ECCF429C200D1124D9
:101BC000422E689455F8E5CF8E3229F456FCFBC0BE
:101BD000689456F8DECF8C3619F4689457F8D9CF4C
:101BE0008836B9F2982F9F7D95549330C0F0833694
:101BF000A1F18337C1F1833509F05BC0D801CD90E5
:101C0000DD908D016B2D70E056FC02C06FEF7FEF11
:101C1000C6010E94500F5C01689457F80AC00C5F1F
:101C20001F4FEFE3E983AA24A394B12C6401E89445
:101C300057F853FC04C04A141B0409F018F5342C5F
:101C4000A114B10431F5332009F469CFB70180E262
:101C500090E00E94660F3A94F6CFD8018C91898368
:101C60000E5F1F4FE0CFF801C190D1908F016B2D17
:101C700070E056FC02C06FEF7FEFC6010E945B0F61
:101C80005C01D5CFB70180E290E00E94660F4A94D4
:101C9000D2CFF60157FC859157FE81916F01B701B4
:101CA00090E00E94660F31103A94B1E0AB1AB1088F
:101CB000C7CF843619F0893609F074C0F80157FE91
:101CC0006AC061917191819191918F01E52DEF76BB
:101CD000DE2E97FF09C090958095709561957F4F96
:101CE0008F4F9F4F6894D7F82AE030E0A4010E94FC
:101CF000960FC82EC818AC2C5D2CD6FE0CC0E894EC
:101D000050F8CB1440F4D4FE05C0D2FC03C05D2DC6
:101D10005E7E552EAB2C54FE98C0FE01EC0DF11DDD
:101D20008081803309F08AC0652D697E562E752D1D
:101D30007870372E53FC98C050FE92C0BC2CA4146F
:101D400018F44C0CB42CBA1854FE94C0B70180E3BC
:101D500090E00E94660F52FE09C088E790E051FEB5
:101D600002C088E590E0B7010E94660FCB1408F42A
:101D70008DC0CA94D12C8FEFC81AD80AC80CD91CB0
:101D8000D6018E916D01B70190E00E94660F8C1410
:101D90009D04B1F758CF61917191072E000C880B0B
:101DA000990B93CFD52CE894D4F82AE030E085370E
:101DB00039F1F52DF97FDF2E8037A9F058F48835F9
:101DC000A9F08F36D9F0F701868197812F96E2E14D
:101DD0000C9410108837B9F7D4FE02C06894D2F87A
:101DE00020E130E00DC06894D4F8F6CF54FE03C073
:101DF0002F2F2660D22E20E132E002C028E030E012
:101E0000F801D7FE15C041915191619171914C87B4
:101E10005D876E877F878F01A4016C857D858E85A8
:101E20009F850E94960FC82EC818E894D7F863CFF4
:101E300081919191AC0170E060E0E9CF52FC02C069
:101E4000A39475CFA394A39472CF852D867809F4BB
:101E50006ECFF6CFB70180E290E00E94660FA394A8
:101E6000A414C0F3312C70CF342C3A18A41408F405
:101E70006BCFF8CF852D867809F478CF8BE251FEB1
:101E800080E257FC8DE2B70190E06ECFB70180E3AE
:101E900090E00E94660FBA9469CF8FEF9FEF96CFC4
:101EA000FC010590615070400110D8F78095909525
:101EB0008E0F9F1F0895FC0161507040019001102A
:101EC000D8F7809590958E0F9F1F08950F931F93BD
:101ED000CF93DF93182F092FEB018B8181FD09C070
:101EE0001FEF0FEF812F902FDF91CF911F910F9157
:101EF000089582FF14C02E813F818C819D81281717
:101F000039073CF4E881F981CF01019699838883F0
:101F100010838E819F8101969F838E83E3CFE88516
:101F2000F985812F0995892BA1F3DACFFA01AA2728
:101F3000283051F1203181F1E8946F936E7F6E5F0C
:101F40007F4F8F4F9F4FAF4FB1E03ED0B4E03CD0BA
:101F5000670F781F891F9A1FA11D680F791F8A1F9D
:101F6000911DA11D6A0F711D811D911DA11D20D004
:101F700009F468943F912AE0269F11243019305DBE
:101F80003193DEF6CF010895462F4770405D4193AF
:101F9000B3E00FD0C9F7F6CF462F4F70405D4A33FC
:101FA00018F0495D31FD4052419302D0A9F7EACFC4
:101FB000B4E0A6959795879577956795BA95C9F7F3
:101FC00000976105710508959B01AC010A2E0694E6
:101FD0005795479537952795BA95C9F7620F731F9F
:101FE000841F951FA01D08952F923F924F925F92DC
:101FF0006F927F928F929F92AF92BF92CF92DF9219
:10200000EF92FF920F931F93CF93DF93CDB7DEB77D
:10201000CA1BDB0B0FB6F894DEBF0FBECDBF099411
:102020002A88398848885F846E847D848C849B8468
:10203000AA84B984C884DF80EE80FD800C811B8176
:10204000AA81B981CE0FD11D0FB6F894DEBF0FBEA5
:10205000CDBFED010895F894FFCFDC0401052605FE
:102060004B05E005FA055D05150622063E067306DA
:102070008706B206B206A706B307BF07D907E70768
:06208000040829084608CF
:1020860000009C03200001A0027E00000015000055
:102096008101F509252E336600312E342E3030317C
:1020A60000323031392D30392D32372030383A333D
:1020B600323A343100312E322E303120323031393D
:1020C6002D30372D33302031373A33373A3230001E
:00000001FF
