:100000000C946D100C943C140C943D140C943E1400
:100010000C943F140C9440140C9441140C9442140E
:100020000C9443140C9444140C9445140C944614EE
:100030000C946A140C946B140C946C140C946D1442
:100040000C946E140C946F140C9470140C949614FD
:100050000C94BA140C94BB140C94DF140C94E0149C
:100060000C94E1140C94E214C90AC60AC30AC00A2B
:10007000BD0ABA0AB70AB40AB10AAE0AAB0AA80A9C
:10008000A50AA20A9F0A9C0A990A960A930A900A4C
:100090008D0A8A0A870A840A810A7E0A7B0A780AFC
:1000A000750A720A6F0A6C0A690A660A630A600AAC
:1000B0005D0A5A0A570A540A510A4E0A4B0A480A5C
:1000C000450A420A3F0A3C0A390A360A330A300A0C
:1000D0002D0A2A0A270A240A210A1E0A1B0A180ABC
:1000E000150A120A0F0A0C0A090A060A030A000A6C
:1000F000FD09FA09F709F409F109EE09EB09E80924
:10010000E509E209DF09DC09D909D609D309D009D3
:10011000CD09CA09C709C409C109BE09BB09B80983
:10012000B509B209AF09AC09A909A609A309A00933
:100130009D099A099709940991098E098B098809E3
:10014000850982097F097C09790976097309700993
:100150006D096A096709640961095E095B09580943
:10016000550952094F094C094909460943094009F3
:100170003D093A093709340931092E092B092809A3
:10018000250922091F091C09190916091309100953
:100190000D090A09070904090109FE08FB08F80806
:1001A000F508F208EF08EC08E908E608E308E008BB
:1001B000DD08DA08D708D408D108CE08CB08C8086B
:1001C000C508C208BF08BC08B908B608B308B0081B
:1001D000AD08AA08A708A408A1089E089B089808CB
:1001E000950892088F088C0889088608830880087B
:1001F0007D087A087708740871086E086B0868082B
:10020000650862085F085C085908560853085008DA
:100210004D084A084708440841083E083B0838088A
:10022000350832082F082C0829082608230820083A
:100230001D081A081708140811080E080B080808EA
:1002400005080208FF07FC07F907F607F307F007A0
:10025000ED07EA07E707E407E107DE07DB07D80752
:10026000D507D207CF07CC07C907C607C307C00702
:10027000BD07BA07B707B407B107AE07AB07A807B2
:10028000A507A2079F079C07990796079307900762
:100290008D078A078707840781077E077B07780712
:1002A000750772076F076C076907660763076007C2
:1002B0005D075A075707540751074E074B07480772
:1002C000450742073F073C07390736073307300722
:1002D0002D072A072707240721071E071B071807D2
:1002E000150712070F070C07090706070307000782
:1002F000FD06FA06F706F406F106EE06EB06E8063A
:10030000E506E206DF06DC06D906D606D306D006E9
:10031000CD06CA06C706C406C106BE06BB06B80699
:10032000B506B206AF06AC06A906A606A306A00649
:100330009D069A069706940691068E068B068806F9
:10034000850682067F067C067906760673067006A9
:100350006D066A066706640661065E065B06580659
:10036000550652064F064C06490646064306400609
:100370003D063A063706340631062E062B062806B9
:10038000250622061F061C06190616061306100669
:100390000D060A06070604060106FE05FB05F8051C
:1003A000F505F205EF05EC05E905E605E305E005D1
:1003B000DD05DA05D705D405D105CE05CB05C80581
:1003C000C505C205BF05BC05B905B605B305B00531
:1003D000AD05AA05A705A405A1059E059B059805E1
:1003E000950592058F058C05890586058305800591
:1003F0007D057A057705740571056E056B05680541
:10040000650562055F055C055905560553055005F0
:100410004D054A054705440541053E053B053805A0
:10042000350532052F052C05290526052305200550
:100430001D051A051705140511050E050B05080500
:1004400005050205FF04FC04F904F604F304F004B6
:10045000ED04EA04E704E404E104DE04DB04D80468
:10046000D504D204CF04CC04C904C604C304C00418
:10047000BD04BA04B704B404B104AE04AB04A804C8
:10048000A504A2049F049C04990496049304900478
:1004900041000940005740004240002C40001640F7
:1004A00000013F004F3F00393F00233F000E3E0058
:1004B0005C3E00463E00313E001B3E00053D0053C1
:1004C0003D003E3D00283D00123C00603C004B3C9E
:1004D00000353C001F3C000A3B00583B00423B00FB
:1004E0002C3B00173B00013A004F3A003A3A0024F7
:1004F0003A000E39005C39004739003139001B39A8
:10050000000538005438003E380028380013370002
:100510006137004B37003537002037000A36005866
:1005200036004336002D36001736000135005035B1
:10053000003A35002435000E34005D3400473400A5
:100540003134001C34000633005433003E3300299C
:1005500033001332006132004C3200363200203258
:10056000000A31005931004331002D3100173100AC
:100570000230005030003A30002530000F2F005D6F
:100580002F00472F00322F001C2F00062E00552E63
:10059000003F2E00292E00132D00622D004C2D004F
:1005A000362D00202D000B2C00592C00432C002E42
:1005B0002C00182C00022B00502B003B2B00252B6D
:1005C000000F2A005E2A00482A00322A001C2A0056
:1005D0000729005529003F29002929001428006215
:1005E00028004C28003728002128000B2700592715
:1005F000004427002E27001827000326005126005C
:100600003B26002526001025005E250048250032E7
:1006100025001D25000724005524004024002A241D
:10062000001423006223004D230037230021230000
:100630000C22005A22004422002E2200192200031C
:1006400021005121003B21002621001020005E20C6
:10065000004920003320001D2000071F00561F0006
:10066000401F002A1F00141E00631E004D1E00378D
:100670001E00221E000C1D005A1D00441D002F1DCF
:1006800000191D00031C00521C003C1C00261C000D
:10069000101B005F1B00491B00331B001D1B0008C3
:1006A0001A00561A00401A002B1A00151900631977
:1006B000004D19003819002219000C18005B1800B1
:1006C0004518002F18001918000417005217003C95
:1006D00017002617001116005F1600491600341681
:1006E000001E16000815005615004115002B1500B8
:1006F0001515000014004E14003814002214000DCB
:1007000013005B13004513002F13001A130004128B
:10071000005212003D12002712001111005F11005B
:100720004A11003411001E11000910005710004139
:1007300010002B1000161000000F004E0F00380F95
:1007400000230F000D0E005B0E00460E00300E0061
:100750001A0E00040D00530D003D0D00270D001270
:100760000C00600C004A0C00340C001F0C00090B3C
:1007700000570B00410B002C0B00160B00000A0069
:100780004F0A00390A00230A000D09005C090046DF
:1007900009003009001B09000508005308003D0846
:1007A000002808001207006007004A07003507000C
:1007B0001F07000906005806004206002C06001616
:1007C00006000105004F05003905002405000E0450
:1007D000005C04004604003104001B040005030013
:1007E0005303003E03002803001202006102004B85
:1007F00002003502001F02000A01005801004201F8
:10080000002C01001701000100004F00003A000019
:100810002400000E00000700001C00003200004809
:1008200000005DFFFF0FFFFF25FFFF3BFFFF50FEB6
:10083000FF02FEFF18FEFF2EFEFF43FEFF59FDFFE5
:100840000BFDFF20FDFF36FDFF4CFDFF62FCFF139B
:10085000FCFF29FCFF3FFCFF54FBFF06FBFF1CFBDA
:10086000FF32FBFF47FBFF5DFAFF0FFAFF25FAFFA0
:100870003AFAFF50F9FF02F9FF17F9FF2DF9FF438C
:10088000F9FF59F8FF0AF8FF20F8FF36F8FF4BF898
:10089000FF61F7FF13F7FF29F7FF3EF7FF54F6FF5D
:1008A00006F6FF1CF6FF31F6FF47F6FF5DF5FF0E7B
:1008B000F5FF24F5FF3AF5FF50F4FF01F4FF17F4BC
:1008C000FF2DF4FF42F4FF58F3FF0AF3FF20F3FF7C
:1008D00035F3FF4BF3FF61F2FF13F2FF28F2FF3E07
:1008E000F2FF54F1FF05F1FF1BF1FF31F1FF47F17A
:1008F000FF5CF0FF0EF0FF24F0FF39F0FF4FEFFF39
:1009000001EFFF17EFFF2CEFFF42EFFF58EEFF0A5A
:10091000EEFF1FEEFF35EEFF4BEEFF60EDFF12ED39
:10092000FF28EDFF3EEDFF53ECFF05ECFF1BECFF56
:1009300030ECFF46ECFF5CEBFF0EEBFF23EBFF39E7
:10094000EBFF4FEAFF01EAFF16EAFF2CEAFF42EA5B
:10095000FF57E9FF09E9FF1FE9FF35E9FF4AE9FF12
:1009600060E8FF12E8FF27E8FF3DE8FF53E7FF05D7
:10097000E7FF1AE7FF30E7FF46E7FF5CE6FF0DE61B
:10098000FF23E6FF39E6FF4EE5FF00E5FF16E5FF32
:100990002CE5FF41E5FF57E4FF09E4FF1EE4FF34C7
:1009A000E4FF4AE4FF60E3FF11E3FF27E3FF3DE3D9
:1009B000FF53E2FF04E2FF1AE2FF30E2FF45E2FFED
:1009C0005BE1FF0DE1FF23E1FF38E1FF4EE0FF00B7
:1009D000E0FF16E0FF2BE0FF41E0FF57DFFF08DFFD
:1009E000FF1EDFFF34DFFF4ADFFF5FDEFF11DEFFA8
:1009F00027DEFF3CDEFF52DDFF04DDFF1ADDFF2FA7
:100A0000DDFF45DDFF5BDCFF0DDCFF22DCFF38DCBA
:100A1000FF4EDCFF63DBFF15DBFF2BDBFF41DBFF62
:100A200056DAFF08DAFF1EDAFF33DAFF49DAFF5F32
:100A3000D9FF11D9FF26D9FF3CD9FF52D8FF04D8DE
:100A4000FF19D8FF2FD8FF45D8FF5AD7FF0CD7FF83
:100A500022D7FF38D7FF4DD7FF63D6FF15D6FF2A21
:100A6000D6FF40D6FF56D5FF08D5FF1DD5FF33D59D
:100A7000FF49D5FF5FD4FF10D4FF26D4FF3CD4FF3D
:100A800051D3FF03D3FF19D3FF2FD3FF44D3FF5A12
:100A9000D2FF0CD2FF21D2FF37D2FF4DD2FF63D15C
:100AA000FF14D1FF2AD1FF40D1FF56D0FF07D0FF5E
:100AB0001DD0FF33D0FF48D0FF5ECFFF10CFFF2601
:100AC000CFFF3BCFFF51CEFF03CEFF180000000049
:100AD0000005000014000024000034000044000061
:100AE0005300006301000F01001F01002E01003EB2
:100AF00001004E01005E02000A02001902002902F4
:100B000000390200490200580300040300140300E6
:100B10002403003303004303005303006304000E67
:100B200004001E04002E04003E04004E04005D0577
:100B300000090500190500290500380500480500D1
:100B4000580600040600130600230600330600437F
:100B500006005306006207000E07001E07002E075E
:100B6000003D07004D07005D080009080018080057
:100B70002808003808004808005709000309001336
:100B80000900230900330900420900520900620AE2
:100B9000000E0A001D0A002D0A003D0A004D0A0041
:100BA0005C0B00080B00180B00280B00370B0047EC
:100BB0000B00570C00030C00130C00220C00320C2D
:100BC00000420C00520C00610D000D0D001D0D00C7
:100BD0002D0D003C0D004C0D005C0E00080E0018A1
:100BE0000E00270E00370E00470E00570F00020FB1
:100BF00000120F00220F00320F00410F00510F00B2
:100C00006110000D10001C10002C10003C10004C56
:100C100010005C1100071100171100271100371197
:100C2000004611005612000212001212002112009A
:100C30003112004112005112006113000C13001C0C
:100C400013002C13003C13004B13005B140007141B
:100C50000017140026140036140046140056150020
:100C60000115001115002115003115004115005026
:100C700015006016000C16001C16002B16003B1603
:100C8000004B16005B17000617001617002617000A
:100C900036170046170055180001180011180021DA
:100CA00018003018004018005018006019000B1987
:100CB000001B19002B19003B19004A19005A1A0091
:100CC000061A00161A00261A00351A00451A005591
:100CD0001B00011B00101B00201B00301B00401BD1
:100CE000004F1B005F1C000B1C001B1C002A1C007B
:100CF0003A1C004A1C005A1D00061D00151D002547
:100D00001D00351D00451D00541E00001E00101E54
:100D100000201E002F1E003F1E004F1E005F1F0000
:100D20000B1F001A1F002A1F003A1F004A1F0059FC
:100D3000200005200015200025200034200044203C
:100D4000005421000021000F21001F21002F21004D
:100D50003F21004F21005E22000A22001A22002AB1
:100D600022003922004922005923000523001423C0
:100D70000024230034230044230054230063240070
:100D80000F24001F24002F24003E24004E24005E68
:100D900025000A25001925002925003925004925A7
:100DA00000582600042600142600242600342600BD
:100DB0004326005326006327000F27001E27002E1E
:100DC00027003E27004E27005D280009280019282B
:100DD0000029280039280048280058290004290043
:100DE00014290023290033290043290053290062D4
:100DF0002A000E2A001E2A002E2A003D2A004D2A13
:100E0000005D2B00092B00192B00282B00382B002C
:100E1000482B00582C00032C00132C00232C0033EB
:100E20002C00422C00522C00622D000E2D001E2D95
:100E3000002D2D003D2D004D2D005D2E00082E00B3
:100E4000182E00282E00382E00472E00572F0003A2
:100E50002F00132F00222F00322F00422F00522F7D
:100E6000006230000D30001D30002D30003D30009C
:100E70004C30005C31000831001831002731003758
:100E80003100473100573200023200123200223264
:100E9000003232004232005132006133000D330023
:100EA0001D33002C33003C33004C33005C3400070E
:100EB00034001734002734003734004734005635E7
:100EC0000002350012350022350031350041350071
:100ED0005135006136000C36001C36002C36003CC3
:100EE00036004B36005B37000737001737002737CF
:100EF00000363700463700563800023800113800F7
:100F00002138003138004138005038006039000C79
:100F100039001C39002C39003B39004B39005B3A51
:100F200000073A00163A00263A00363A00463A00E0
:100F3000553B00013B00113B00213B00303B004092
:100F40003B00503B00603C000C3C001B3C002B3C39
:100F5000003B3C004B3C005A3D00063D00163D0066
:100F6000263D00353D00453D00553E00013E001147
:100F70003E00203E00303E00403E00503E005F3FBD
:100F8000000B3F001B3F002B3F003A3F004A3F0051
:100F90005A400006400015400025400035400045FD
:100FA0004000554100004100104100204100304107
:100FB000003F41004F41005F42000B42001A4200D7
:100FC0002A42003A42004A42005A430005430015B3
:100FD000430025430035430044430054440000448B
:100FE000001044001F44002F44003F44004F4400C1
:100FF0005E45000A45001A45002A45003A45004969
:101000004500594600054600154600244600344672
:10101000004446005446006347000F47001F470046
:101020002F47003E47004E47005E48000A48001A1E
:1010300048002948003948004948005949000449F6
:101040000014490024490034490043490053490031
:10105000634A000F4A001F4A002E4A003E4A004ED3
:101060004A005E4B00094B00194B00294B00394BDD
:1010700000484B00584C00044C00144C00234C001A
:10108000334C00434C00534C00634D000E4D001E8A
:101090004D002E4D003E4D004D4D005D4E00094E61
:1010A00000194E00284E00384E00484E00584F00A0
:1010B000044F00134F00234F00334F00434F0052A3
:1010C0004F006250000E50001E50002D50003D5049
:1010D000004D50005D51000851001851002851008A
:1010E0003851004851005752000352001352002358
:1010F00052003252004252005252006253000D53CD
:10110000001D53002D53003D53004D53005C54000F
:10111000085400185400285400375400475400570E
:101120005500035500125500225500325500425516
:10113000005155006156000D56001D56002D5600F9
:101140003C56004C56005C570008570017570027C4
:10115000570037570047570056580002580012589A
:101160000022580031580041580051580061590080
:101170000D59001C59002C59003C59004C59005B7A
:101180005A00075A00175A00275A00365A00465A82
:1011900000565B00025B00125B00215B00315B00CC
:1011A000415B00515B00605C000C5C001C5C002C2F
:1011B0005C003B5C004B5C005B5D00075D00165D06
:1011C00000265D00365D00465D00565E00015E0053
:1011D000115E00215E00315E00405E00505E0060E6
:1011E0005F000C5F001B5F002B5F003B5F004B5FED
:1011F000005B60000660001660002660003660003C
:1012000045600055610001610011610020610030FE
:1012100061004061005061005F62000B62001B6270
:10122000002B62003B62004A62005A6300066300C2
:1012300016630025630035630045630055640000B4
:1012400064001064002064003064004064004F6457
:10125000005F65000B65001B65002A65003A6500AC
:101260004A65005A66000566001566002566003569
:10127000660044660054670000670010670020673E
:10128000002F67003F67004F67005F68000A680033
:101290001A68002A68003A68004968005969000520
:1012A0006900156900256900346900446900546AC1
:1012B00000006A000F6A001F6A002F6A003F6A0080
:1012C0004E6A005E6B000A6B001A6B00296B0039D6
:1012D0006B00496B00596C00056C00146C00246CA9
:1012E00000346C00446C00536C00636D000F6D00A3
:1012F0001F6D002E6D003E6D004E6D005E6E00098C
:1013000061185E185B185818551852184F184C1869
:1013100049184618431840183D183A183718341819
:1013200031182E182B182818251822181F181C18C9
:1013300019181618131810180D180A180718041879
:101340000118FE17FB17F817F517F217EF17EC1730
:10135000E917E617E317E017DD17DA17D717D417E1
:10136000D117CE17CB17C817C517C217BF17BC1791
:10137000B917B617B317B017AD17AA17A717A41741
:10138000A1179E179B179817951792178F178C17F1
:1013900089178617831780177D177A1777177417A1
:1013A00071176E176B176817651762175F175C1751
:1013B00059175617531750174D174A174717441701
:1013C00041173E173B173817351732172F172C17B1
:1013D00029172617231720171D171A171717141761
:1013E00011170E170B17081705170217FF16FC1613
:1013F000F916F616F316F016ED16EA16E716E416C9
:10140000E116DE16DB16D816D516D216CF16CC1678
:10141000C916C616C316C016BD16BA16B716B41628
:10142000B116AE16AB16A816A516A2169F169C16D8
:1014300099169616931690168D168A168716841688
:1014400081167E167B167816751672166F166C1638
:1014500069166616631660165D165A1657165416E8
:1014600051164E164B164816451642163F163C1698
:1014700039163616331630162D162A162716241648
:1014800021161E161B161816151612160F160C16F8
:101490000916061603160016FD15FA15F715F415AC
:1014A000F115EE15EB15E815E515E215DF15DC1560
:1014B000D915D615D315D015CD15CA15C715C41510
:1014C000C115BE15BB15B815B515B215AF15AC15C0
:1014D000A915A615A315A0159D159A159715941570
:1014E00091158E158B158815851582157F157C1520
:1014F00079157615731570156D156A1567156415D0
:1015000061155E155B155815551552154F154C157F
:1015100049154615431540153D153A15371534152F
:1015200031152E152B1528157D04207C04187B04FD
:101530000F7A0406780462770459760450750448DB
:1015400074043F73043772042E71042570041D6FF8
:1015500004146E040C6D04036B045E6A0456690483
:101560004D68044567043C66043365042B6404221B
:101570006304196204116104086004005E045B5D89
:1015800004525C044A5B04415A043959043058043B
:101590002757041F56041655040D540405520460C1
:1015A00051045850044F4F04464E043E4D04354CF0
:1015B000042D4B04244A041B49041348040A47041D
:1015C0000245045D44045443044C42044341043A3C
:1015D0004004323F04293E04213D04183C040F3BE3
:1015E000040739046238045A370451360448350474
:1015F0004034043733042E32042631041D300415E0
:101600002F040C2E04032C045F2B04562A044E29AD
:10161000044528043C27043426042B2504232404F1
:101620001A2304112204092104001F045B1E045321
:101630001D044A1C04421B04391A043019042818DA
:10164000041F17041716040E150405130461120471
:101650005811044F1004470F043E0E04360D042D9C
:101660000C04240B041C0A041309040B08040206CE
:10167000045D05045504044C03044402043B0104C6
:101680003200042AFF0321FE0318FD0310FC0307A8
:10169000FA0363F9035AF80351F70349F60340F5D7
:1016A0000338F4032FF30326F2031EF10315F003AE
:1016B0000CEF0304ED035FEC0357EB034EEA034525
:1016C000E9033DE80334E7032CE60323E5031AE4CA
:1016D0000312E30309E20300E0035CDF0353DE03CC
:1016E0004BDD0342DC0339DB0331DA0328D9032065
:1016F000D80317D7030ED60306D40361D30359D2F8
:101700000350D10347D0033FCF0336CE032DCD0383
:1017100025CC031CCB0314CA030BC90302C7035E09
:10172000C60355C5034DC40344C3033BC20333C1C1
:10173000032AC00321BF0319BE0310BD0308BB0366
:1017400063BA035AB90352B80349B70341B6033821
:10175000B5032FB40327B3031EB20316B1030DB0B4
:101760000304AE0360AD0357AC034EAB0346AA03BC
:101770003DA90335A8032CA70323A6031BA5031229
:10178000A4030AA30301A1035CA003549F034B9E7F
:1017900003429D033A9C03319B03299A032099033A
:1017A0001798030F97030695036294035993035008
:1017B00092034891033F9003378F032E8E03258DAC
:1017C000031D8C03148B030B8A030388035E8703BA
:1017D0005686034D85034484033C83033382032BE5
:1017E0008103228003197F03117E03087C03637B3E
:1017F000035B7A035279034A78034177033876030F
:101800003075032774031F73031672030D710305EC
:101810006F03606E03586D034F6C03466B033E6AA3
:10182000033569032C68032467031B6603136503F0
:101830000A64030162035D61035460034C5F034368
:101840005E033A5D03325C03295B03205A03185997
:10185000030F5803075603625503595403515303AA
:1018600048520340DB1BD81BD51BD21BCF1BCC1B04
:10187000C91BC61BC31BC01BBD1BBA1BB71BB41B9C
:10188000B11BAE1BAB1BA81BA51BA21B9F1B9C1B4C
:10189000991B961B931B901B8D1B8A1B871B841BFC
:1018A000811B7E1B7B1B781B751B721B6F1B6C1BAC
:1018B000691B661B631B601B5D1B5A1B571B541B5C
:1018C000511B4E1B4B1B481B451B421B3F1B3C1B0C
:1018D000391B361B331B301B2D1B2A1B271B241BBC
:1018E000211B1E1B1B1B181B151B121B0F1B0C1B6C
:1018F000091B061B031B001BFD1AFA1AF71AF41A20
:10190000F11AEE1AEB1AE81AE51AE21ADF1ADC1AD3
:10191000D91AD61AD31AD01ACD1ACA1AC71AC41A83
:10192000C11ABE1ABB1AB81AB51AB21AAF1AAC1A33
:10193000A91AA61AA31AA01A9D1A9A1A971A941AE3
:10194000911A8E1A8B1A881A851A821A7F1A7C1A93
:10195000791A761A731A701A6D1A6A1A671A641A43
:10196000611A5E1A5B1A581A551A521A4F1A4C1AF3
:10197000491A461A431A401A3D1A3A1A371A341AA3
:10198000311A2E1A2B1A281A251A221A1F1A1C1A53
:10199000191A161A131A101A0D1A0A1A071A041A03
:1019A000011AFE19FB19F819F519F219EF19EC19BA
:1019B000E919E619E319E019DD19DA19D719D4196B
:1019C000D119CE19CB19C819C80012C70005C50016
:1019D0005CC4004EC30041C20034C10027C0001ADD
:1019E000BF000DBE0000BC0057BB004ABA003DB9A5
:1019F000002FB80022B70015B60008B4005FB3008E
:101A000052B20045B10038B0002BAF001EAE00103E
:101A1000AD0003AB005AAA004DA90040A80033A7AF
:101A20000026A60019A5000CA30063A20056A10081
:101A300048A0003B9F002E9E00219D00149C0007A3
:101A40009A005E99005198004497003796002995B6
:101A5000001C94000F93000291005990004C8F00DD
:101A60003F8E00328D00258C00188B000A890061A2
:101A700088005487004786003A85002D8400208323
:101A8000001382000680005D7F004F7E00427D00D3
:101A9000357C00287B001B7A000E79000177005806
:101AA00076004B75003E740031730023720016718E
:101AB00000096F00606E00536D00466C00396B00CA
:101AC0002C6A001F69001268000466005B65004E06
:101AD00064004163003462002761001A60000D5FFA
:101AE00000005D00575C00495B003C5A002F590024
:101AF0002258001557000855005F54005253004506
:101B000052003851002B50001D4F00104E00034C66
:101B1000005A4B004D4A0040490033480026470018
:101B20001946000C44006243005542004841003B06
:101B300040002E3F00213E00143D00073B005E3A6E
:101B4000005139004338003637002936001C350073
:101B50000F34000232005931004C30003F2F003268
:101B60002E00242D00172C000A2A00612900542879
:101B7000004727003A26002D2500202400132300CB
:101B80000621005C20004F1F00421E00351D00286A
:101B90001C001B1B000E1A000118005817004B16E2
:101BA000003D150030140023130016120009100028
:101BB000600F00530E00460D00390C002C0B001E68
:101BC0000A001109000407005B06004E05004104ED
:101BD000003403002702001A01000D000000D62087
:101BE000D320D020CD20CA20C720C420C120BE20B1
:101BF000BB20B820B520B220AF20AC20A920A62061
:101C0000A320A0209D209A209720942091208E2010
:101C10008B208820852082207F207C2079207620C0
:101C2000732070206D206A206720642061205E2070
:101C30005B205820552052204F204C204920462020
:101C4000432040203D203A203720342031202E20D0
:101C50002B202820252022201F201C201920162080
:101C6000132010200D200A20072004200120FE1F31
:101C7000FB1FF81FF51FF21FEF1FEC1FE91FE61FE8
:101C8000E31FE01FDD1FDA1FD71FD41FD11FCE1F98
:101C9000CB1FC81FC51FC21FBF1FBC1FB91FB61F48
:101CA000B31FB01FAD1FAA1FA71FA41FA11F9E1FF8
:101CB0009B1F981F951F921F8F1F8C1F891F861FA8
:101CC000831F801F7D1F7A1F771F741F711F6E1F58
:101CD0006B1F681F651F621F5F1F5C1F591F561F08
:101CE000531F501F4D1F4A1F471F441F411F3E1FB8
:101CF0003B1F381F351F321F2F1F2C1F291F261F68
:101D0000231F201F1D1F1A1F171F141F111F0E1F17
:101D10000B1F081F051F021FFF1EFC1EF91EF61ECB
:101D2000F31EF01EED1EEA1EE71EE41EE11EDE1E7F
:101D3000DB1ED81ED51ED21ECF1ECC1EC91EC61E2F
:101D4000C31EC01EBD1EBA1EB71EB41EB11EAE1EDF
:101D5000AB1EA81EA51EA21E9F1E9C1E991E961E8F
:101D6000931E901E8D1E8A1E871E841E811E7E1E3F
:101D70007B1E781E751E721E6F1E6C1E691E661EEF
:101D8000631E601E5D1E5A1E571E541E511E4E1E9F
:101D90004B1E481E451E421E3F1E3C1E391E361E4F
:101DA000331E301E2D1E2A1E271E241E211E1E1EFF
:101DB0001B1E181E151E121E0F1E0C1E091E061EAF
:101DC000031E001EFD1DFA1DF71DF41DF11DEE1D65
:101DD000EB1DE81DE51DE21DDF1DDC1D38003B3855
:101DE000002538000E37005C3700463700303700DA
:101DF0001937000336005136003B36002436000EFA
:101E000035005C35004535002F35001935000334A9
:101E1000005034003A34002434000D33005B3300AA
:101E20004533002F3300183300023200503200399E
:101E300032002332000D31005B31004431002E317D
:101E4000001831000130004F3000393000233000DD
:101E50000C2F005A2F00442F002E2F00172F0001A7
:101E60002E004F2E00382E00222E000C2D005A2D51
:101E700000432D002D2D00172D00002C004E2C00AE
:101E8000382C00222C000B2B00592B00432B002C4C
:101E90002B00162B00002A004E2A00372A00212A88
:101EA000000B29005829004229002C29001628007F
:101EB0006328004D28003728002028000A270058F2
:101EC00027004227002B27001526006326004D26F9
:101ED000003626002026000A25005725004125004F
:101EE0002B25001524006224004C24003624001FFA
:101EF00024000923005723004123002A2300142231
:101F0000006222004B22003522001F22000921001E
:101F10005621004021002A21001320006120004B9F
:101F200020003520001E2000081F00561F00401F03
:101F300000291F00131E00611E004A1E00341E00EF
:101F40001E1E00081D00551D003F1D00291D00120A
:101F50001C00601C004A1C00341C001D1C00071BD8
:101F600000551B003E1B00281B00121A00601A00BF
:101F7000491A00331A001D1A000619005419003EB0
:101F800019002819001118005F18004918003218AC
:101F9000001C18000617005417003D1700271700F3
:101FA0001116005F16004816003216001C160005B8
:101FB00015005315003D15002715001014005E1480
:101FC000004814003114001B1400051300531300C3
:101FD0003C13002613001012005D1200471200315E
:101FE00012001B12000411005211003C11002511B7
:101FF000000F10005D10004710003010001A100094
:10200000040F00520F003B0F00250F000F0E005C65
:102010000E00460E00300E001A0E00030D00510D8A
:10202000003B0D00240D000E0C005C0C00460C0063
:102030002F0C00190C00030B00500B003A0B00246E
:102040000B000E0A005B0A00450A002F0A00180A5E
:10205000000209005009003A09002309000D080098
:102060005B08004408002E08001808000207004F13
:1020700007003907002307000D06005A0600440632
:10208000002E06001706000105004F050039050067
:102090002205000C04005A04004304002D0400171C
:1020A00004000103004E03003803002203000B026A
:1020B000005902004302002D020016020000010038
:1020C0004E01003701002101000B000059000042C1
:1020D00000002C0000160000000011241FBECFEFEE
:1020E000D8E0DEBFCDBFF894A89584B7877F84BFC2
:1020F000E0E6F0E08081886180831082789411E0CE
:10210000A0E0B1E0E8EAF3E402C005900D92A0354A
:10211000B107D9F723E0A0E5B1E001C01D92A33AD1
:10212000B207E1F70E94FE140C94BC2180E4809376
:102130007C008FE880937A000E94CB100895EAE734
:10214000F0E08081806480830895ECE7F0E02081F6
:102150008091780090917900A0E5B1E027702C93F0
:10216000937012969C938E93119780818F5F8083DA
:1021700080818770853059F020E531E04FE050E0F4
:1021800060E070E080E093E00E94D91C08958081B7
:10219000887F8083F1CFE8E9F1E0ACE8B1E024EAA0
:1021A00031E08FEF93E0819391931D921D92E2179E
:1021B000F307C9F70895E4EAF1E080E6DF011D9234
:1021C0008A95E9F7E4E0F2E088E0DF011D928A9564
:1021D000E9F7ECE0F2E08CE0DF011D928A95E9F787
:1021E0000895CF92DF92EF92FF920F931F93CF93B8
:1021F000DF93082F192FF801C0818091530190912E
:102200005401A0915501B0915601892B8A2B8B2B3B
:1022100009F491C0409153015091540160915501CE
:1022200070915601463051056105710508F469C089
:10223000AC2FB0E0FD01EC5FFD4F9081F8012181F2
:102240003281FD01EE0FFF1FEE0FFF1FEE0FFF1F8C
:10225000E90FF11DEE0FFF1FEC55FE4F3183208378
:10226000463351056105710508F444C080E1C89FFB
:10227000F0011124EC55FE4F88E000E010E09801D9
:10228000C191D1910C0F1D1F211D311D8150C1F72E
:10229000689412F836952795179507951694D1F7F7
:1022A0006801FD01EE0FFF1FEF01C45FDD4F1983D1
:1022B0000883E457FE4F0190F081E02DE017F1070D
:1022C00038F4FD01EE0FFF1FE457FE4F118300832A
:1022D000FD01EE0FFF1FE856FE4F0190F081E02D4B
:1022E000CE16DF0638F4FD01EE0FFF1FE856FE4F55
:1022F0001183008381E0890F973001F1AC5FBD4FFE
:102300008C934F5F5F4F6F4F7F4F409353015093BC
:1023100054016093550170935601EAE7F0E0808123
:1023200080648083DF91CF911F910F91FF90EF9098
:10233000DF90CF9008950E94DB106CCFAC5FBD4F53
:102340001C92DFCF282F392F21303105E9F02230C0
:102350003105F9F0E0910C02F0910D02E35AF10918
:10236000EB3B82E0F807D0F4CF01880F991F8E0F66
:102370009F1F8453954FFC0125913491622F732F39
:102380000696FC0184910895E0919801F0919901DD
:10239000E5CFE0918C01F0918D01E0CF80E060E02D
:1023A00070E00895CF93DF9300D000D00F92CDB7A7
:1023B000DEB7282F392F1C821B821D822130310568
:1023C000C1F022303105D1F060910E0270910F0200
:1023D0006E5A7240633181E07807A8F06B817C818E
:1023E0008D810F900F900F900F900F90DF91CF91F4
:1023F000089560919A0170919B01EACF60918E01DE
:1024000070918F01E5CF660F771F60507D4E42E0DF
:1024100050E0CE0101960E94C21E69817A8143E09C
:1024200050E0CE0103960E94C21ED8CFCF93DF9317
:1024300000D000D00F92CDB7DEB7282F392F1C82E5
:102440001B821D8221303105B9F022303105C9F0DF
:102450006091100270911102CB01C39783319240B9
:10246000A8F06B817C818D810F900F900F900F9061
:102470000F90DF91CF91089560919C0170919D0123
:10248000EBCF6091900170919101E6CF660F771FBD
:102490006E5F7F4F42E050E0CE0101960E94C21E67
:1024A00069817A8143E050E0CE0103960E94C21E0A
:1024B000D8CFCF93DF930E94F813C82FD92F0E9453
:1024C000F313E091570181E08E0F80935701F0E004
:1024D000EE0FFF1FE85EFD4FD183C0838530A1F072
:1024E00080915801909159018C179D0720F4D09349
:1024F0005901C093580170E060E080E094E00E94D0
:10250000201DDF91CF91089510925701E9CFE8E1A6
:10251000F2E02081318182819381280F391F8481EB
:102520009581280F391F86819781280F391F808553
:102530009185280F391FADECBCEC0E948B1D969540
:102540008795969587950895CF93DF9300D000D017
:102550000F92CDB7DEB70E948712682F792F623BAA
:10256000710510F061EB70E0660F771F6C59774EC4
:1025700042E050E0CE0101960E94C21E69817A813C
:1025800043E050E0CE0103960E94C21E6B817C8125
:102590008D810F900F900F900F900F90DF91CF9142
:1025A0000895CF93DF9300D000D00F92CDB7DEB760
:1025B0008091580190915901823B910530F081EB57
:1025C00090E0909359018093580160915801709167
:1025D0005901660F771F6C59774E42E050E0CE01EB
:1025E00001960E94C21E69817A8143E050E0CE01CB
:1025F00003960E94C21E6B817C818D810F900F908B
:102600000F900F900F90DF91CF910895A82FB92FC1
:102610008AE0EAE5F1E001900D928A95E1F70895EC
:10262000E82FF92F8AE0AAE5B1E001900D928A9592
:10263000E1F7089580E290E00E94E6142FEF87EA28
:1026400091E6215080409040E1F700C0000080E218
:1026500090E00E94EA142FEF89E698E12150804033
:102660009040E1F700C00000E5CF80E290E00E94DA
:10267000E6142FEF83ED90E3215080409040E1F786
:1026800000C0000080E290E00E94EA142FEF82E593
:1026900097E0215080409040E1F700C00000E5CF76
:1026A00080E290E00E94E6142FEF81EE94E021504A
:1026B00080409040E1F700C0000080E290E00E947E
:1026C000EA142FEF83ED90E3215080409040E1F732
:1026D00000C00000E5CF80E290E00E94E6142FEFFA
:1026E00080E792E0215080409040E1F700C0000078
:1026F00080E290E00E94EA142FEF89E698E12150F1
:1027000080409040E1F700C00000E5CF80E290E01B
:102710000E94E6142FEF80E792E021508040904025
:10272000E1F700C0000080E290E00E94EA142FEF81
:1027300080E792E0215080409040E1F700C0000027
:10274000E5CF80E290E00E94E6142FEF81EE94E066
:10275000215080409040E1F700C0000080E290E00E
:102760000E94EA142FEF81EE94E0215080409040C7
:10277000E1F700C00000E5CF282F392FF894109220
:102780008000109281001092850010928400259A9A
:10279000223081E03807A9F048F0233081E0380783
:1027A00091F02430314089F40E946B13211581E0AF
:1027B000380729F02130314041F40E9435130E943E
:1027C0001A130E9450130E9486130E94A1138AB10B
:1027D000837F8AB98BB18C608BB9E9E6F0E08081A8
:1027E0008A608083089510926701109266010895AF
:1027F00080916601909167010895809164019091A4
:1028000065010895E09B0AC080916601909167017F
:1028100001969093670180936601E09AE19B0AC05C
:102820008091640190916501019690936501809378
:102830006401E19A089580916801882371F02D98D0
:102840001092680130E020E046EB53E060E070E079
:1028500080E091E00E94D91C08952D9A81E0809338
:10286000680130E020E042E350E060E070E080E0AA
:1028700091E00E94D91C08951895189518951895FF
:102880001895189518951895189518951F920F92E8
:102890000FB60F9211242F933F934F935F936F9333
:1028A0007F938F939F93AF93BF93EF93FF930E9478
:1028B000941BFF91EF91BF91AF919F918F917F9169
:1028C0006F915F914F913F912F910F900FBE0F909D
:1028D0001F9018951895189518951895189518958E
:1028E0001F920F920FB60F9211242F933F934F9385
:1028F0005F936F937F938F939F93AF93BF93EF9368
:10290000FF938091C6000E942119FF91EF91BF9122
:10291000AF919F918F917F916F915F914F913F9177
:102920002F910F900FBE0F901F9018951F920F922E
:102930000FB60F9211242F933F934F935F936F9392
:102940007F938F939F93AF93BF93EF93FF930E94D7
:10295000D819FF91EF91BF91AF919F918F917F9186
:102960006F915F914F913F912F910F900FBE0F90FC
:102970001F90189518951F920F920FB60F92112461
:102980002F933F934F935F936F937F938F939F9377
:10299000AF93BF93EF93FF930E94A510FF91EF9128
:1029A000BF91AF919F918F917F916F915F914F9167
:1029B0003F912F910F900FBE0F901F901895189573
:1029C000189518951895259A209A089595B1982BE1
:1029D00095B9089595B18095892385B90895F8949E
:1029E0000E94E9190E94E3140E94E8150E9435181C
:1029F0000E9496100E94E713789408950E94EF14A5
:102A000082E094E10E94641C80E290E00E94E6145F
:102A100086E090E00E94F01B65EF79E180E096E0AF
:102A20000E94691C6BE174E180E091E00E94691CE6
:102A300061EF70E180E093E00E94691C69E572E15A
:102A400080E094E00E94691C6FE575E180E095E00C
:102A50000E94691C63E076E180E092E00E94691CBC
:102A600030E020E04AEF50E060E070E080E096E087
:102A70000E94D91C30E020E048EB5BE060E070E0B1
:102A800080E091E00E94D91C30E020E048EE53E065
:102A900060E070E080E094E00E94D91C30E020E02B
:102AA00040E85EEE66E370E080E095E00E94D91CAD
:102AB0000E949F100E945D1D8FEF9FEF08950E945E
:102AC000FD1390936C0180936B0170E060E080E0F7
:102AD00095E00E94201D0895CF93DF9300D000D091
:102AE0000F92CDB7DEB780916B0190916C018F3F53
:102AF000910530F08EEF90E090936C0180936B0124
:102B000060916B0170916C01660F771F6252744E79
:102B100042E050E0CE0101960E94C21E69817A8196
:102B200043E050E0CE0103960E94C21E80916901ED
:102B300090916A0120916B0130916C01820F931F7B
:102B400090936A018093690110926C0110926B015D
:102B50006B817C818D810F900F900F900F900F9063
:102B6000DF91CF910895CF93DF9300D000D00F92E3
:102B7000CDB7DEB78091690190916A018F3F9105D1
:102B800030F08EEF90E090936A018093690160913C
:102B9000690170916A01660F771F6252744E42E0BC
:102BA00050E0CE0101960E94C21E69817A8143E005
:102BB00050E0CE0103960E94C21E6B817C818D8104
:102BC0000F900F900F900F900F90DF91CF9108957D
:102BD00010928000E1E8F0E01082109285001092DF
:102BE000840083EF91E09093890080938800808136
:102BF00088608083808182608083EFE6F0E080815E
:102C00008260808308956F927F928F929F92AF929D
:102C1000BF92CF92DF92EF92FF920F931F93CF93C9
:102C2000DF9300D000D000D0CDB7DEB78D839E8378
:102C3000ED81FE81EE5AFF4F408141110DC0ED81C3
:102C4000FE816381EFEFE60FEF3008F004C2F0E0A1
:102C5000E254FE4D0C94851DAD81BE8113966C919E
:102C600013976295607F12968C910E949418269615
:102C70000FB6F894DEBF0FBECDBFDF91CF911F918D
:102C80000F91FF90EF90DF90CF90BF90AF909F900B
:102C90008F907F906F9008950EE312E090E080E0B7
:102CA0000E941612D8016D937D938C9390E080E082
:102CB0000E94D211F80163837483858390E080E0E1
:102CC0000E94A211D80116966D937D938C93ED818D
:102CD000FE8163816295607F29E030E0A8018281F6
:102CE0000E94E218C4CF0EE312E082E090E00E945E
:102CF0001612D8016D937D938C9382E090E00E9430
:102D0000D211F80163837483858382E090E00E948E
:102D1000A211D80116966D937D938C93ED81FE815F
:102D200063816295607F29E030E0A80182810E9482
:102D3000E2189DCF0EE312E081E090E00E941612AF
:102D4000D8016D937D938C9381E090E00E94D21125
:102D5000F80163837483858381E090E00E94A2116F
:102D6000D80116966D937D938C93ED81FE816381DE
:102D70006295607F29E030E0A80182810E94E2181C
:102D800076CF0E94CB10AD81BE8113966C911397C4
:102D90006295607F30E020E050E040E012968C9138
:102DA0000E949A1864CF6DE671E081E791E00E947D
:102DB000C11BC0907101D0907201E0907301F0903E
:102DC000740180906D0190906E01A0906F01B090A1
:102DD0007001C814D904EA04FB0409F45CC0C501FD
:102DE000B4010E94731A20E030E048EC52E4698399
:102DF0007A838B839C8369817A818B819C810E94F9
:102E0000011B662E772E082F192FD701C6018819AE
:102E10009909AA09BB0989839A83AB83BC83BC0146
:102E2000CD010E94731A262F372F482F592F698200
:102E30007A820B831C8369817A818B819C810E94B9
:102E4000011A9F938F937F936F9384E191E09F93F7
:102E50008F938DE492E09F938F930E94E61E0FB6AE
:102E6000F894DEBF0FBECDBF2DE432E0F901019032
:102E70000020E9F79F012E543240AD81BE811396A8
:102E80006C9113976295607F4DE452E012968C919D
:102E90000E949A18ECCEEDE4F2E08EE49FE291837A
:102EA000808381E490E093838283DECF07E412E0A5
:102EB0000E94A412F8016083718382830E94D11260
:102EC000D80113966D937D938C93ED81FE81638180
:102ED0006295607F26E030E0A80182810E94E218BE
:102EE000C6CE08E312E00E946C15D8016D937D9365
:102EF0008C930E94B315F801638374838583AD813D
:102F0000BE8113966C9113976295607F26E030E046
:102F1000A80112968C910E94E218A9CE109211017C
:102F200030E020E050E040E060E8ED81FE81828109
:102F30000E949A189CCE0E94821D682F792F8DE4E2
:102F400092E00E94DF1E2DE432E0D9010D900020B6
:102F5000E9F79D012E543240ED81FE816381629537
:102F6000607F4DE452E082810E949A1880CE0E94D8
:102F7000E319682F792F8DE492E00E94DF1E0DE4A3
:102F800012E0F80101900020E9F7319780E29BE51B
:102F90009183808312820E94E619682F792FC801DD
:102FA0000E94D41EF80101900020E9F731978DE5C9
:102FB00090E091838083D8010D900020E9F79D0176
:102FC0002E543240ED81FE8163816295607FA801BD
:102FD00082810E949A184BCE8DE992E00E940613DE
:102FE000AD81BE8113966C9113976295607F2AE044
:102FF00030E04DE952E012968C910E94E21837CEF3
:10300000ED81FE8141814250550BBF016C5F7F4FC6
:103010008DE992E00E94CB1E8DE992E00E94101390
:10302000AD81BE8113966C9113976295607F30E0FD
:1030300020E050E040E012968C910E949A1817CE42
:1030400030E020E050E040E060EFED81FE818281E1
:103050000E949A180CCE6295607F41E0AD81BE81DE
:1030600012968C910E94941802CE1092C50080E1B5
:103070008093C400E0ECF0E08081826080838EE089
:103080008093C20088ED8093C10008958111109251
:103090007601E091760180917701E81751F081E0A7
:1030A0008E0F80937601F0E0E550FD4F808190E037
:1030B0000895E1ECF0E080818F7D80838FEF9FEFBA
:1030C0000895282F392F962F613508F090E5662353
:1030D00051F0F901ABEFB2E0290F311D81918D93D1
:1030E000E217F307D9F79093770181E00E94461821
:1030F0008093C600E1ECF0E08081806280830895D7
:10310000E9E0F1E094E09183828363834583860F55
:103110009927991F2481820F911D480F592F511D06
:1031200040954683CF0108950E94801868E00E9470
:10313000611808950F931F93CF93DF93042F152FDA
:10314000422F532FE0E5F3E09BE4DF011D929A95B7
:10315000E9F7EBE4F3E09EE79083322F93E0920FE0
:1031600091838283638396E09483860F9927991FC6
:103170000696141615061CF5F801A0E5B3E0040F39
:10318000151F21912D93EF0121972881820F911D09
:1031900027FD9A95E017F107A1F7FA01E55BFC4FCF
:1031A0008095858381E8868367E0630F8BE493E0F5
:1031B0000E946118DF91CF911F910F91089550E007
:1031C00040E0EBCFCF93DF93C42FD52F422F532F67
:1031D000E0E5F3E09BE4DF011D929A95E9F7EBE46B
:1031E000F3E09EE79083322F93E0920F91838283E6
:1031F000638396E09483860F9927991F0696141689
:103200001506E4F4FE01A0E5B3E0C40FD51F21913B
:103210002D93820F911DEC17FD07C9F7FA01E55BAD
:10322000FC4F8095858381E8868367E0630F8BE49C
:1032300093E00E946118DF91CF91089550E040E043
:10324000EDCFE0910601E150E73008F0B0C0F0E0CA
:10325000E353FE4D0C94851D8E3709F0A8C0E09114
:103260000701F0910801808382E0809306010895B0
:10327000E0910701F09108018183E0910701F0914D
:10328000080181818D3450F08CE48183E091070145
:10329000F0910801EE5AFF4F88E0808383E080932D
:1032A00006010895E0910701F09108018283E05B37
:1032B000FF4F90E09183808384E08093060108951E
:1032C000E0910701F09108018383DF01A05BBF4F0C
:1032D0002D913C911197820F932F911D8D939C936B
:1032E0008181823031F085E0809306011092750172
:1032F000089586E0809306010895A0910701B0919A
:103300000801E091750141E04E0F40937501EA0F0D
:10331000FB2FF11D8483FD01E05BFF4F2081318194
:10332000820F932F911D9183808311968C918250EF
:10333000990B48171906D9F586E08093060110927B
:10334000750108954091070150910801FA01E25B6F
:10335000FF4F8083329620813181820F932F911D00
:103360009183808399278F3F910529F04E5A5F4FB3
:1033700082E0FA01808387E0809306010895813816
:1033800039F0E0910701F0910801EE5AFF4F808378
:1033900081E08093060120910701309108014AE005
:1033A00050E060E070E080E092E00E94D91C089557
:1033B00080E00E944618282F392F2F3F320711F046
:1033C0002093C600089589E191E0089581E291E09B
:1033D0000895A89584B7877F84BFE0E6F0E08081F8
:1033E000886180838FE08083089580911101882314
:1033F00009F0A89570E060E080E096E00E94201D52
:1034000008950E94151A0C94C71A0E94C01A58F009
:103410000E94B91A40F029F45F3F29F00C94B01AC9
:1034200051110C94FB1A0C94B61A0E94D81A68F326
:103430009923B1F3552391F3951B550BBB27AA276D
:1034400062177307840738F09F5F5F4F220F331FA7
:10345000441FAA1FA9F335D00E2E3AF0E0E832D06F
:1034600091505040E695001CCAF72BD0FE2F29D072
:10347000660F771F881FBB1F261737074807AB0744
:10348000B0E809F0BB0B802DBF01FF2793585F4FB9
:103490003AF09E3F510578F00C94B01A0C94FB1A48
:1034A0005F3FE4F3983ED4F3869577956795B7959B
:1034B000F7959F5FC9F7880F911D9695879597F9A6
:1034C0000895E1E0660F771F881FBB1F621773071F
:1034D0008407BA0720F0621B730B840BBA0BEE1F34
:1034E00088F7E0950895E89409C097FB3EF490951D
:1034F0008095709561957F4F8F4F9F4F9923A9F0CD
:10350000F92F96E9BB279395F6958795779567955B
:10351000B795F111F8CFFAF4BB0F11F460FF1BC09F
:103520006F5F7F4F8F4F9F4F16C0882311F096E932
:1035300011C0772321F09EE8872F762F05C06623E0
:1035400071F096E8862F70E060E02AF09A95660F99
:10355000771F881FDAF7880F9695879597F9089552
:1035600097F99F6780E870E060E008959FEF80EC36
:10357000089500240A9416161706180609060895D9
:1035800000240A9412161306140605060895092E3F
:103590000394000C11F4882352F0BB0F40F4BF2BAE
:1035A00011F460FF04C06F5F7F4F8F4F9F4F0895EE
:1035B00057FD9058440F551F59F05F3F71F04795E4
:1035C000880F97FB991F61F09F3F79F087950895C9
:1035D000121613061406551FF2CF4695F1DF08C0E8
:1035E000161617061806991FF1CF86957105610505
:1035F00008940895E894BB2766277727CB0197F9AD
:1036000008950E94141B0C94C71A0E94B91A38F02E
:103610000E94C01A20F0952311F00C94B01A0C945B
:10362000B61A11240C94FB1A0E94D81A70F3959FB5
:10363000C1F3950F50E0551F629FF001729FBB27A9
:10364000F00DB11D639FAA27F00DB11DAA1F649F45
:103650006627B00DA11D661F829F2227B00DA11DF8
:10366000621F739FB00DA11D621F839FA00D611D7E
:10367000221F749F3327A00D611D231F849F600D9F
:10368000211D822F762F6A2F11249F5750409AF0C8
:10369000F1F088234AF0EE0FFF1FBB1F661F771F54
:1036A000881F91505040A9F79E3F510580F00C941F
:1036B000B01A0C94FB1A5F3FE4F3983ED4F386955E
:1036C00077956795B795F795E7959F5FC1F7FE2BBF
:1036D000880F911D9695879597F908950895682FFD
:1036E000792FA0919D03B0919E031A161B06A4F496
:1036F000E0919B03F0919C0330E020E08E2F9F2F00
:10370000408151814617570749F02F5F3F4F789608
:103710002A173B0799F7089580E090E0089584E028
:1037200091E00E94BC1308958091800190918101E5
:103730000196909381018093800180918001909106
:103740008101049731F0E0911201F0911301099584
:1037500008958091820190918301A0918401B0919C
:1037600085010196A11DB11D809382019093830173
:10377000A0938401B0938501109281011092800181
:10378000E2CF0F931F93009178011091790120915E
:103790007A0130917B01FC01008311832283338302
:1037A00080917C0190917D01A0917E01B0917F017B
:1037B000FB0180839183A283B38310927C011092DA
:1037C0007D0110927E0110927F011092780110927B
:1037D000790110927A0110927B011F910F91089547
:1037E000282F392F121613065CF4213131050CF401
:1037F00061C080E190E090939E0380939D0306C09A
:1038000080E190E090939E0380939D0320919D031F
:1038100030919E03C901880F991F820F931F880F53
:10382000991F880F991F880F991F0E949A1D282F92
:10383000392F30939C0320939B03232B09F43FC023
:1038400010928B0110928A0180919D0390919E03AA
:103850001816190674F530E020E090E080E06FE87B
:103860007BE1E0919B03F0919C03E20FF31F118237
:103870001082128213821482158216821782108699
:103880001186128613861486158616861786118A67
:10389000108A738B628B158A148A178A168A01968E
:1038A000285E3F4F40919D0350919E0384179507DA
:1038B000C4F2089530939E0320939D03A7CF81E027
:1038C00091E00E94BC13BCCF90931301809312012E
:1038D0000895CF93DF93C0919D03D0919E031C1652
:1038E0001D0684F4E0919B03F0919C0330E020E0FE
:1038F000DF0147854423C9F02F5F3F4F78962C178F
:103900003D07B1F780E091E00E94BC1320918A014D
:1039100030918B0180919D0390919E0382179307B4
:103920000CF442C0DF91CF9108958083918381E0B0
:103930008787628B738B80918A0190918B010196AE
:1039400090938B0180938A01E0918601F091870129
:10395000309799F05796FC93EE9356978091880193
:103960009091890155969C938E935497B58BA48B17
:10397000B0938701A0938601C9CFB0938701A0932C
:103980008601B0938901A09388010A2E1B2E5596BB
:103990001C920E92112454970A2E1B2E57961C929D
:1039A0000E9211245697B2CF81E091E00E94BC1391
:1039B000B9CFCF92DF92EF92FF92CF93DF93C42ED5
:1039C000D52EE62EF72ED22FC32F0E946F1BE82F85
:1039D000F92F309749F18091820190918301A09154
:1039E0008401B091850182839383A483B583C286C9
:1039F000D386E486F586AC01BD014095509560956F
:103A000070954C155D056E057F05A8F4D701C601BC
:103A1000841B950BA60BB70B86839783A087B18772
:103A200081E08687D08BC18BDF91CF91FF90EF90A3
:103A3000DF90CF9008958C0D9D1DAE1DBF1DECCF66
:103A40000F931F93CF93DF93D62FC72F0E946F1B27
:103A5000E82FF92F309739F140918201509183017D
:103A600060918401709185014283538364837583DF
:103A700082859385A485B5858A019B010095109563
:103A800020953095081719072A073B0788F4801BF3
:103A9000910BA20BB30B86839783A087B18781E03C
:103AA0008687D08BC18BDF91CF911F910F910895A5
:103AB000840F951FA61FB71FEECFC0918801D0912C
:103AC00089012097F1F303C00C88DD89C02D8E8514
:103AD0008823D1F38091820190918301A091840188
:103AE000B09185014E815F8168857985841795073E
:103AF000A607B70748F31E86EA89FB898889998952
:103B00000995E2CF85E391E00895EE0FFF1F059040
:103B1000F491E02D0994A29FB001B39FC001A39F2F
:103B2000700D811D1124911DB29F700D811D1124F6
:103B3000911D08950F931F93CF93DF939C010297DC
:103B400010F422E030E0E091A103F091A20390E0B4
:103B500080E0B0E0A0E0309791F4009709F445C010
:103B6000821B930B84309105B8F58A819B81611586
:103B7000710569F1FB0193838283FE0111C04081CD
:103B800051810281138142175307F0F04217530706
:103B900099F4109761F012960C93129713961C9358
:103BA0003296CF01DF91CF911F910F91089500932D
:103BB000A1031093A203F4CF009719F048175907F7
:103BC00018F4CA01BD01EF01DF01F801C4CF9093E1
:103BD000A2038093A103D1CFFE01E80FF91F219327
:103BE0003193029799838883DCCF80919F039091D2
:103BF000A003892B41F480910201909103019093DD
:103C0000A00380939F038091000190910101009790
:103C100041F48DB79EB74091040150910501841B7A
:103C2000950B40919F035091A0034817590708F046
:103C3000B8CF841B950B8217930708F4B2CFB90154
:103C40006E5F7F4F8617970708F4ABCF640F751F21
:103C50007093A00360939F03FA0121933193A1CF46
:103C6000CF93DF939C010097E9F0FC013297138218
:103C70001282C091A103D091A203DE0190E080E006
:103C80002097A1F480819181280F391F80919F0393
:103C90009091A0038217930709F067C0F093A003E7
:103CA000E0939F03DF91CF910895DA01AE17BF072C
:103CB00008F041C012964D915C911397CD014115CA
:103CC000510599F7DC011396FC93EE9312974D91F1
:103CD0005D91A40FB51FEA17FB0781F420813181A4
:103CE0002E5F3F4F240F351FDC0111963C932E931E
:103CF0002281338113963C932E931297B0E0A0E07B
:103D00008A819B810097B1F5FE0181919191E80F25
:103D1000F91F80919F039091A0038E179F0711F6C2
:103D2000109759F51092A2031092A103D093A0030B
:103D3000C0939F03B7CFB383A28340815181240FE7
:103D4000351FA217B30771F44E5F5F4F2D913C9161
:103D50001197420F531F5183408312962D913C912E
:103D600033832283009709F0ADCFF093A203E09351
:103D7000A10398CFDE01EC01C3CF13961C921E92D3
:103D80001297D4CFFB01DC0102C005900D92415087
:103D90005040D8F70895FB01DC0102C001900D925C
:103DA00041505040D8F70895FB01DC010D900020F0
:103DB000E9F7119701900D920020E1F70895FB01BA
:103DC000DC0101900D920020E1F70895AEE0B0E033
:103DD000ECEEFEE10C9493210D891E8986E08C8324
:103DE0001A8309838FEF9FE79E838D83AE01475E21
:103DF0005F4F6F89788DCE0101960E94091F2F8138
:103E00003885020F131FF80110822E96E4E00C94FF
:103E1000AF21AFE0B0E0EFE0FFE10C9485217C0141
:103E20003B018A01DC0117961C921E92169713968D
:103E30008C9181FFC3C19AE0292EFE0131964F017A
:103E4000D70113969C91F30193FD859193FF819186
:103E50003F01882309F448C1853239F493FD8591E7
:103E600093FF81913F01853229F4B70190E00E94D0
:103E7000F720E6CFB12C412C512CBFE1B51538F01D
:103E80008B3209F188F4803201F1833221F157FC41
:103E90003AC020ED280F2A3040F556FE1FC0B29CD4
:103EA000200D1124B22E06C08D3291F0803379F7A7
:103EB000689450F8F30193FD859193FF81913F0140
:103EC0008111DBCF20C0689451F8689452F8F2CF8A
:103ED000689453F8EFCF689454F8ECCF429C200DCF
:103EE0001124422E689455F8E5CF8E3229F456FC01
:103EF000FBC0689456F8DECF8C3619F4689457F8F6
:103F0000D9CF8836B9F2982F9F7D95549330C0F061
:103F10008336A1F18337C1F1833509F05BC0D80145
:103F2000CD90DD908D016B2D70E056FC02C06FEFDF
:103F30007FEFC6010E94E1205C01689457F80AC037
:103F40000C5F1F4FEFE3E983AA24A394B12C640113
:103F5000E89457F853FC04C04A141B0409F018F500
:103F6000342CA114B10431F5332009F469CFB70121
:103F700080E290E00E94F7203A94F6CFD8018C912D
:103F800089830E5F1F4FE0CFF801C190D1908F0160
:103F90006B2D70E056FC02C06FEF7FEFC6010E94F0
:103FA000EC205C01D5CFB70180E290E00E94F720C1
:103FB0004A94D2CFF60157FC859157FE81916F014B
:103FC000B70190E00E94F72031103A94B1E0AB1AAB
:103FD000B108C7CF843619F0893609F074C0F801EA
:103FE00057FE6AC061917191819191918F01E52D88
:103FF000EF76DE2E97FF09C09095809570956195BC
:104000007F4F8F4F9F4F6894D7F82AE030E0A4018C
:104010000E942721C82EC818AC2C5D2CD6FE0CC0DF
:10402000E89450F8CB1440F4D4FE05C0D2FC03C091
:104030005D2D5E7E552EAB2C54FE98C0FE01EC0D1E
:10404000F11D8081803309F08AC0652D697E562E6E
:10405000752D7870372E53FC98C050FE92C0BC2C42
:10406000A41418F44C0CB42CBA1854FE94C0B70124
:1040700080E390E00E94F72052FE09C088E790E0BC
:1040800051FE02C088E590E0B7010E94F720CB14F2
:1040900008F48DC0CA94D12C8FEFC81AD80AC80C66
:1040A000D91CD6018E916D01B70190E00E94F720D6
:1040B0008C149D04B1F758CF61917191072E000CBB
:1040C000880B990B93CFD52CE894D4F82AE030E0F4
:1040D000853739F1F52DF97FDF2E8037A9F058F4B7
:1040E0008835A9F08F36D9F0F701868197812F9610
:1040F000E2E10C94A1218837B9F7D4FE02C068949C
:10410000D2F820E130E00DC06894D4F8F6CF54FE28
:1041100003C02F2F2660D22E20E132E002C028E01B
:1041200030E0F801D7FE15C0419151916191719134
:104130004C875D876E877F878F01A4016C857D85A5
:104140008E859F850E942721C82EC818E894D7F82D
:1041500063CF81919191AC0170E060E0E9CF52FCB6
:1041600002C0A39475CFA394A39472CF852D8678B3
:1041700009F46ECFF6CFB70180E290E00E94F720FD
:10418000A394A414C0F3312C70CF342C3A18A41487
:1041900008F46BCFF8CF852D867809F478CF8BE2C1
:1041A00051FE80E257FC8DE2B70190E06ECFB7017F
:1041B00080E390E00E94F720BA9469CF8FEF9FEFE1
:1041C00096CFFC010590615070400110D8F78095A2
:1041D00090958E0F9F1F0895FC01615070400190D3
:1041E0000110D8F7809590958E0F9F1F08950F931B
:1041F0001F93CF93DF93182F092FEB018B8181FD44
:1042000009C01FEF0FEF812F902FDF91CF911F91EA
:104210000F91089582FF14C02E813F818C819D8172
:10422000281739073CF4E881F981CF010196998379
:10423000888310838E819F8101969F838E83E3CF35
:10424000E885F985812F0995892BA1F3DACFFA0149
:10425000AA27283051F1203181F1E8946F936E7FC5
:104260006E5F7F4F8F4F9F4FAF4FB1E03ED0B4E0B6
:104270003CD0670F781F891F9A1FA11D680F791FF7
:104280008A1F911DA11D6A0F711D811D911DA11D08
:1042900020D009F468943F912AE0269F1124301918
:1042A000305D3193DEF6CF010895462F4770405DB3
:1042B0004193B3E00FD0C9F7F6CF462F4F70405D62
:1042C0004A3318F0495D31FD4052419302D0A9F7BD
:1042D000EACFB4E0A6959795879577956795BA95B7
:1042E000C9F700976105710508959B01AC010A2E7D
:1042F00006945795479537952795BA95C9F7620F54
:10430000731F841F951FA01D08952F923F924F92F7
:104310005F926F927F928F929F92AF92BF92CF9255
:10432000DF92EF92FF920F931F93CF93DF93CDB75E
:10433000DEB7CA1BDB0B0FB6F894DEBF0FBECDBFD6
:1043400009942A88398848885F846E847D848C84A7
:104350009B84AA84B984C884DF80EE80FD800C81B0
:104360001B81AA81B981CE0FD11D0FB6F894DEBF93
:104370000FBECDBFED010895F894FFCF4C16731614
:104380009A16C11656177117D3168E179B17B717A3
:10439000EC1700182B182B1820182C193819521943
:0843A00060197D19A219BF1973
:1043A8000000A303200001A7027E00000015000002
:1043B80081016E1B252E336600312E332E303031AD
:1043C80000323031392D30392D32352030373A34FA
:1043D800343A303300312E322E30312032303139F8
:1043E8002D30372D33302031373A33373A323000D9
:00000001FF
