:100000000C94B9170C943C1A0C943D1A0C943E1A9B
:100010000C943F1A0C94401A0C94411A0C94421AF6
:100020000C94431A0C94441A0C94451A0C94461AD6
:100030000C946A1A0C946B1A0C946C1A0C946D1A2A
:100040000C946E1A0C946F1A0C94701A0C94961AE5
:100050000C94BA1A0C94BB1A0C94DF1A0C94E01A84
:100060000C94E11A0C94E21A8D1186117F1178110B
:1000700071116A1163115C1155114E114711401134
:10008000391132112B1124111D1116110F110811E4
:100090000111FA10F310EC10E510DE10D710D0109B
:1000A000C910C210BB10B410AD10A6109F1098104C
:1000B00091108A1083107C1075106E1067106010FC
:1000C000591052104B1044103D1036102F102810AC
:1000D00021101A1013100C100510FE0FF70FF00F5F
:1000E000E90FE20FDB0FD40FCD0FC60FBF0FB80F14
:1000F000B10FAA0FA30F9C0F950F8E0F870F800FC4
:10010000790F720F6B0F640F5D0F560F4F0F480F73
:10011000410F3A0F330F2C0F250F1E0F170F100F23
:10012000090F020FFB0EF40EED0EE60EDF0ED80ED9
:10013000D10ECA0EC30EBC0EB50EAE0EA70EA00E8B
:10014000990E920E8B0E840E7D0E760E6F0E680E3B
:10015000610E5A0E530E4C0E450E3E0E370E300EEB
:10016000290E220E1B0E140E0D0E060EFF0DF80D9D
:10017000F10DEA0DE30DDC0DD50DCE0DC70DC00D53
:10018000B90DB20DAB0DA40D9D0D960D8F0D880D03
:10019000810D7A0D730D6C0D650D5E0D570D500DB3
:1001A000490D420D3B0D340D2D0D260D1F0D180D63
:1001B000110D0A0D030DFC0CF50CEE0CE70CE00C18
:1001C000D90CD20CCB0CC40CBD0CB60CAF0CA80CCB
:1001D000A10C9A0C930C8C0C850C7E0C780C720C78
:1001E0006C0C660C600C5A0C540C4E0C480C420CF7
:1001F0003C0C360C300C2A0C240C1E0C180C120C67
:100200000C0C060C000CFA0BF40BEE0BE80BE20BDB
:10021000DC0BD60BD00BCA0BC40BBE0BB80BB20B4E
:10022000AC0BA60BA00B9A0B940B8E0B880B820BBE
:100230007C0B760B700B6A0B650B600B5B0B560B24
:10024000510B4C0B470B420B3D0B380B330B2E0B5A
:10025000290B240B1F0B1A0B150B100B0B0B060B8A
:10026000010BFC0AF70AF20AED0AE80AE30ADE0AC1
:10027000D90AD40ACF0ACA0AC50AC00ABB0AB60AF2
:10028000B10AAC0AA70AA20A9D0A980A930A8E0A22
:10029000890A840A7E0A780A720A6C0A660A600A67
:1002A0005A0A540A4E0A480A420A3C0A360A300AD6
:1002B0002A0A240A1E0A180A120A0C0A060A000A46
:1002C000FA09F409EE09E809E209DC09D609D009BE
:1002D000CA09C409BE09B809B209AC09A609A0092E
:1002E0009A0994098E09880982097C09760970099E
:1002F0006A0964095E09580952094C09460940090E
:100300003A0934092E09280922091C09160910097D
:100310000A090409FE08F808F208EC08E608E008F3
:10032000DA08D408CE08C808C208BC08B608B00865
:10033000AA08A4089E08980892088C0886088008D5
:100340007A0874086E08680862085C085608500845
:100350004A0844083E08380832082C0826082008B5
:100360001A0814080E0808080208FC07F607F00728
:10037000EA07E407DE07D807D207CC07C607C0079D
:10038000BA07B407AE07A807A2079C07960790070D
:100390008A0784077E07780772076C07660760077D
:1003A0005A0754074E07480742073C0736073007ED
:1003B0002A0724071E07180712070C07060700075D
:1003C000FA06F406EE06E806E206DC06D606D006D5
:1003D000CA06C406BE06B806B206AC06A606A00645
:1003E0009A0694068E06880682067C0676067006B5
:1003F0006A0664065E06580652064C064606400625
:100400003A0634062E06280622061C061606100694
:100410000A060406FE05F805F205EC05E605E0050A
:10042000DA05D405CE05C805C205BC05B605B0057C
:10043000AA05A4059E05980592058C0586058005EC
:100440007A0574056E05680562055C05560550055C
:100450004A0544053E05380532052C0526052005CC
:100460001A0514050E0508050205FC04F604F0043F
:10047000EA04E404DE04D804D204CC04C604C004B4
:10048000BA04B404AE04A804A2049C049604900424
:1004900036352E31300036342E38380036342E368C
:1004A000360036342E34350036342E3233003634AE
:1004B0002E30310036332E37390036332E353800A2
:1004C00036332E33360036332E31340036322E3961
:1004D000320036322E37310036322E343900363281
:1004E0002E32370036322E30360036312E38340078
:1004F00036312E36320036312E34300036312E3140
:10050000390036302E39370036302E373500363048
:100510002E35340036302E33320036302E31300056
:1005200035392E38380035392E36370035392E34E6
:10053000350035392E32330035392E30310035381B
:100540002E38300035382E35380035382E33360009
:1005500035382E31350035372E39330035372E37C3
:10056000310035372E34390035372E3238003537E3
:100570002E30360035362E38340035362E363300E0
:1005800035362E34310035362E31390035352E3999
:10059000370035352E37360035352E3534003535B4
:1005A0002E33320035352E31300035342E383900B7
:1005B00035342E36370035342E34350035342E326E
:1005C000340035342E30320035332E383000353398
:1005D0002E35380035332E33370035332E31350084
:1005E00035322E39330035322E37320035322E3542
:1005F000300035322E32380035322E30360035316B
:100600002E38350035312E36330035312E34310059
:1006100035312E31390035302E39380035302E370E
:10062000360035302E35340035302E33330035303A
:100630002E31310034392E38390034392E36370016
:1006400034392E34360034392E32340034392E30D9
:10065000320034382E38310034382E3539003438F1
:100660002E33370034382E31350034372E393400EC
:1006700034372E37320034372E35300034372E32AF
:10068000380034372E30370034362E3835003436C3
:100690002E36330034362E34320034362E323000CB
:1006A00034352E39380034352E37360034352E3572
:1006B000350034352E33330034352E3131003434A7
:1006C0002E39300034342E36380034342E3436008F
:1006D00034342E32340034342E30330034332E3858
:1006E000310034332E35390034332E333700343370
:1006F0002E31360034322E39340034322E37320067
:1007000034322E35310034322E32390034322E302C
:10071000370034312E38350034312E363400343140
:100720002E34320034312E32300034302E3939003C
:1007300034302E37370034302E35350034302E33F8
:10074000330034302E31320033392E393000333912
:100750002E36380033392E34360033392E323500F8
:1007600033392E30330033382E38310033382E36BB
:10077000300033382E33380033382E3136003337DB
:100780002E39340033372E37330033372E353100CE
:1007900033372E32390033372E30380033362E3887
:1007A000360033362E36340033362E3432003336AC
:1007B0002E32310033352E39390033352E3737009C
:1007C00033352E35350033352E33340033352E3165
:1007D000320033342E39300033342E36390033347E
:1007E0002E34370033342E32350033342E3033007C
:1007F00033332E38320033332E36300033332E333A
:10080000380033332E31360033322E39350033324F
:100810002E37330033322E35310033322E33300051
:1008200033322E30380033312E38360033312E3605
:10083000340033312E34330033312E323100333033
:100840002E39390033302E37380033302E3536000C
:1008500033302E33340033302E31320032392E39DA
:10086000310032392E36390032392E3437003239E0
:100870002E32350032392E30340032382E383200E4
:1008800032382E36300032382E33390032382E319D
:10089000370032372E39350032372E3733003237B2
:1008A0002E35320032372E33300032372E303800BA
:1008B00032362E38370032362E36350032362E3468
:1008C000330032362E32310032362E30300032359F
:1008D0002E37380032352E35360032352E3334007F
:1008E00032352E31330032342E39310032342E3647
:1008F000390032342E34380032342E32360032345D
:100900002E30340032332E38320032332E3631005E
:1009100032332E33390032332E31370032322E3912
:10092000360032322E37340032322E353200323237
:100930002E33300032322E30390032312E3837002B
:1009400032312E36350032312E34330032312E32F0
:10095000320032312E30300032302E373800323013
:100960002E35370032302E33350032302E31330001
:1009700031392E39310031392E37300031392E34AA
:10098000380031392E32360031392E3035003138C9
:100990002E38330031382E36310031382E333900BD
:1009A00031382E31380031372E39360031372E3775
:1009B000340031372E35320031372E3331003137A4
:1009C0002E30390031362E38370031362E3636008B
:1009D00031362E34340031362E32320031362E305C
:1009E000300031352E37390031352E35370031356D
:1009F0002E33350031352E31340031342E3932006A
:100A000031342E37300031342E34380031342E3228
:100A1000370031342E30350031332E383300313346
:100A20002E36310031332E34300031332E31380040
:100A300031322E39360031322E37350031322E35F3
:100A4000330031322E33310031322E303900313122
:100A50002E38380031312E36360031312E34340004
:100A600031312E32330031312E30310031302E37DA
:100A7000390031302E35370031302E3336003130E9
:100A80002E313400392E393200392E373000392ECC
:100A9000343900392E323700392E303500382E38AF
:100AA0003400382E363200382E343000382E3138AB
:100AB00000372E393700372E373500372E353300C3
:100AC000372E333200372E313000362E383800368C
:100AD0002E363600362E343500362E323300362E82
:100AE000303100352E373900352E353800352E336C
:100AF0003600352E313400342E393300342E373160
:100B000000342E343900342E323700342E30360083
:100B1000332E383400332E363200332E3431003346
:100B20002E313900322E393700322E373500322E31
:100B3000353400322E333200322E313000312E382F
:100B40003800312E363700312E343500312E323315
:100B500000312E303200302E383000302E35380043
:100B6000302E333600302E3135002D302E30370008
:100B70002D302E3239002D302E3531002D302E37CC
:100B800032002D302E3934002D312E3136002D31EA
:100B90002E3337002D312E3539002D312E383100CE
:100BA0002D322E3033002D322E3234002D322E34A1
:100BB00036002D322E3638002D322E3839002D33A6
:100BC0002E3131002D332E3333002D332E353500A9
:100BD0002D332E3736002D332E3938002D342E325A
:100BE00030002D342E3432002D342E3633002D3487
:100BF0002E3835002D352E3037002D352E32380069
:100C00002D352E3530002D352E3732002D352E392D
:100C100034002D362E3135002D362E3337002D364B
:100C20002E3539002D362E3830002D372E3032003B
:100C30002D372E3234002D372E3436002D372E36F8
:100C400037002D372E3839002D382E3131002D3810
:100C50002E3333002D382E3534002D382E37360004
:100C60002D382E3938002D392E3139002D392E34BA
:100C700031002D392E3633002D392E3835002D31E7
:100C8000302E3036002D31302E3238002D31302EBE
:100C90003530002D31302E3731002D31302E3933A3
:100CA000002D31312E3135002D31312E3337002DCD
:100CB00031312E3538002D31312E3830002D313282
:100CC0002E3032002D31322E3234002D31322E347E
:100CD00035002D31322E3637002D31322E38390085
:100CE0002D31332E3130002D31332E3332002D3162
:100CF000332E3534002D31332E3736002D31332E3F
:100D00003937002D31342E3139002D31342E343124
:100D1000002D31342E3632002D31342E3834002D52
:100D200031352E3036002D31352E3238002D31350B
:100D30002E3439002D31352E3731002D31352E39F5
:100D400033002D31362E3135002D31362E3336001D
:100D50002D31362E3538002D31362E3830002D31DC
:100D6000372E3031002D31372E3233002D31372ED2
:100D70003435002D31372E3637002D31372E3838A7
:100D8000002D31382E3130002D31382E3332002DE8
:100D900031382E3533002D31382E3735002D31388E
:100DA0002E3937002D31392E3139002D31392E347D
:100DB00030002D31392E3632002D31392E383400A5
:100DC0002D32302E3036002D32302E3237002D327B
:100DD000302E3439002D32302E3731002D32302E66
:100DE0003932002D32312E3134002D32312E33364E
:100DF000002D32312E3538002D32312E3739002D6D
:100E000032322E3031002D32322E3233002D32323A
:100E10002E3434002D32322E3636002D32322E381A
:100E200038002D32332E3130002D32332E33310045
:100E30002D32332E3533002D32332E3735002D32FF
:100E4000332E3937002D32342E3138002D32342EE6
:100E50003430002D32342E3632002D32342E3833D9
:100E6000002D32352E3035002D32352E3237002D03
:100E700032352E3439002D32352E3730002D3235B3
:100E80002E3932002D32362E3134002D32362E33AB
:100E900035002D32362E3537002D32362E373900BB
:100EA0002D32372E3031002D32372E3232002D3296
:100EB000372E3434002D32372E3636002D32372E71
:100EC0003838002D32382E3039002D32382E33315B
:100ED000002D32382E3533002D32382E3734002D88
:100EE00032382E3936002D32392E3138002D323934
:100EF0002E3430002D32392E3631002D32392E3835
:100F000033002D33302E3035002D33302E32370064
:100F10002D33302E3438002D33302E3730002D3322
:100F2000302E3932002D33312E3133002D33312E16
:100F30003335002D33312E3537002D33312E3739EF
:100F4000002D33322E3030002D33322E3232002D30
:100F500033322E3434002D33322E3635002D3332D9
:100F60002E3837002D33332E3039002D33332E33C6
:100F700031002D33332E3532002D33332E373400EC
:100F80002D33332E3936002D33342E3138002D33A6
:100F9000342E3339002D33342E3631002D33342E98
:100FA0003833002D33352E3034002D33352E323684
:100FB000002D33352E3438002D33352E3730002DAB
:100FC00033352E3931002D33362E3133002D333663
:100FD0002E3335002D33362E3536002D33362E3751
:100FE00038002D33372E3030002D33372E3232007B
:100FF0002D33372E3433002D33372E3635002D3335
:10100000372E3837002D33382E3039002D33382E17
:101010003330002D33382E3532002D33382E37340F
:10102000002D33382E3935002D33392E3137002D30
:1010300033392E3339002D33392E3631002D3339E3
:101040002E3832002D34302E3034002D34302E32F4
:1010500036002D34302E3437002D34302E36390002
:101060002D34302E3931002D34312E3133002D34D2
:10107000312E3334002D34312E3536002D34312EBF
:101080003738002D34322E3030002D34322E3231AC
:10109000002D34322E3433002D34322E3635002DCF
:1010A00034322E3836002D34332E3038002D343380
:1010B0002E3330002D34332E3532002D34332E377D
:1010C00033002D34332E3935002D34342E31370092
:1010D0002D34342E3338002D34342E3630002D3458
:1010E000342E3832002D34352E3034002D34352E48
:1010F0003235002D34352E3437002D34352E363927
:10110000002D34352E3931002D34362E3132002D5C
:1011100034362E3334002D34362E3536002D343609
:101120002E3737002D34362E3939002D34372E32F4
:1011300031002D34372E3433002D34372E36340021
:101140002D34372E3836002D34382E3038002D34DB
:10115000382E3239002D34382E3531002D34382ECA
:101160003733002D34382E3935002D34392E3136B1
:10117000002D34392E3338002D34392E3630002DE1
:1011800034392E3832002D35302E3033002D3530A5
:101190002E3235002F252A25252520251B2516250D
:1011A00011250C2507250225FD24F824F324EE241F
:1011B000E924E424DF24DA24D524D024CB24C62453
:1011C000C124BC24B724B224AD24A824A3249E2483
:1011D000992494248F248A24852480247B247624B3
:1011E00071246C24672462245D24582453244E24E3
:1011F000492444243F243A24352430242B24262413
:1012000021241C24172412240D2408240324FE2343
:10121000F923F423EF23E923E323DD23D723D12389
:10122000CB23C523BF23B923B323AD23A723A123F6
:101230009B2395238F23892383237D237723712366
:101240006B2365235F23592353234D2347234123D6
:101250003B2335232F23292323231D231723112346
:101260000B230523FF22F922F322ED22E722E122BC
:10127000DB22D522CF22C922C322BD22B722B1222E
:10128000AB22A5229F22992293228D22872281229E
:101290007B2275226F22692263225D22572251220E
:1012A0004B2245223F22392233222D22272221227E
:1012B0001B2215220F2209220322FD21F721F121F1
:1012C000EB21E521DF21D921D321CD21C721C12166
:1012D000BB21B521AF21A921A3219D2197219121D6
:1012E0008B2185217F21792173216D216721612146
:1012F0005B2155214F21492143213D2137213121B6
:101300002B2125211F21192113210D210721012125
:10131000FB20F520EF20E920E320DD20D720D1209D
:10132000CB20C520BF20B920B320AD20A720A1200D
:101330009B2095208F20892083207D20772071207D
:101340006B2065205F20592053204D2047204120ED
:101350003B2035202F20292023201D20172011205D
:101360000B200520FF1FF91FF31FED1FE71FE11FD3
:10137000DB1FD51FCF1FC91FC31FBD1FB71FB11F45
:10138000AB1FA51F9F1F991F931F8D1F871F811FB5
:101390007B1F751F6F1F691F631F5D1F571F511F25
:1013A0004B1F451F3F1F391F331F2D1F271F211F95
:1013B0001B1F151F0F1F091F031FFD1EF71EF11E08
:1013C000EB1EE51EDF1ED91ED31ECD1EC71EC11E7D
:1013D000BB1EB51EAF1EA91EA31E9D1E971E911EED
:1013E0008B1E851E7F1E791E731E6D1E671E611E5D
:1013F0005B1E551E4F1E491E431E3D1E371E311ECD
:101400002B1E251E1F1E191E131E0D1E071E011E3C
:10141000FB1DF51DEF1DE91DE31DDD1DD71DD11DB4
:10142000CB1DC51DBF1DB91DB31DAD1DA71DA11D24
:101430009B1D951D8F1D891D831D7D1D771D711D94
:101440006B1D651D5F1D591D531D4D1D471D411D04
:101450003B1D351D2F1D291D231D1D1D171D111D74
:101460000B1D051DFF1CF91CF31CED1CE71CE11CEA
:10147000DB1CD51CCF1CC91CC31CBD1CB71CB11C5C
:10148000AB1CA51C9F1C991C931C8D1C871C811CCC
:101490007B1C751C6F1C691C631C5D1C571C511C3C
:1014A0004B1C451C3F1C391C331C2D1C271C211CAC
:1014B0001B1C151C0F1C091C031CFD1BF71BF11B1F
:1014C000EB1BE51BDF1BD91BD31BCD1BC71BC11B94
:1014D000BB1BB51BAF1BA91BA31B9D1B971B911B04
:1014E0008B1B851B7F1B791B731B6D1B671B611B74
:1014F0005B1B551B4F1B491B431B3D1B371B311BE4
:101500002B1B251B1F1B191B131B0D1B071B011B53
:10151000FB1AF51AEF1AE91AE31ADD1AD71AD11ACB
:10152000CB1AC51ABF1AB91AB31AAD1AA71AA11A3B
:101530009B1A951A8F1A891A831A7D1A771A711AAB
:101540006B1A651A5F1A591A531A4D1A471A411A1B
:101550003B1A351A2F1A291A231A1D1A171A111A8B
:101560000B1A051AFF19F919F319ED19E719E11901
:10157000DB19D519CF19C919C319BD19B719B11973
:10158000AB19A5199F19991993198D1987198119E3
:101590007B1975196F19691963195D195719511953
:1015A0004B1945193F19391933192D1927192119C3
:1015B0001B1915190F1909190319FD18F718F11836
:1015C000EB18E518DF18D918D318CD18C718C118AB
:1015D000BB18B518AF18A918A3189D18971891181B
:1015E0008B1885187F18791873186D18671861188B
:1015F0005B1855184F18491843183D1837183118FB
:101600002B1825181F18191813180D18071801186A
:10161000FB17F517EF17E917E317DD17D717D117E2
:10162000CB17C517BF17B917B317AD17A717A11752
:101630009B1795178F17891783177D1777177117C2
:101640006B1765175F17591753174D174717411732
:101650003B1735172F17291723171D1717171117A2
:101660000B170517FF16F916F316ED16E716E11618
:10167000DB16D516CF16C916C316BD16B716B1168A
:10168000AB16A5169F16991693168C163130302E70
:1016900030300039392E38350039392E3639003995
:1016A000392E35340039392E33380039392E32325B
:1016B0000039392E30360039382E39310039382E7C
:1016C00037350039382E35390039382E3433003962
:1016D000382E32380039382E31320039372E39362B
:1016E0000039372E38300039372E36340039372E4E
:1016F00034390039372E33330039372E313700393A
:10170000372E30310039362E38360039362E373004
:101710000039362E35340039362E33380039362E1E
:1017200032330039362E30370039352E3931003911
:10173000352E37350039352E35390039352E3434CC
:101740000039352E32380039352E31320039342EF9
:1017500039360039342E38310039342E36350039D7
:10176000342E34390039342E33330039342E3138A5
:101770000039342E30320039332E38360039332ECA
:1017800037300039332E35350039332E33390039AF
:10179000332E32330039332E30370039322E39317F
:1017A0000039322E37360039322E36300039322E9B
:1017B00034340039322E32380039322E3133003988
:1017C000312E39370039312E38310039312E363546
:1017D0000039312E35300039312E33340039312E75
:1017E00031380039312E30320039302E3836003958
:1017F000302E37310039302E35350039302E33391F
:101800000039302E32330039302E30380038392E3E
:1018100039320038392E37360038392E3630003814
:10182000392E34350038392E32390038392E3133DB
:101830000038382E39370038382E38320038382EF4
:1018400036360038382E35300038382E33340038EC
:10185000382E31380038382E30330038372E3837AC
:101860000038372E37310038372E35350038372ECF
:1018700034300038372E32340038372E30380038C4
:10188000362E39320038362E37370038362E36317C
:101890000038362E34350038362E32390038362EA0
:1018A00031340038352E39380038352E383200388A
:1018B000352E36360038352E35300038352E333556
:1018C0000038352E31390038352E30330038342E7B
:1018D00038370038342E37320038342E3536003859
:1018E000342E34300038342E32340038342E30392F
:1018F0000038332E39330038332E37370038332E43
:1019000036310038332E34350038332E333000383A
:10191000332E31340038322E39380038322E3832F6
:101920000038322E36370038322E35310038322E1C
:1019300033350038322E31390038322E3034003809
:10194000312E38380038312E37320038312E3536C6
:101950000038312E34310038312E32350038312EF6
:1019600030390038302E39330038302E37370038D0
:10197000302E36320038302E34360038302E3330A8
:101980000038302E31340037392E39390037392EAE
:1019900038330037392E36370037392E3531003796
:1019A000392E33360037392E32300037392E303465
:1019B0000037382E38380037382E37320037382E77
:1019C00035370037382E34310037382E323500376E
:1019D000382E30390037372E39340037372E373824
:1019E0000037372E36320037372E34360037372E51
:1019F00033310037372E31350037362E393900373D
:101A0000362E38330037362E36380037362E3532FC
:101A10000037362E33360037362E32300037362E2A
:101A200030340037352E38390037352E373300370C
:101A3000352E35370037352E34310037352E3236D6
:101A40000037352E31300037342E39340037342EFC
:101A500037380037342E36330037342E34370037DA
:101A6000342E33310037342E31350037332E3939A7
:101A70000037332E38340037332E36380037332EC4
:101A800035320037332E33360037332E32310037BC
:101A9000332E30350037322E38390037322E373377
:101AA0000037322E35380037322E34320037322E9E
:101AB00032360037322E31300037312E393500378B
:101AC000312E37390037312E36330037312E343747
:101AD0000037312E33310037312E31360037312E79
:101AE00030300037302E38340037302E363800375B
:101AF000302E35330037302E33370037302E323129
:101B00000037302E30350036392E39300036392E38
:101B100037340036392E35380036392E3432003617
:101B2000392E32360036392E31310036382E3935DD
:101B30000036382E37390036382E36330036382EF8
:101B400034380036382E33320036382E31360036EF
:101B5000382E30300036372E38350036372E3639AD
:101B60000036372E35330036372E33370036372ED2
:101B700032320036372E30360036362E39300036C7
:101B8000362E37340036362E35380036362E34337E
:101B90000036362E32370036362E31310036352EAD
:101BA00039350036352E38300036352E363400368D
:101BB000352E34380036352E33320036352E313757
:101BC0000036352E30310036342E38350036342E7E
:101BD00036390036342E35340036342E333800365C
:101BE000342E32320036342E30360036332E393031
:101BF0000036332E37350036332E35390036332E46
:101C000034330036332E32370036332E313200363D
:101C1000322E39360036322E38300036322E3634F7
:101C20000036322E34390036322E33330036322E1F
:101C300031370036322E30310036312E383500360D
:101C4000312E37300036312E35340036312E3338D0
:101C50000036312E32320036312E30370036302EFB
:101C600039310036302E37350036302E35390036D2
:101C7000302E34340036302E32380036302E3132A9
:101C80000035392E39360035392E38310035392EA8
:101C900036350035392E34390035392E3333003599
:101CA000392E31370035392E30320035382E38365E
:101CB0000035382E37300035382E35340035382E83
:101CC00033390035382E32330035382E3037003571
:101CD000372E39310035372E37360035372E36302E
:101CE0000035372E34340035372E32380035372E54
:101CF00031320035362E39370035362E3831003541
:101D0000362E36350035362E34390035362E3334FE
:101D10000035362E31380035362E30320035352E2E
:101D200038360035352E37310035352E353500350E
:101D3000352E33390035352E32330035352E3038D7
:101D40000035342E39320035342E37360035342EF6
:101D500036300035342E34340035342E32390035E7
:101D6000342E31330035332E39370035332E3831A8
:101D70000035332E36360035332E35300035332ED0
:101D800033340035332E31380035332E30330035BF
:101D9000322E38370035322E37310035322E353578
:101DA0000035322E33390035322E32340035322EA2
:101DB00030380035312E39320035312E3736003586
:101DC000312E36310035312E34350035312E323951
:101DD0000035312E31330035302E39380035302E74
:101DE00038320035302E36360035302E353000355D
:101DF000302E33350035302E31390035302E30332A
:101E00000034392E38370034392E37310034392E2A
:101E100035360034392E34300034392E3234003423
:101E2000392E30380034382E39330034382E3737D5
:101E30000034382E36310034382E34350034382E04
:101E400033300034382E31340034372E39380034F2
:101E5000372E38320034372E36360034372E3531AF
:101E60000034372E33350034372E31390034372ED5
:101E700030330034362E38380034362E37320034C2
:101E8000362E35360034362E34300034362E323588
:101E90000034362E30390034352E39330034352EA7
:101EA00037370034352E36320034352E3436003490
:101EB000352E33300034352E31340034342E393859
:101EC0000034342E38330034342E36370034342E78
:101ED00035310034342E33350034342E3230003472
:101EE000342E30340034332E38380034332E373229
:101EF0000034332E35370034332E34310034332E52
:101F000032350034332E30390034322E3934003437
:101F1000322E37380034322E36320034322E3436F8
:101F20000034322E33300034322E31350034312E2D
:101F300039390034312E38330034312E36370034FD
:101F4000312E35320034312E33360034312E3230DA
:101F50000034312E30340034302E38390034302EF5
:101F600037330034302E35370034302E34310034DE
:101F7000302E32350034302E31300033392E3934A2
:101F80000033392E37380033392E36320033392EAC
:101F900034370033392E33310033392E31350033A5
:101FA000382E39390033382E38340033382E36384D
:101FB0000033382E35320033382E33360033382E86
:101FC00032310033382E30350033372E3839003374
:101FD000372E37330033372E35370033372E343230
:101FE0000033372E32360033372E31300033362E61
:101FF00039340033362E37390033362E363300333A
:10200000362E34370033362E33310033362E313608
:102010000033362E30300033352E38340033352E31
:1020200036380033352E35320033352E3337003312
:10203000352E32310033352E30350033342E3839D9
:102040000033342E37340033342E35380033342EF9
:1020500034320033342E32360033342E31310033F3
:10206000332E39350033332E37390033332E3633A0
:102070000033332E34380033332E33320033332ED3
:1020800031360033332E30300033322E38340033C3
:10209000322E36390033322E35330033322E333779
:1020A0000033322E32310033322E30360033312EAF
:1020B00039300033312E37340033312E3538003388
:1020C000312E34330033312E32370033312E31315B
:1020D0000033302E39350033302E37390033302E6F
:1020E00036340033302E34380033302E3332003360
:1020F000302E31360033302E30310032392E383523
:102100000032392E36390032392E35330032392E2D
:1021100033380032392E32320032392E3036003226
:10212000382E39300032382E37350032382E3539D6
:102130000032382E34330032382E32370032382E07
:1021400031310032372E39360032372E38300032F6
:10215000372E36340032372E34380032372E3333B0
:102160000032372E31370032372E30310032362EE2
:1021700038350032362E37300032362E35340032C4
:10218000362E33380032362E32320032362E303789
:102190000032352E39310032352E37350032352EAA
:1021A00035390032352E34330032352E3238003294
:1021B000352E31320032342E39360032342E38305A
:1021C0000032342E36350032342E34390032342E7B
:1021D00033330032342E31370032342E3032003275
:1021E000332E38360032332E37300032332E35342A
:1021F0000032332E33380032332E32330032332E56
:1022000030370032322E39310032322E373500323B
:10221000322E36300032322E34340032322E323802
:102220000032322E31320032312E39370032312E27
:1022300038310032312E36350032312E3439003209
:10224000312E33340032312E31380032312E3032DB
:102250000032302E38360032302E37300032302EF9
:1022600035350032302E33390032302E32330032E1
:10227000302E30370031392E39320031392E373691
:102280000031392E36300031392E34340031392EB8
:1022900032390031392E31330031382E393700319F
:1022A000382E38310031382E36350031382E353061
:1022B0000031382E33340031382E31380031382E89
:1022C00030320031372E38370031372E3731003178
:1022D000372E35350031372E33390031372E323431
:1022E0000031372E30380031362E39320031362E5B
:1022F00037360031362E36310031362E3435003146
:10230000362E32390031362E31330031352E393701
:102310000031352E38320031352E36360031352E2B
:1023200035300031352E33340031352E313900311E
:10233000352E30330031342E38370031342E3731DA
:102340000031342E35360031342E34300031342E05
:1023500032340031342E30380031332E39320031EE
:10236000332E37370031332E36310031332E3435AA
:102370000031332E32390031332E31340031322ED8
:1023800039380031322E38320031322E36360031B3
:10239000322E35310031322E33350031322E313983
:1023A0000031322E30330031312E38380031312EA9
:1023B00037320031312E35360031312E3430003194
:1023C000312E32340031312E30390031302E393354
:1023D0000031302E37370031302E36310031302E7B
:1023E00034360031302E33300031302E3134003964
:1023F0002E393800392E383300392E363700392E31
:10240000353100392E333500392E313900392E302F
:102410003400382E383800382E373200382E353612
:1024200000382E343100382E323500382E30390045
:10243000372E393300372E373800372E36320037F3
:102440002E343600372E333000372E313500362EFD
:10245000393900362E383300362E363700362E35D1
:102460003100362E333600362E323000362E3034E0
:1024700000352E383800352E373300352E353700ED
:10248000352E343100352E323500352E31300034C2
:102490002E393400342E373800342E363200342EA4
:1024A000343700342E333100342E313500332E3999
:1024B0003900332E383300332E363800332E353280
:1024C00000332E333600332E323000332E303500B9
:1024D000322E383900322E373300322E3537003263
:1024E0002E343200322E323600322E313000312E70
:1024F000393400312E373800312E363300312E3446
:102500003700312E333100312E313500312E30304D
:1025100000302E383400302E363800302E35320060
:10252000302E333700302E323100302E303500302F
:102530002E3030006B2F642F5D2F562F4F2F482FDA
:10254000412F3A2F332F2C2F252F1E2F172F102FCF
:10255000092F022FFB2EF42EED2EE62EDF2ED82E85
:10256000D12ECA2EC32EBC2EB52EAE2EA72EA02E37
:10257000992E922E8B2E842E7D2E762E6F2E682EE7
:10258000612E5A2E532E4C2E452E3E2E372E302E97
:10259000292E222E1B2E142E0D2E062EFF2DF82D49
:1025A000F12DEA2DE32DDC2DD52DCE2DC72DC02DFF
:1025B000B92DB22DAB2DA42D9D2D962D8F2D882DAF
:1025C000812D7A2D732D6C2D652D5E2D572D502D5F
:1025D000492D422D3B2D342D2D2D262D1F2D182D0F
:1025E000112D0A2D032DFC2CF52CEE2CE72CE02CC4
:1025F000D92CD22CCB2CC42CBD2CB62CAF2CA82C77
:10260000A12C9A2C932C8C2C852C7E2C772C702C26
:10261000692C622C5B2C542C4D2C462C3F2C382CD6
:10262000312C2A2C232C1C2C152C0E2C072C002C86
:10263000F92BF22BEB2BE42BDD2BD62BCF2BC82B3E
:10264000C12BBA2BB32BAC2BA42B9C2B942B8C2BF8
:10265000842B7C2B742B6C2B642B5C2B542B4C2BE2
:10266000442B3C2B342B2C2B242B1C2B142B0C2BD2
:10267000042BFC2AF42AEC2AE42ADC2AD42ACC2AC9
:10268000C42ABC2AB42AAC2AA42A9C2A942A8C2ABA
:10269000842A7C2A742A6C2A642A5C2A542A4C2AAA
:1026A000442A3C2A342A2C2A242A1C2A142A0C2A9A
:1026B000042AFC29F429EC29E429DC29D429CC2991
:1026C000C429BC29B429AC29A4299C2994298C2982
:1026D00084297C2974296C2964295C2954294C2972
:1026E00044293C2934292C2924291C2914290C2962
:1026F0000429FC28F428EC28E428DC28D428CC2859
:10270000C428BC28B428AC28A4289C2894288C2849
:1027100084287C2874286C2864285C2854284C2839
:1027200044283C2834282C2824281C2814280C2829
:102730000428FC27F427EC27E427DC27D427CC2720
:10274000C427BC27B427AC27A4279C2794278C2711
:1027500084277C2774276C2764275C273131343920
:102760002E333300313134382E32340031313437A6
:102770002E313500313134362E303700313134349A
:102780002E393800313134332E3930003131343282
:102790002E383100313134312E373200313134307E
:1027A0002E363400313133392E353500313133385E
:1027B0002E343700313133372E3338003131333650
:1027C0002E323900313133352E323100313133344C
:1027D0002E313200313133332E3033003131333149
:1027E0002E393500313133302E383600313132391F
:1027F0002E373800313132382E3639003131323708
:102800002E363000313132362E353200313132350C
:102810002E343300313132342E33350031313233FE
:102820002E323600313132322E31370031313231F1
:102830002E303900313132302E30300031313138E4
:102840002E393100313131372E38330031313136C4
:102850002E373400313131352E36360031313134B6
:102860002E353700313131332E34380031313132A9
:102870002E343000313131312E33310031313130AD
:102880002E323300313130392E313400313130388D
:102890002E303500313130362E3937003131303578
:1028A0002E383800313130342E3830003131303369
:1028B0002E373100313130322E3632003131303165
:1028C0002E353400313130302E3435003130393945
:1028D0002E333600313039382E3238003130393726
:1028E0002E313900313039362E3131003130393521
:1028F0002E303200313039332E3933003130393215
:102900002E383500313039312E37360031303930FC
:102910002E363800313038392E35390031303838DC
:102920002E353000313038372E34320031303836E1
:102930002E333300313038352E32340031303834D4
:102940002E313600313038332E30370031303831C7
:102950002E393900313038302E39300031303739A6
:102960002E383100313037382E3733003130373799
:102970002E363400313037362E353600313037358B
:102980002E343700313037342E333800313037337E
:102990002E333000313037322E3231003130373182
:1029A0002E313300313037302E303400313036386C
:1029B0002E393500313036372E3837003130363643
:1029C0002E373800313036352E3639003130363436
:1029D0002E363100313036332E353200313036323A
:1029E0002E343400313036312E333500313036302C
:1029F0002E323600313035392E313800313035380D
:102A00002E303900313035372E3031003130353508
:102A10002E393200313035342E38330031303533F1
:102A20002E373500313035322E36360031303531E3
:102A30002E353700313035302E34390031303439CD
:102A40002E343000313034382E33320031303437C8
:102A50002E323300313034362E31340031303435BB
:102A60002E303600313034332E39370031303432A5
:102A70002E383900313034312E3830003130343096
:102A80002E373100313033392E3633003130333880
:102A90002E353400313033372E3436003130333672
:102AA0002E333700313033352E3238003130333465
:102AB0002E323000313033332E3131003130333269
:102AC0002E303200313033302E393400313032394B
:102AD0002E383500313032382E373700313032372A
:102AE0002E363800313032362E353900313032351D
:102AF0002E353100313032342E3432003130323321
:102B00002E333400313032322E3235003130323112
:102B10002E313600313032302E30380031303138FD
:102B20002E393900313031372E39300031303136DD
:102B30002E383200313031352E37330031303134D8
:102B40002E363500313031332E35360031303132CA
:102B50002E343700313031312E33390031303130BD
:102B60002E333000313030392E32320031303038AF
:102B70002E313300313030372E30340031303035A3
:102B80002E393600313030342E3837003130303382
:102B90002E373900313030322E373000313030317D
:102BA0002E363100313030302E3533003939392E60
:102BB0003434003939382E3335003939372E32372D
:102BC000003939362E3138003939352E3130003957
:102BD00039342E3031003939322E39320039393119
:102BE0002E3834003939302E3735003938392E3601
:102BF00037003938382E3538003938372E34390017
:102C00003938362E3431003938352E3332003938E0
:102C1000342E3233003938332E3135003938322EE4
:102C20003036003938302E3938003937392E3839B6
:102C3000003937382E3830003937372E37320039DF
:102C400037362E3633003937352E3535003937349F
:102C50002E3436003937332E3337003937322E329F
:102C600039003937312E3230003937302E313200C9
:102C70003936392E3033003936372E39340039366B
:102C8000362E3836003936352E3737003936342E61
:102C90003638003936332E3630003936322E35315B
:102CA000003936312E3433003936302E3334003982
:102CB00035392E3235003935382E31370039353730
:102CC0002E3038003935362E3030003935342E3933
:102CD00031003935332E3832003935322E37340051
:102CE0003935312E3635003935302E353600393408
:102CF000392E3438003934382E3339003934372EF0
:102D00003331003934362E3232003934352E3133F6
:102D1000003934342E3035003934322E393600390A
:102D200034312E3838003934302E373900393339C0
:102D30002E3730003933382E3632003933372E35BE
:102D400033003933362E3435003933352E333600DF
:102D50003933342E3237003933332E313900393399
:102D6000322E3130003933312E3031003932392EA4
:102D70003933003932382E3834003932372E37366D
:102D8000003932362E3637003932352E3538003993
:102D900032342E3530003932332E3431003932326C
:102DA0002E3333003932312E3234003932302E3165
:102DB00035003931392E3037003931372E39380066
:102DC0003931362E3839003931352E383100393124
:102DD000342E3732003931332E3634003931322E29
:102DE0003535003931312E3436003931302E333813
:102DF000003930392E3239003930382E323100392D
:102E000030372E3132003930362E303300393034FD
:102E10002E3935003930332E3836003930322E37DE
:102E200038003930312E3639003930302E36300006
:102E30003839392E3532003839382E3433003839A4
:102E4000372E3334003839362E3236003839352EA5
:102E50003137003839342E3039003839332E30309C
:102E6000003839312E3931003839302E38330038B6
:102E700038392E3734003838382E3636003838375F
:102E80002E3537003838362E3438003838352E3461
:102E900030003838342E3331003838332E32320097
:102EA0003838322E3134003838312E30350038374A
:102EB000392E3937003837382E3838003837372E22
:102EC0003739003837362E3731003837352E36321D
:102ED000003837342E3534003837332E3435003847
:102EE00037322E3336003837312E3238003837300B
:102EF0002E3139003836392E3131003836382E30FF
:102F000032003836362E3933003836352E38350013
:102F10003836342E3736003836332E3637003836CA
:102F2000322E3539003836312E3530003836302ED5
:102F30003432003835392E3333003835382E3234B8
:102F4000003835372E3136003835362E30370038D8
:102F500035342E3939003835332E39300038353292
:102F60002E3831003835312E3733003835302E3693
:102F7000340011241FBECFEFD8E0DEBFCDBFF894E0
:102F8000A89584B7877F84BFE0E6F0E08081886100
:102F900080831082789411E0A0E0B1E0E4EAF5E4E7
:102FA00002C005900D92AA33B107D9F723E0AAE336
:102FB000B1E001C01D92A235B207E1F70E942C1FBB
:102FC0000C94BA22259A209A089595B1982B95B918
:102FD000089595B18095892385B9089580913A0126
:102FE000882371F02D9810923A0130E020E046EBF2
:102FF00053E060E070E080E091E00E94C920089515
:103000002D9A81E080933A0130E020E042E350E0E5
:1030100060E070E080E091E00E94C9200895809116
:103020000601882309F0A89570E060E080E09DE04B
:103030000E9410210895E6E6F1E0AAE5B1E022E75A
:1030400031E08FEF93E0819391931D921D92E217EF
:10305000F307C9F70895E2E7F1E080E6DF011D928A
:103060008A95E9F7E2EDF1E088E0DF011D928A95AB
:10307000E9F7EAEDF1E08CE0DF011D928A95E9F7CE
:103080000895CF92DF92EF92FF920F931F93CF9309
:10309000DF93082F192FF801C08180913B01909197
:1030A0003C01A0913D01B0913E01892B8A2B8B2BD5
:1030B00009F491C040913B0150913C0160913D0168
:1030C00070913E01463051056105710508F469C0F3
:1030D000AC2FB0E0FD01EE52FE4F9081F80121814E
:1030E0003281FD01EE0FFF1FEE0FFF1FEE0FFF1FDE
:1030F000E90FF11DEE0FFF1FEE58FE4F31832083C5
:10310000463351056105710508F444C080E1C89F4C
:10311000F0011124EE58FE4F88E000E010E0980125
:10312000C191D1910C0F1D1F211D311D8150C1F77F
:10313000689412F836952795179507951694D1F748
:103140006801FD01EE0FFF1FEF01C652DE4F19832C
:103150000883E65AFE4F0190F081E02DE017F10759
:1031600038F4FD01EE0FFF1FE65AFE4F1183008376
:10317000FD01EE0FFF1FEA59FE4F0190F081E02D97
:10318000CE16DF0638F4FD01EE0FFF1FEA59FE4FA1
:103190001183008381E0890F973001F1AE52BE4F59
:1031A0008C934F5F5F4F6F4F7F4F40933B01509326
:1031B0003C0160933D0170933E01EAE7F0E08081BD
:1031C00080648083DF91CF911F910F91FF90EF90EA
:1031D000DF90CF9008950E942B186CCFAE52BE4F57
:1031E0001C92DFCF0F931F93CF93DF9300D0CDB707
:1031F000DEB7282F392F062F172F2130310529F15F
:103200002230310539F16091DA017091DB01633AC6
:10321000710528F16F3183E0780750F185E0E9E12D
:10322000F1E0D80101900D928A95E1F7F801019043
:103230000020E9F7CF010197801B910B0F900F90B1
:10324000DF91CF911F910F91089560916601709168
:103250006701DDCF60915A0170915B01D8CF85E0A5
:10326000E4E1F1E0D80101900D928A95E1F7DECF1B
:10327000660F771F625B7F4E42E050E0CE01019601
:103280000E94A32269817A81C8010E94AC22CECF1C
:103290000F931F93CF93DF9300D0CDB7DEB7282FC6
:1032A000392F062F172F2130310531F1223031050A
:1032B00041F16091DC017091DD016E3A82E07807A6
:1032C00028F1623CE3E07E0750F185E0E9E1F1E0BE
:1032D000D80101900D928A95E1F7F8010190002044
:1032E000E9F7CF010197801B910B0F900F90DF91B1
:1032F000CF911F910F9108956091680170916901BC
:10330000DCCF60915C0170915D01D7CF85E0E4E195
:10331000F1E0D80101900D928A95E1F7DECF660FBA
:10332000771F6852704E42E050E0CE0101960E9435
:10333000A32269817A81C8010E94AC22CECF0F936B
:103340001F93CF93DF9300D0CDB7DEB7282F392F4F
:10335000062F172F2130310529F12230310539F19F
:103360006091DE017091DF01633371052CF16734E8
:1033700082E0780754F185E0E9E1F1E0D8010190BD
:103380000D928A95E1F7F80101900020E9F7CF014D
:103390000197801B910B0F900F90DF91CF911F91A0
:1033A0000F91089560916A0170916B01DDCF60917A
:1033B0005E0170915F01D8CF85E0E4E1F1E0D801D2
:1033C00001900D928A95E1F7DECF660F771F6E5F51
:1033D0007F4F42E050E0CE0101960E94A322698116
:1033E0007A81C8010E94AC22CECFCF93DF930E9496
:1033F000B31CC82FD92F0E94AE1CE0913F0181E081
:103400008E0F80933F01F0E0EE0FFF1FEA51FE4F59
:10341000D183C0838530A1F080914001909141011A
:103420008C179D0720F4D0934101C093400170E0B8
:1034300060E080E098E00E941021DF91CF91089534
:1034400010923F01E9CF0E94B81C909343018093F2
:10345000420170E060E080E09AE00E94102108954F
:10346000A89584B7877F84BFE0E6F0E0808188611B
:1034700080838FE080830895189518951895189586
:103480001895189518951895189518951F920F92DC
:103490000FB60F9211242F933F934F935F936F9327
:1034A0007F938F939F93AF93BF93EF93FF930E946C
:1034B000B31FFF91EF91BF91AF919F918F917F913A
:1034C0006F915F914F913F912F910F900FBE0F9091
:1034D0001F90189518951895189518951895189582
:1034E0001F920F920FB60F9211242F933F934F9379
:1034F0005F936F937F938F939F93AF93BF93EF935C
:10350000FF938091C6000E94AB1BFF91EF91BF918A
:10351000AF919F918F917F916F915F914F913F916B
:103520002F910F900FBE0F901F9018951F920F9222
:103530000FB60F9211242F933F934F935F936F9386
:103540007F938F939F93AF93BF93EF93FF930E94CB
:10355000621CFF91EF91BF91AF919F918F917F91ED
:103560006F915F914F913F912F910F900FBE0F90F0
:103570001F90189518951F920F920FB60F92112455
:103580002F933F934F935F936F937F938F939F936B
:10359000AF93BF93EF93FF930E947C1CFF91EF9139
:1035A000BF91AF919F918F917F916F915F914F915B
:1035B0003F912F910F900FBE0F901F901895189567
:1035C00018951895189510928000E1E8F0E01082A7
:1035D000109285001092840083EF91E0909389000F
:1035E000809388008081886080838081826080836E
:1035F000EFE6F0E080818260808308951092C5003C
:1036000080E18093C400E0ECF0E080818260808300
:103610008EE08093C20088ED8093C10008958111EF
:1036200010924501E091450180914601E81751F063
:1036300081E08E0F80934501F0E0E65AFD4F8081D6
:1036400090E00895E1ECF0E080818F7D80838FEF42
:103650009FEF0895282F392F962F613508F090E5B8
:10366000662351F0F901AAE5B2E0290F311D8191DD
:103670008D93E217F307D9F79093460181E00E94FA
:103680000F1B8093C600E1ECF0E0808180628083B4
:103690000895EAE0F1E094E09183828363834583B7
:1036A000860F9927991F2481820F911D480F592F4A
:1036B000511D40954683CF0108950E94491B68E043
:1036C0000E942A1B08950F931F93CF93DF93042F1B
:1036D000152F422F532FEFEAF2E09BE4DF011D92FA
:1036E0009A95E9F7EAEAF2E09EE79083322F93E0B9
:1036F000920F91838283638396E09483860F992748
:10370000991F0696141615061CF5F801AFEAB2E0EB
:10371000040F151F21912D93EF0121972881820F0E
:10372000911D27FD9A95E017F107A1F7FA01E655DB
:10373000FD4F8095858381E8868367E0630F8AEA81
:1037400092E00E942A1BDF91CF911F910F91089563
:1037500050E040E0EBCFE0910701E150E73008F0A6
:10376000B0C0F0E0E454FD4D0C9475218E3709F0A3
:10377000A8C0E0910801F0910901808382E0809364
:1037800007010895E0910801F09109018183E0911A
:103790000801F091090181818D3450F08CE481831E
:1037A000E0910801F0910901EE5AFF4F88E0808313
:1037B00083E0809307010895E0910801F0910901E9
:1037C0008283E05BFF4F90E09183808384E080936D
:1037D00007010895E0910801F09109018383DF0159
:1037E000A05BBF4F2D913C911197820F932F911D9C
:1037F0008D939C938181823031F085E08093070125
:1038000010924401089586E0809307010895A091E5
:103810000801B0910901E091440141E04E0F40934D
:103820004401EA0FFB2FF11D8483FD01E05BFF4F94
:1038300020813181820F932F911D91838083119676
:103840008C918250990B48171906D9F586E0809320
:103850000701109244010895409108015091090117
:10386000FA01E25BFF4F8083329620813181820F23
:10387000932F911D9183808399278F3F910529F084
:103880004E5A5F4F82E0FA01808387E08093070100
:103890000895813839F0E0910801F0910901EE5A5C
:1038A000FF4F808381E080930701209108013091D0
:1038B00009014AE050E060E070E080E092E00E94A0
:1038C000C920089580E00E940F1B282F392F2F3F19
:1038D000320711F02093C600089580E480937C00A5
:1038E0008FE880937A000E941B180895EAE7F0E0C1
:1038F0008081806480830895ECE7F0E020818091EE
:10390000780090917900A7E4B1E027702C93937030
:1039100012969C938E93119780818F5F8083808114
:103920008770853059F027E431E04FE050E060E0E7
:1039300070E080E094E00E94C92008958081887F33
:103940008083F1CF8AB1837F8AB98BB18C608BB9C8
:10395000E9E6F0E080818A608083089510924D014D
:1039600010924C01089580914C0190914D01089561
:1039700080914A0190914B010895E09B0AC080918B
:103980004C0190914D01019690934D0180934C0113
:10399000E09AE19B0AC080914A0190914B01019607
:1039A00090934B0180934A01E19A089580E290E060
:1039B0000E94E5172FEF87EA91E621508040904062
:1039C000E1F700C0000080E290E00E94E9172FEFCD
:1039D00089E698E1215080409040E1F700C0000066
:1039E000E5CF80E290E00E94E5172FEF83ED90E3B2
:1039F000215080409040E1F700C0000080E290E05C
:103A00000E94E9172FEF82E597E021508040904017
:103A1000E1F700C00000E5CF80E290E00E94E517EA
:103A20002FEF81EE94E0215080409040E1F700C0FC
:103A3000000080E290E00E94E9172FEF83ED90E311
:103A4000215080409040E1F700C00000E5CF80E2C7
:103A500090E00E94E5172FEF80E792E02150804030
:103A60009040E1F700C0000080E290E00E94E9177A
:103A70002FEF89E698E1215080409040E1F700C0A7
:103A80000000E5CF80E290E00E94E5172FEF80E78D
:103A900092E0215080409040E1F700C0000080E2B9
:103AA00090E00E94E9172FEF80E792E021508040DC
:103AB0009040E1F700C00000E5CF80E290E00E9476
:103AC000E5172FEF81EE94E0215080409040E1F720
:103AD00000C0000080E290E00E94E9172FEF81EE25
:103AE00094E0215080409040E1F700C00000E5CF15
:103AF000282F392FF8941092800010928100109294
:103B0000850010928400259A223081E03807A9F0C0
:103B100048F0233081E0380791F02430314089F4B7
:103B20000E94271D211581E0380729F021303140FE
:103B300041F40E94F11C0E94D61C0E940C1D0E94A0
:103B4000421D0E945D1DCF92DF92EF92FF920F9374
:103B50001F93CF93DF93C82FD92FFE01EE5AFF4F4B
:103B6000408141110BC06B81EFEFE60FEF3008F0A1
:103B70005DC1F0E0ED53FD4D0C9475216B816295B4
:103B8000607F8A810E945D1BDF91CF911F910F9111
:103B9000FF90EF90DF90CF900895EAEFF2E084E598
:103BA00080830F2EFAE3CF2EF02DC1826CEF72E0EE
:103BB00090E080E00E949F19682F792FFB01E6506A
:103BC000FD4F0F2EFBE3DF2EF02DD28280E58383A5
:103BD0008B010B5F1F4FC482CB0181509D4F7C0135
:103BE000BC0190E080E00E944819282F392FF7018E
:103BF000E20FF31FD0822F5F3F4F020F131FF80118
:103C0000E650FD4F88E48083C80102967C01C182A2
:103C100004501D4FB80190E080E00E94F218482F38
:103C2000592FF801E40FF51FD0829A012F5F3F4F03
:103C30002E0D3F1DF901E650FD4F10826B816295FC
:103C4000607F4AEF52E08A810E94631B9DCFEAEFBA
:103C5000F2E084E580830F2EFAE3CF2EF02DC182AF
:103C60006CEF72E082E090E00E949F19682F792F3C
:103C7000FB01E650FD4F0F2EFBE3DF2EF02DD2822D
:103C800080E583838B010B5F1F4FC482FB01E150F2
:103C9000FD4F7F01BF0182E090E00E944819282F6C
:103CA000392FF701E20FF31FD0822F5F3F4F020F32
:103CB000131FF801E650FD4F88E48083C801029687
:103CC0007C01C18204501D4FB80182E090E00E9447
:103CD000F218482F592FF801E40FF51FD0829A01EE
:103CE0002F5F3F4F2E0D3F1DF901E650FD4F108213
:103CF0006B816295607F4AEF52E08A810E94631B6C
:103D000043CFEAEFF2E084E580830F2EFAE3CF2E73
:103D1000F02DC1826CEF72E081E090E00E949F196B
:103D2000682F792FFB01E650FD4F0F2EFBE3DF2EAE
:103D3000F02DD28280E583838B010B5F1F4FC482FD
:103D4000FB01E150FD4F7F01BF0181E090E00E9447
:103D50004819282F392FF701E20FF31FD0822F5F68
:103D60003F4F020F131FF801E650FD4F88E4808398
:103D7000C80102967C01C18204501D4FB80181E048
:103D800090E00E94F218482F592FF801E40FF51F18
:103D9000D0829A012F5F3F4F2E0D3F1DF901E65053
:103DA000FD4F10826B816295607F4AEF52E08A81FD
:103DB0000E94631BE9CE0E941B186B816295607F95
:103DC00030E020E050E040E08A810E94631BDCCEBE
:103DD0001092060130E020E050E040E060E88A8187
:103DE0000E94631BD1CE0E947221682F792F8AEF27
:103DF00092E00E94B3222AEF32E0F9010190002004
:103E0000E9F79F012B5F32406B816295607F4AEF3B
:103E100052E08A810E94631BB7CE30E020E050E080
:103E200040E060EF8A810E94631BAECE6295607FA6
:103E300041E08A810E945D1BA7CEF8940E94301A4F
:103E40000E94E2170E94E31A0E94FE1A0E946D1C53
:103E50000E94A21C789408950E941D1F8DEB9CE186
:103E60000E94542080E290E00E94E51786E090E0F6
:103E70000E94E01F6FE078E180E09DE00E94592001
:103E80006EEE77E180E091E00E94592061E478E1F4
:103E900080E094E00E94592065EF79E180E098E0AD
:103EA0000E94592063E27AE180E09AE00E94592062
:103EB00063EA7DE180E092E00E94592030E020E05A
:103EC0004AEF50E060E070E080E09DE00E94C92091
:103ED00030E020E048EB5BE060E070E080E091E003
:103EE0000E94C92030E020E048EE53E060E070E03E
:103EF00080E098E00E94C92030E020E040E85EEEDB
:103F000066E370E080E09AE00E94C9200E94761C7F
:103F10000E944D218FEF9FEF08950895682F792F0C
:103F2000A0914C03B0914D031A161B06A4F4E09126
:103F30004A03F0914B0330E020E08E2F9F2F408109
:103F400051814617570749F02F5F3F4F78962A1740
:103F50003B0799F7089580E090E0089584E091E0B0
:103F60000E94781D089580914E0190914F01019615
:103F700090934F0180934E0180914E0190914F019B
:103F8000049731F0E0911201F09113010995089521
:103F90008091500190915101A0915201B091530133
:103FA0000196A11DB11D8093500190935101A093E2
:103FB0005201B093530110924F0110924E01E2CF83
:103FC000282F392F121613065CF4213131050CF419
:103FD00061C080E190E090934D0380934C0306C054
:103FE00080E190E090934D0380934C0320914C032B
:103FF00030914D03C901880F991F820F931F880FBD
:10400000991F880F991F880F991F0E947B21282FC5
:10401000392F30934B0320934A03232B09F43FC0DD
:10402000109259011092580180914C0390914D03C8
:104030001816190674F530E020E090E080E06EEA92
:104040007FE1E0914A03F0914B03E20FF31F1182ED
:1040500010821282138214821582168217821086B1
:104060001186128613861486158616861786118A7F
:10407000108A738B628B158A148A178A168A0196A6
:10408000285E3F4F40914C0350914D038417950794
:10409000C4F2089530934D0320934C03A7CF81E0E1
:1040A00091E00E94781DBCCF909313018093120180
:1040B0000895CF93DF93C0914C03D0914D031C160C
:1040C0001D0684F4E0914A03F0914B0330E020E0B8
:1040D000DF0147854423C9F02F5F3F4F78962C17A7
:1040E0003D07B1F780E091E00E94781D20915801D2
:1040F0003091590180914C0390914D0382179307A1
:104100000CF442C0DF91CF9108958083918381E0C8
:104110008787628B738B809158019091590101962A
:104120009093590180935801E0915401F091550109
:10413000309799F05796FC93EE93569780915601DD
:104140009091570155969C938E935497B58BA48B61
:10415000B0935501A0935401C9CFB0935501A093DA
:104160005401B0935701A09356010A2E1B2E559669
:104170001C920E92112454970A2E1B2E57961C92B5
:104180000E9211245697B2CF81E091E00E94781DE3
:10419000B9CFCF92DF92EF92FF92CF93DF93C42EED
:1041A000D52EE62EF72ED22FC32F0E948E1FE82F7A
:1041B000F92F309749F18091500190915101A091D0
:1041C0005201B091530182839383A483B583C28645
:1041D000D386E486F586AC01BD0140955095609587
:1041E00070954C155D056E057F05A8F4D701C601D5
:1041F000841B950BA60BB70B86839783A087B1878B
:1042000081E08687D08BC18BDF91CF91FF90EF90BB
:10421000DF90CF9008958C0D9D1DAE1DBF1DECCF7E
:104220000F931F93CF93DF93D62FC72F0E948E1F1C
:10423000E82FF92F309739F14091500150915101F9
:10424000609152017091530142835383648375835B
:1042500082859385A485B5858A019B01009510957B
:1042600020953095081719072A073B0788F4801B0B
:10427000910BA20BB30B86839783A087B18781E054
:104280008687D08BC18BDF91CF911F910F910895BD
:10429000840F951FA61FB71FEECFC0915601D09176
:1042A00057012097F1F303C00C88DD89C02D8E855E
:1042B0008823D1F38091500190915101A091520136
:1042C000B09153014E815F81688579858417950788
:1042D000A607B70748F31E86EA89FB89888999896A
:1042E0000995E2CF8EE191E00895EE0FFF1F059052
:1042F000F491E02D09940F931F93CF93DF939C01CA
:10430000029710F422E030E0E0915003F091510365
:1043100090E080E0B0E0A0E0309791F4009709F4DD
:1043200045C0821B930B84309105B8F58A819B812F
:104330006115710569F1FB0193838283FE0111C050
:10434000408151810281138142175307F0F04217D7
:10435000530799F4109761F012960C9312971396E5
:104360001C933296CF01DF91CF911F910F91089549
:104370000093500310935103F4CF009719F048179E
:10438000590718F4CA01BD01EF01DF01F801C4CFDC
:104390009093510380935003D1CFFE01E80FF91F92
:1043A00021933193029799838883DCCF80914E03C8
:1043B00090914F03892B41F4809102019091030168
:1043C00090934F0380934E038091000190910101DF
:1043D000009741F48DB79EB74091040150910501BB
:1043E000841B950B40914E0350914F03481759077A
:1043F00008F0B8CF841B950B8217930708F4B2CF4F
:10440000B9016E5F7F4F8617970708F4ABCF640F33
:10441000751F70934F0360934E03FA0121933193FC
:10442000A1CFCF93DF939C010097E9F0FC01329775
:1044300013821282C0915003D0915103DE0190E0AB
:1044400080E02097A1F480819181280F391F80910D
:104450004E0390914F038217930709F067C0F093C2
:104460004F03E0934E03DF91CF910895DA01AE1729
:10447000BF0708F041C012964D915C911397CD0192
:104480004115510599F7DC011396FC93EE931297B1
:104490004D915D91A40FB51FEA17FB0781F42081B0
:1044A00031812E5F3F4F240F351FDC0111963C9365
:1044B0002E932281338113963C932E931297B0E072
:1044C000A0E08A819B810097B1F5FE0181919191D5
:1044D000E80FF91F80914E0390914F038E179F07AD
:1044E00011F6109759F51092510310925003D09382
:1044F0004F03C0934E03B7CFB383A2834081518152
:10450000240F351FA217B30771F44E5F5F4F2D9133
:104510003C911197420F531F5183408312962D9166
:104520003C9133832283009709F0ADCFF093510380
:10453000E093500398CFDE01EC01C3CF13961C9299
:104540001E921297D4CFFB01DC0102C005900D92A0
:1045500041505040D8F70895FB01DC0105900D92C1
:104560000020E1F70895FB01DC0101900D9200208D
:10457000E1F70895F894FFCFB61BC21BDC1BEA1BC2
:10458000071C2C1C491CCD1DC41DC41D271E811ECB
:10459000DB1EC41DE81EF31E161F161F161F161F56
:0445A000161F0D1FB6
:1045A400000052032000010106027E0000001500F5
:1045B40000818D1F2D455252002B45525200312E41
:1045C400322E303120323031392D30372D333020F6
:0A45D40031373A33373A3230000035
:00000001FF
