:100000000C9429130C94E4160C94E5160C94E61643
:100010000C94E7160C94E8160C94E9160C94EA1666
:100020000C94EB160C94EC160C94ED160C94EE1646
:100030000C9412170C9413170C9414170C94151796
:100040000C9416170C9417170C9418170C943E1751
:100050000C9462170C9463170C9487170C948817F0
:100060000C9489170C948A17C90AC60AC30AC00AD5
:10007000BD0ABA0AB70AB40AB10AAE0AAB0AA80A9C
:10008000A50AA20A9F0A9C0A990A960A930A900A4C
:100090008D0A8A0A870A840A810A7E0A7B0A780AFC
:1000A000750A720A6F0A6C0A690A660A630A600AAC
:1000B0005D0A5A0A570A540A510A4E0A4B0A480A5C
:1000C000450A420A3F0A3C0A390A360A330A300A0C
:1000D0002D0A2A0A270A240A210A1E0A1B0A180ABC
:1000E000150A120A0F0A0C0A090A060A030A000A6C
:1000F000FD09FA09F709F409F109EE09EB09E80924
:10010000E509E209DF09DC09D909D609D309D009D3
:10011000CD09CA09C709C409C109BE09BB09B80983
:10012000B509B209AF09AC09A909A609A309A00933
:100130009D099A099709940991098E098B098809E3
:10014000850982097F097C09790976097309700993
:100150006D096A096709640961095E095B09580943
:10016000550952094F094C094909460943094009F3
:100170003D093A093709340931092E092B092809A3
:10018000250922091F091C09190916091309100953
:100190000D090A09070904090109FE08FB08F80806
:1001A000F508F208EF08EC08E908E608E308E008BB
:1001B000DD08DA08D708D408D108CE08CB08C8086B
:1001C000C508C208BF08BC08B908B608B308B0081B
:1001D000AD08AA08A708A408A1089E089B089808CB
:1001E000950892088F088C0889088608830880087B
:1001F0007D087A087708740871086E086B0868082B
:10020000650862085F085C085908560853085008DA
:100210004D084A084708440841083E083B0838088A
:10022000350832082F082C0829082608230820083A
:100230001D081A081708140811080E080B080808EA
:1002400005080208FF07FC07F907F607F307F007A0
:10025000ED07EA07E707E407E107DE07DB07D80752
:10026000D507D207CF07CC07C907C607C307C00702
:10027000BD07BA07B707B407B107AE07AB07A807B2
:10028000A507A2079F079C07990796079307900762
:100290008D078A078707840781077E077B07780712
:1002A000750772076F076C076907660763076007C2
:1002B0005D075A075707540751074E074B07480772
:1002C000450742073F073C07390736073307300722
:1002D0002D072A072707240721071E071B071807D2
:1002E000150712070F070C07090706070307000782
:1002F000FD06FA06F706F406F106EE06EB06E8063A
:10030000E506E206DF06DC06D906D606D306D006E9
:10031000CD06CA06C706C406C106BE06BB06B80699
:10032000B506B206AF06AC06A906A606A306A00649
:100330009D069A069706940691068E068B068806F9
:10034000850682067F067C067906760673067006A9
:100350006D066A066706640661065E065B06580659
:10036000550652064F064C06490646064306400609
:100370003D063A063706340631062E062B062806B9
:10038000250622061F061C06190616061306100669
:100390000D060A06070604060106FE05FB05F8051C
:1003A000F505F205EF05EC05E905E605E305E005D1
:1003B000DD05DA05D705D405D105CE05CB05C80581
:1003C000C505C205BF05BC05B905B605B305B00531
:1003D000AD05AA05A705A405A1059E059B059805E1
:1003E000950592058F058C05890586058305800591
:1003F0007D057A057705740571056E056B05680541
:10040000650562055F055C055905560553055005F0
:100410004D054A054705440541053E053B053805A0
:10042000350532052F052C05290526052305200550
:100430001D051A051705140511050E050B05080500
:1004400005050205FF04FC04F904F604F304F004B6
:10045000ED04EA04E704E404E104DE04DB04D80468
:10046000D504D204CF04CC04C904C604C304C00418
:10047000BD04BA04B704B404B104AE04AB04A804C8
:10048000A504A2049F049C04990496049304900478
:1004900041000940005740004240002C40001640F7
:1004A00000013F004F3F00393F00233F000E3E0058
:1004B0005C3E00463E00313E001B3E00053D0053C1
:1004C0003D003E3D00283D00123C00603C004B3C9E
:1004D00000353C001F3C000A3B00583B00423B00FB
:1004E0002C3B00173B00013A004F3A003A3A0024F7
:1004F0003A000E39005C39004739003139001B39A8
:10050000000538005438003E380028380013370002
:100510006137004B37003537002037000A36005866
:1005200036004336002D36001736000135005035B1
:10053000003A35002435000E34005D3400473400A5
:100540003134001C34000633005433003E3300299C
:1005500033001332006132004C3200363200203258
:10056000000A31005931004331002D3100173100AC
:100570000230005030003A30002530000F2F005D6F
:100580002F00472F00322F001C2F00062E00552E63
:10059000003F2E00292E00132D00622D004C2D004F
:1005A000362D00202D000B2C00592C00432C002E42
:1005B0002C00182C00022B00502B003B2B00252B6D
:1005C000000F2A005E2A00482A00322A001C2A0056
:1005D0000729005529003F29002929001428006215
:1005E00028004C28003728002128000B2700592715
:1005F000004427002E27001827000326005126005C
:100600003B26002526001025005E250048250032E7
:1006100025001D25000724005524004024002A241D
:10062000001423006223004D230037230021230000
:100630000C22005A22004422002E2200192200031C
:1006400021005121003B21002621001020005E20C6
:10065000004920003320001D2000071F00561F0006
:10066000401F002A1F00141E00631E004D1E00378D
:100670001E00221E000C1D005A1D00441D002F1DCF
:1006800000191D00031C00521C003C1C00261C000D
:10069000101B005F1B00491B00331B001D1B0008C3
:1006A0001A00561A00401A002B1A00151900631977
:1006B000004D19003819002219000C18005B1800B1
:1006C0004518002F18001918000417005217003C95
:1006D00017002617001116005F1600491600341681
:1006E000001E16000815005615004115002B1500B8
:1006F0001515000014004E14003814002214000DCB
:1007000013005B13004513002F13001A130004128B
:10071000005212003D12002712001111005F11005B
:100720004A11003411001E11000910005710004139
:1007300010002B1000161000000F004E0F00380F95
:1007400000230F000D0E005B0E00460E00300E0061
:100750001A0E00040D00530D003D0D00270D001270
:100760000C00600C004A0C00340C001F0C00090B3C
:1007700000570B00410B002C0B00160B00000A0069
:100780004F0A00390A00230A000D09005C090046DF
:1007900009003009001B09000508005308003D0846
:1007A000002808001207006007004A07003507000C
:1007B0001F07000906005806004206002C06001616
:1007C00006000105004F05003905002405000E0450
:1007D000005C04004604003104001B040005030013
:1007E0005303003E03002803001202006102004B85
:1007F00002003502001F02000A01005801004201F8
:10080000002C01001701000100004F00003A000019
:100810002400000E00000700001C00003200004809
:1008200000005DFFFF0FFFFF25FFFF3BFFFF50FEB6
:10083000FF02FEFF18FEFF2EFEFF43FEFF59FDFFE5
:100840000BFDFF20FDFF36FDFF4CFDFF62FCFF139B
:10085000FCFF29FCFF3FFCFF54FBFF06FBFF1CFBDA
:10086000FF32FBFF47FBFF5DFAFF0FFAFF25FAFFA0
:100870003AFAFF50F9FF02F9FF17F9FF2DF9FF438C
:10088000F9FF59F8FF0AF8FF20F8FF36F8FF4BF898
:10089000FF61F7FF13F7FF29F7FF3EF7FF54F6FF5D
:1008A00006F6FF1CF6FF31F6FF47F6FF5DF5FF0E7B
:1008B000F5FF24F5FF3AF5FF50F4FF01F4FF17F4BC
:1008C000FF2DF4FF42F4FF58F3FF0AF3FF20F3FF7C
:1008D00035F3FF4BF3FF61F2FF13F2FF28F2FF3E07
:1008E000F2FF54F1FF05F1FF1BF1FF31F1FF47F17A
:1008F000FF5CF0FF0EF0FF24F0FF39F0FF4FEFFF39
:1009000001EFFF17EFFF2CEFFF42EFFF58EEFF0A5A
:10091000EEFF1FEEFF35EEFF4BEEFF60EDFF12ED39
:10092000FF28EDFF3EEDFF53ECFF05ECFF1BECFF56
:1009300030ECFF46ECFF5CEBFF0EEBFF23EBFF39E7
:10094000EBFF4FEAFF01EAFF16EAFF2CEAFF42EA5B
:10095000FF57E9FF09E9FF1FE9FF35E9FF4AE9FF12
:1009600060E8FF12E8FF27E8FF3DE8FF53E7FF05D7
:10097000E7FF1AE7FF30E7FF46E7FF5CE6FF0DE61B
:10098000FF23E6FF39E6FF4EE5FF00E5FF16E5FF32
:100990002CE5FF41E5FF57E4FF09E4FF1EE4FF34C7
:1009A000E4FF4AE4FF60E3FF11E3FF27E3FF3DE3D9
:1009B000FF53E2FF04E2FF1AE2FF30E2FF45E2FFED
:1009C0005BE1FF0DE1FF23E1FF38E1FF4EE0FF00B7
:1009D000E0FF16E0FF2BE0FF41E0FF57DFFF08DFFD
:1009E000FF1EDFFF34DFFF4ADFFF5FDEFF11DEFFA8
:1009F00027DEFF3CDEFF52DDFF04DDFF1ADDFF2FA7
:100A0000DDFF45DDFF5BDCFF0DDCFF22DCFF38DCBA
:100A1000FF4EDCFF63DBFF15DBFF2BDBFF41DBFF62
:100A200056DAFF08DAFF1EDAFF33DAFF49DAFF5F32
:100A3000D9FF11D9FF26D9FF3CD9FF52D8FF04D8DE
:100A4000FF19D8FF2FD8FF45D8FF5AD7FF0CD7FF83
:100A500022D7FF38D7FF4DD7FF63D6FF15D6FF2A21
:100A6000D6FF40D6FF56D5FF08D5FF1DD5FF33D59D
:100A7000FF49D5FF5FD4FF10D4FF26D4FF3CD4FF3D
:100A800051D3FF03D3FF19D3FF2FD3FF44D3FF5A12
:100A9000D2FF0CD2FF21D2FF37D2FF4DD2FF63D15C
:100AA000FF14D1FF2AD1FF40D1FF56D0FF07D0FF5E
:100AB0001DD0FF33D0FF48D0FF5ECFFF10CFFF2601
:100AC000CFFF3BCFFF51CEFF03CEFF187518721832
:100AD0006F186C1869186618631860185D185A1832
:100AE0005718541851184E184B18481845184218E2
:100AF0003F183C1839183618331830182D182A1892
:100B00002718241821181E181B1818181518121841
:100B10000F180C180918061803180018FD17FA17F3
:100B2000F717F417F117EE17EB17E817E517E217A9
:100B3000DF17DC17D917D617D317D017CD17CA1759
:100B4000C717C417C117BE17BB17B817B517B21709
:100B5000AF17AC17A917A617A317A0179D179A17B9
:100B60009717941791178E178B1788178517821769
:100B70007F177C1779177617731770176D176A1719
:100B80006717641761175E175B17581755175217C9
:100B90004F174C1749174617431740173D173A1779
:100BA0003717341731172E172B1728172517221729
:100BB0001F171C1719171617131710170D170A17D9
:100BC000071704170117FE16FB16F816F516F2168E
:100BD000EF16EC16E916E616E316E016DD16DA1641
:100BE000D716D416D116CE16CB16C816C516C216F1
:100BF000BF16BC16B916B616B316B016AD16AA16A1
:100C0000A716A416A1169E169B1698169516921650
:100C10008F168C1689168616831680167D167A1600
:100C20007716741671166E166B16681665166216B0
:100C30005F165C1659165616531650164D164A1660
:100C40004716441641163E163B1638163516321610
:100C50002F162C1629162616231620161D161A16C0
:100C60001716141611160E160B1608160516021670
:100C7000FF15FC15F915F615F315F015ED15EA1528
:100C8000E715E415E115DE15DB15D815D515D215D8
:100C9000CF15CC15C915C615C315C015BD15BA1588
:100CA000B715B415B115AE15AB15A815A515A21538
:100CB0009F159C1599159615931590158D158A15E8
:100CC0008715841581157E157B1578157515721598
:100CD0006F156C1569156615631560155D155A1548
:100CE0005715541551154E154B15481545154215F8
:100CF0003F153C1539153615331530152D152A15A8
:100D00002715241521151E151B1518151515121557
:100D10000F150C150915061503150015FD14FA1409
:100D2000F714F414F114EE14EB14E814E514E214BF
:100D3000DF14DC14D914D614D314D014CD14CA146F
:100D4000C714C414C114BE14BB14B814B514B2141F
:100D5000AF14AC14A914A614A314A0149D149A14CF
:100D60009714941491148E148B148814851482147F
:100D70007F147C1479147614731470146D146A142F
:100D80006714641461145E145B14581455145214DF
:100D90004F144C1449144614431440143D143A148F
:100DA0003714341431142E142B142814251422143F
:100DB0001F141C1419141614131410140D140A14EF
:100DC000071404140114FE13FB13F813F513F213A4
:100DD000EF13EC13E913E613E313E013DD13DA1357
:100DE000D713D413D113CE13CB13C813C513C21307
:100DF000BF13BC13B913B613B313B013AD13AA13B7
:100E0000A713A413A1139E139B1398139513921366
:100E10008F138C1389138613831380137D137A1316
:100E20007713741371136E136B13681365136213C6
:100E30005F135C1359135613531350134D134A1376
:100E40004713441341133E133B1338133513321326
:100E50002F132C1329132613231320131D131A13D6
:100E60001713141311130E130B1308130513021386
:100E7000FF12FC12F912F612F312F012ED12EA123E
:100E8000E712E412E112DE12DB12D812D512D212EE
:100E9000CF12CC12C912C612C312C012BD12BA129E
:100EA000B712B412B112AE12AB12A812A512A2124E
:100EB0009F129C1299129612931290128D128A12FE
:100EC0008712841281127E127B12781275127212AE
:100ED0006F126C1269126612631260125D125A125E
:100EE0005712541251124E124B124812451242120E
:100EF0003F123C1239123612331230122D122A12BE
:100F00002712241221121E121B121812151212126D
:100F10000F120C120912061203120012FD11FA111F
:100F2000F711F411F111EE11EB11E811E511E211D5
:100F3000DF11DC11D911D611D311D011CD11CA1185
:100F4000C711C411C111BE11BB11B811B511B21135
:100F5000AF11AC11A911A611A311A0119D119A11E5
:100F60009711941191118E118B1188118511821195
:100F70007F117C1179117611731170116D116A1145
:100F80006711641161115E115B11581155115211F5
:100F90004F114C1149114611431140113D113A11A5
:100FA0003711341131112E112B1128112511221155
:100FB0001F111C1119111611131110110D110A1105
:100FC000071104110111FE10FB10F810F510F210BA
:100FD000EF10EC10E910E610E310E010DD10DA106D
:100FE000D710D410D110CE10CB10C810C510C2101D
:100FF000BF10BC10B910B610B310B010AD10AA10CD
:10100000A710A410A1109E109B109810951092107C
:101010008F108C1089108610831080107D107A102C
:101020007710741071106E106B10681065106210DC
:101030005F105C1059105610531050104D104A108C
:10104000471044106E00096D005E6D004E6D003E4D
:101050006D002E6D001F6D000F6C00636C00536CF3
:1010600000446C00346C00246C00146C00056B00B0
:10107000596B00496B00396B00296B001A6B000A31
:101080006A005E6A004E6A003F6A002F6A001F6AAB
:10109000000F6A0000690054690044690034690067
:1010A0002569001569000568005968004968003A1B
:1010B00068002A68001A68000A67005F67004F67C7
:1010C000003F67002F670020670010670000660080
:1010D0005466004466003566002566001566000506
:1010E00065005A65004A65003A65002A65001B657F
:1010F000000B64005F64004F6400406400306400D3
:1011000020640010640000630055630045630035EF
:1011100063002563001663000662005A62004A629B
:10112000003B62002B62001B62000B61005F6100EC
:1011300050610040610030610020610011610001D8
:101140006000556000456000366000266000166053
:1011500000065F005B5F004B5F003B5F002B5F00A2
:101160001B5F000C5E00605E00505E00405E003160
:101170005E00215E00115E00015D00565D00465D6F
:1011800000365D00265D00165D00075C005B5C00BC
:101190004B5C003B5C002C5C001C5C000C5B00604A
:1011A0005B00515B00415B00315B00215B00125B27
:1011B00000025A00565A00465A00365A00275A0072
:1011C000175A000759005B59004C59003C59002C34
:1011D00059001C59000D58006158005158004158E1
:1011E000003158002258001258000257005657008C
:1011F0004757003757002757001757000856005C1D
:1012000056004C56003C56002D56001D56000D55FC
:1012100000615500515500425500325500225500DD
:101220001255000354005754004754003754002807
:1012300054001854000853005C53004D53003D53B4
:10124000002D53001D53000D5200625200525200F7
:1012500042520032520023520013520003510057F1
:1012600051004851003851002851001851000850D1
:10127000005D50004D50003D50002D50001E5000AC
:101280000E4F00624F00524F00434F00334F002378
:101290004F00134F00044E00584E00484E00384E89
:1012A00000284E00194E00094D005D4D004D4D00C7
:1012B0003E4D002E4D001E4D000E4C00634C005361
:1012C0004C00434C00334C00234C00144C00044BA6
:1012D00000584B00484B00394B00294B00194B007C
:1012E000094A005E4A004E4A003E4A002E4A001F4C
:1012F0004A000F49006349005349004349003449FB
:101300000024490014490004480059480049480095
:101310003948002948001A48000A47005E47004E35
:1013200047003E47002F47001F47000F4600634617
:10133000005446004446003446002446001546004A
:101340000545005945004945003A45002A45001A1F
:1013500045000A44005E44004F44003F44002F44CF
:10136000001F440010440000430054430044430065
:101370003543002543001543000542005A42004A08
:1013800042003A42002A42001A42000B41005F41EB
:10139000004F41003F41003041002041001041001A
:1013A00000400055400045400035400025400015F4
:1013B0004000063F005A3F004A3F003A3F002B3FA3
:1013C000001B3F000B3E005F3E00503E00403E00D1
:1013D000303E00203E00113E00013D00553D0045DD
:1013E0003D00353D00263D00163D00063C005A3CC0
:1013F000004B3C003B3C002B3C001B3C000C3B00EA
:10140000603B00503B00403B00303B00213B001163
:101410003B00013A00553A00463A00363A00263A77
:1014200000163A000739005B39004B39003B3900A0
:101430002C39001C39000C3800603800503800414D
:101440003800313800213800113800023700563793
:1014500000463700363700273700173700073600B9
:101460005B36004B36003C36002C36001C36000C38
:1014700035006135005135004135003135002235E8
:10148000001235000234005634004734003734006F
:101490002734001734000733005C33004C33003C22
:1014A00033002C33001D33000D3200613200513205
:1014B0000042320032320022320012320002310089
:1014C000573100473100373100273100183100080B
:1014D00030005C30004C30003D30002D30001D30BD
:1014E000000D2F00622F00522F00422F00322F00DC
:1014F000222F00132F00032E00572E00472E0038F6
:101500002E00282E00182E00082D005D2D004D2DD8
:10151000003D2D002D2D001E2D000E2C00622C00F4
:10152000522C00422C00332C00232C00132C0003DF
:101530002B00582B00482B00382B00282B00192B90
:1015400000092A005D2A004D2A003D2A002E2A00AB
:101550001E2A000E29006229005329004329003366
:1015600029002329001429000428005828004828AD
:10157000003928002928001928000927005D2700C4
:101580004E27003E27002E27001E27000F2600634F
:101590002600532600432600342600242600142665
:1015A000000425005825004925003925002925007B
:1015B0001925000A24005E24004E24003E24002F3A
:1015C00024001F24000F230063230054230044231E
:1015D0000034230024230014230005220059220094
:1015E0004922003922002A22001A22000A21005E24
:1015F00021004F21003F21002F21001F21000F213A
:101600000000200054200044200034200025200049
:10161000152000051F00591F004A1F003A1F002A0D
:101620001F001A1F000B1E005F1E004F1E003F1EF2
:10163000002F1E00201E00101E00001D00541D0063
:10164000451D00351D00251D00151D00061C005AF6
:101650001C004A1C003A1C002A1C001B1C000B1B0F
:10166000005F1B004F1B00401B00301B00201B00B5
:10167000101B00011A00551A00451A00351A0026E1
:101680001A00161A000619005A19004A19003B19C7
:10169000002B19001B19000B1800601800501800CF
:1016A00040180030180021180011180001170055CB
:1016B00017004617003617002617001617000616E3
:1016C000005B16004B16003B16002B16001C160084
:1016D0000C15006015005015004115003115002152
:1016E000150011150001140056140046140036149C
:1016F000002614001714000713005B13004B13009F
:101700003C13002C13001C13000C1200611200513A
:1017100012004112003112002112001212000211B7
:101720000056110046110037110027110017110053
:101730000710005C10004C10003C10002C10001C26
:1017400010000D0F00610F00510F00410F00320F0C
:1017500000220F00120F00020E00570E00470E006D
:10176000370E00270E00180E00080D005C0D004C0F
:101770000D003C0D002D0D001D0D000D0C00610C29
:1017800000520C00420C00320C00220C00130C0022
:10179000030B00570B00470B00370B00280B0018FA
:1017A0000B00080A005C0A004D0A003D0A002D0AE1
:1017B000001D0A000E0900620900520900420900DA
:1017C00033090023090013090003080057080048E3
:1017D00008003808002808001808000907005D07FD
:1017E000004D07003D07002E07001E07000E0600F3
:1017F000620600530600430600330600230600136A
:1018000006000405005805004805003805002905B4
:10181000001905000904005D04004E04003E0400A8
:101820002E04001E04000E03006303005303004354
:1018300003003303002403001403000402005802D1
:10184000004902003902002902001902000A0100C1
:101850005E01004E01003E01002E01001F01000F3D
:101860000000630000530000440000340000240026
:101870000014000005000000D91DD61DD31DD01D89
:10188000CD1DCA1DC71DC41DC11DBE1DBB1DB81D5C
:10189000B51DB21DAF1DAC1DA91DA61DA31DA01D0C
:1018A0009D1D9A1D971D941D911D8E1D8B1D881DBC
:1018B000851D821D7F1D7C1D791D761D731D701D6C
:1018C0006D1D6A1D671D641D611D5E1D5B1D581D1C
:1018D000551D521D4F1D4C1D491D461D431D401DCC
:1018E0003D1D3A1D371D341D311D2E1D2B1D281D7C
:1018F000251D221D1F1D1C1D191D161D131D101D2C
:101900000D1D0A1D071D041D011DFE1CFB1CF81CDE
:10191000F51CF21CEF1CEC1CE91CE61CE31CE01C93
:10192000DD1CDA1CD71CD41CD11CCE1CCB1CC81C43
:10193000C51CC21CBF1CBC1CB91CB61CB31CB01CF3
:10194000AD1CAA1CA71CA41CA11C9E1C9B1C981CA3
:10195000951C921C8F1C8C1C891C861C831C801C53
:101960007D1C7A1C771C741C711C6E1C6B1C681C03
:10197000651C621C5F1C5C1C591C561C531C501CB3
:101980004D1C4A1C471C441C411C3E1C3B1C381C63
:10199000351C321C2F1C2C1C291C261C231C201C13
:1019A0001D1C1A1C171C141C111C0E1C0B1C081CC3
:1019B000051C021CFF1BFC1BF91BF61BF31BF01B79
:1019C000ED1BEA1BE71BE41BE11BDE1BDB1BD81B2B
:1019D000D51BD21BCF1BCC1BC91BC61BC31BC01BDB
:1019E000BD1BBA1BB71BB41BB11BAE1BAB1BA81B8B
:1019F000A51BA21B9F1B9C1B991B961B931B901B3B
:101A00008D1B8A1B871B841B811B7E1B7B1B781BEA
:101A1000751B721B6F1B6C1B691B661B631B601B9A
:101A20005D1B5A1B571B541B511B4E1B4B1B481B4A
:101A3000451B421B3F1B3C1B391B361B331B301BFA
:101A40002D1B2A1B271B241B211B1E1B1B1B181BAA
:101A5000151B121B0F1B0C1B091B061B031B001B5A
:101A6000FD1AFA1AF71AF41AF11AEE1AEB1AE81A12
:101A7000E51AE21ADF1ADC1AD91AD61AD31AD01AC2
:101A8000CD1ACA1AC71AC41AC11ABE1ABB1AB81A72
:101A9000B51AB21AAF1AAC1AA91AA61AA31AA01A22
:101AA0007D04207C04187B040F7A04067804627796
:101AB000045976045075044874043F730437720463
:101AC0002E71042570041D6F04146E040C6D040344
:101AD0006B045E6A045669044D68044567043C66FD
:101AE000043365042B640422630419620411610445
:101AF000086004005E045B5D04525C044A5B0441C0
:101B00005A043959043058042757041F56041655EF
:101B1000040D54040552046051045850044F4F04FE
:101B2000464E043E4D04354C042D4B04244A041B00
:101B300049041348040A47040245045D440454431D
:101B4000044C42044341043A4004323F04293E0419
:101B5000213D04183C040F3B040739046238045A41
:101B600037045136044835044034043733042E32E8
:101B7000042631041D3004152F040C2E04032C04FC
:101B80005F2B04562A044E29044528043C270434BC
:101B900026042B25042324041A23041122040921DA
:101BA00004001F045B1E04531D044A1C04421B0452
:101BB000391A043019042818041F17041716040EC4
:101BC00015040513046112045811044F1004470F43
:101BD000043E0E04360D042D0C04240B041C0A04D0
:101BE0001309040B08040206045D05045504044CA3
:101BF00003044402043B01043200042AFF0321FED3
:101C00000318FD0310FC0307FA0363F9035AF803F2
:101C100051F70349F60340F50338F4032FF3032685
:101C2000F2031EF10315F0030CEF0304ED035FEC68
:101C30000357EB034EEA0345E9033DE80334E703AA
:101C40002CE60323E5031AE40312E30309E203008D
:101C5000E0035CDF0353DE034BDD0342DC0339DBCF
:101C60000331DA0328D90320D80317D7030ED6038C
:101C700006D40361D30359D20350D10347D0033FA5
:101C8000CF0336CE032DCD0325CC031CCB0314CAC2
:101C9000030BC90302C7035EC60355C5034DC40346
:101CA00044C3033BC20333C1032AC00321BF03194A
:101CB000BE0310BD0308BB0363BA035AB90352B88D
:101CC0000349B70341B60338B5032FB40327B30361
:101CD0001EB20316B1030DB00304AE0360AD03578B
:101CE000AC034EAB0346AA033DA90335A8032CA7BA
:101CF0000323A6031BA50312A4030AA30301A10344
:101D00005CA003549F034B9E03429D033A9C033106
:101D10009B03299A032099031798030F97030695AD
:101D2000036294035993035092034891033F900335
:101D3000378F032E8E03258D031D8C03148B030B0D
:101D40008A030388035E87035686034D8503448414
:101D5000033C83033382032B8103228003197F0317
:101D6000117E03087C03637B035B7A035279034A89
:101D700078034177033876033075032774031F73A4
:101D8000031672030D7103056F03606E03586D0334
:101D90004F6C03466B033E6A033569032C680324CA
:101DA00067031B66031365030A64030162035D6135
:101DB000035460034C5F03435E033A5D03325C03EC
:101DC000295B03205A031859030F5803075603626F
:101DD0005503595403515303485203405321502192
:101DE0004D214A214721442141213E213B213821D7
:101DF000352132212F212C21292126212321202187
:101E00001D211A211721142111210E210B21082136
:101E100005210221FF20FC20F920F620F320F020EC
:101E2000ED20EA20E720E420E120DE20DB20D8209E
:101E3000D520D220CF20CC20C920C620C320C0204E
:101E4000BD20BA20B720B420B120AE20AB20A820FE
:101E5000A520A2209F209C209920962093209020AE
:101E60008D208A208720842081207E207B2078205E
:101E7000752072206F206C2069206620632060200E
:101E80005D205A205720542051204E204B204820BE
:101E9000452042203F203C2039203620332030206E
:101EA0002D202A202720242021201E201B2018201E
:101EB000152012200F200C200920062003200020CE
:101EC000FD1FFA1FF71FF41FF11FEE1FEB1FE81F86
:101ED000E51FE21FDF1FDC1FD91FD61FD31FD01F36
:101EE000CD1FCA1FC71FC41FC11FBE1FBB1FB81FE6
:101EF000B51FB21FAF1FAC1FA91FA61FA31FA01F96
:101F00009D1F9A1F971F941F911F8E1F8B1F881F45
:101F1000851F821F7F1F7C1F791F761F731F701FF5
:101F20006D1F6A1F671F641F611F5E1F5B1F581FA5
:101F3000551F521F4F1F4C1F491F461F431F401F55
:101F4000C80012C70005C5005CC4004EC30041C2F2
:101F50000034C10027C0001ABF000DBE0000BC0045
:101F600057BB004ABA003DB9002FB80022B7001590
:101F7000B60008B4005FB30052B20045B10038B0FB
:101F8000002BAF001EAE0010AD0003AB005AAA003C
:101F90004DA90040A80033A70026A60019A5000CF3
:101FA000A30063A20056A10048A0003B9F002E9E04
:101FB00000219D00149C00079A005E990051980032
:101FC0004497003796002995001C94000F93000257
:101FD00091005990004C8F003F8E00328D00258C6F
:101FE00000188B000A89006188005487004786002A
:101FF0003A85002D84002083001382000680005D56
:102000007F004F7E00427D00357C00287B001B7ADC
:10201000000E79000177005876004B75003E740081
:10202000317300237200167100096F00606E005357
:102030006D00466C00396B002C6A001F6900126845
:10204000000466005B65004E64004163003462007A
:102050002761001A60000D5F00005D00575C0049B9
:102060005B003C5A002F59002258001557000855B4
:10207000005F54005253004552003851002B50006D
:102080001D4F00104E00034C005A4B004D4A0040BB
:1020900049003348002647001946000C44006243BB
:1020A000005542004841003B40002E3F00213E00C9
:1020B000143D00073B005E3A0051390043380036BA
:1020C00037002936001C35000F3400023200593128
:1020D000004C30003F2F00322E00242D00172C0022
:1020E0000A2A006129005428004727003A26002DBB
:1020F00025002024001323000621005C20004F1F30
:1021000000421E00351D00281C001B1B000E1A007B
:102110000118005817004B16003D1500301400231D
:102120001300161200091000600F00530E00460D38
:1021300000390C002C0B001E0A00110900040700D6
:102140005B06004E05004104003403002702001A1C
:1021500001000D0000004E264B264826452642264B
:102160003F263C2639263626332630262D262A269B
:102170002726242621261E261B261826152612264B
:102180000F260C260926062603260026FD25FA25FD
:10219000F725F425F125EE25EB25E825E525E225B3
:1021A000DF25DC25D925D625D325D025CD25CA2563
:1021B000C725C425C125BE25BB25B825B525B22513
:1021C000AF25AC25A925A625A325A0259D259A25C3
:1021D0009725942591258E258B2588258525822573
:1021E0007F257C2579257625732570256D256A2523
:1021F0006725642561255E255B25582555255225D3
:102200004F254C2549254625432540253D253A2582
:102210003725342531252E252B2528252525222532
:102220001F251C2519251625132510250D250A25E2
:10223000072504250125FE24FB24F824F524F22497
:10224000EF24EC24E924E624E324E024DD24DA244A
:10225000D724D424D124CE24CB24C824C524C224FA
:10226000BF24BC24B924B624B324B024AD24AA24AA
:10227000A724A424A1249E249B249824952492245A
:102280008F248C2489248624832480247D247A240A
:102290007724742471246E246B24682465246224BA
:1022A0005F245C2459245624532450244D244A246A
:1022B0004724442441243E243B243824352432241A
:1022C0002F242C2429242624232420241D241A24CA
:1022D0001724142411240E240B240824052402247A
:1022E000FF23FC23F923F623F323F023ED23EA2332
:1022F000E723E423E123DE23DB23D823D523D223E2
:10230000CF23CC23C923C623C323C023BD23BA2391
:10231000B723B423B123AE23AB23A823A523A22341
:102320009F239C2399239623932390238D238A23F1
:102330008723842381237E237B23782375237223A1
:102340006F236C2369236623632360235D235A2351
:102350005723542338003B38002538000E37005CE3
:102360003700463700303700193700033600513642
:10237000003B36002436000E35005C350045350044
:102380002F35001935000334005034003A3400244E
:1023900034000D33005B33004533002F3300183316
:1023A000000232005032003932002332000D310079
:1023B0005B31004431002E31001831000130004FF4
:1023C00030003930002330000C2F005A2F00442FEA
:1023D000002E2F00172F00012E004F2E00382E0048
:1023E000222E000C2D005A2D00432D002D2D0017FC
:1023F0002D00002C004E2C00382C00222C000B2B22
:1024000000592B00432B002C2B00162B00002A0018
:102410004E2A00372A00212A000B290058290042A1
:1024200029002C29001628006328004D2800372891
:10243000002028000A27005827004227002B2700E9
:102440001526006326004D26003626002026000AA9
:1024500025005725004125002B2500152400622466
:10246000004C24003624001F2400092300572300B9
:102470004123002A23001422006222004B2200354F
:1024800022001F22000921005621004021002A219C
:10249000001320006120004B20003520001E20008A
:1024A000081F00561F00401F00291F00131E006157
:1024B0001E004A1E00341E001E1E00081D00551D71
:1024C000003F1D00291D00121C00601C004A1C005A
:1024D000341C001D1C00071B00551B003E1B002860
:1024E0001B00121A00601A00491A00331A001D1A44
:1024F000000619005419003E19002819001118008F
:102500005F18004918003218001C18000617005404
:1025100017003D17002717001116005F1600481618
:10252000003216001C16000515005315003D15005D
:102530002715001014005E14004814003114001B0D
:1025400014000513005313003C130026130010124F
:10255000005D12004712003112001B12000411002E
:102560005211003C11002511000F10005D100047B2
:1025700010003010001A1000040F00520F003B0F23
:1025800000250F000F0E005C0E00460E00300E00FE
:102590001A0E00030D00510D003B0D00240D000E1E
:1025A0000C005C0C00460C002F0C00190C00030BF7
:1025B00000500B003A0B00240B000E0A005B0A00CF
:1025C000450A002F0A00180A000209005009003AC3
:1025D00009002309000D08005B08004408002E08CC
:1025E000001808000207004F070039070023070002
:1025F0000D06005A06004406002E060017060001CC
:1026000005004F05003905002205000C04005A049E
:10261000004304002D04001704000103004E0300D2
:102620003803002203000B02005902004302002D70
:1026300002001602000001004E01003701002101D6
:10264000000B00005900004200002C0000160000A2
:10265000000011241FBECFEFD8E0DEBFCDBFF8943D
:10266000A89584B7877F84BFE0E6F0E08081886129
:1026700080831082789411E0A0E0B1E0E4EDF8E40A
:1026800002C005900D92A035B107D9F723E0A0E56F
:10269000B1E001C01D92A33AB207E1F70E94A6176C
:1026A0000C94522480E480937C008FE880937A001D
:1026B0000E9487130895EAE7F0E0808180648083B8
:1026C0000895ECE7F0E02081809178009091790006
:1026D000A0E5B1E027702C93937012969C938E9393
:1026E000119780818F5F808380818770853059F05A
:1026F00020E531E04FE050E060E070E080E093E002
:102700000E946F1F08958081887F8083F1CFE8E960
:10271000F1E0ACE8B1E024EA31E08FEF93E081939F
:1027200091931D921D92E217F307C9F70895E4EA09
:10273000F1E080E6DF011D928A95E9F7E4E0F2E03E
:1027400088E0DF011D928A95E9F7ECE0F2E08CE089
:10275000DF011D928A95E9F70895CF92DF92EF92FB
:10276000FF920F931F93CF93DF93082F192FF80138
:10277000C0818091530190915401A0915501B09175
:102780005601892B8A2B8B2B09F491C04091530160
:102790005091540160915501709156014630510598
:1027A0006105710508F469C0AC2FB0E0FD01EC5F74
:1027B000FD4F9081F80121813281FD01EE0FFF1F55
:1027C000EE0FFF1FEE0FFF1FE90FF11DEE0FFF1FB2
:1027D000EC55FE4F31832083463351056105710569
:1027E00008F444C080E1C89FF0011124EC55FE4F6D
:1027F00088E000E010E09801C191D1910C0F1D1FFD
:10280000211D311D8150C1F7689412F83695279526
:10281000179507951694D1F76801FD01EE0FFF1F7C
:10282000EF01C45FDD4F19830883E457FE4F019029
:10283000F081E02DE017F10738F4FD01EE0FFF1FE6
:10284000E457FE4F11830083FD01EE0FFF1FE85692
:10285000FE4F0190F081E02DCE16DF0638F4FD0129
:10286000EE0FFF1FE856FE4F1183008381E0890FB2
:10287000973001F1AC5FBD4F8C934F5F5F4F6F4F4F
:102880007F4F4093530150935401609355017093CF
:102890005601EAE7F0E0808180648083DF91CF9188
:1028A0001F910F91FF90EF90DF90CF9008950E94BD
:1028B00097136CCFAC5FBD4F1C92DFCFCF93DF93EC
:1028C00000D00F92CDB7DEB7282F392F1A82198288
:1028D0001B8221303105B1F022303105C1F08091E9
:1028E0000C0290910D02835A91098B3B22E09207D2
:1028F00098F069817A818B810F900F900F90DF9112
:10290000CF9108958091980190919901ECCF809199
:102910008C0190918D01E7CF880F991FFC01E45342
:10292000F54F6081718143E050E0CE0101960E9435
:102930005821DFCFCF93DF9300D00F92CDB7DEB712
:10294000282F392F1A8219821B8221303105B1F0CC
:1029500022303105C1F080910E0290910F028E5A03
:102960009240833121E0920798F069817A818B81CE
:102970000F900F900F90DF91CF91089580919A0161
:1029800090919B01ECCF80918E0190918F01E7CFC8
:10299000880F991FFC01E858F74E6081718143E070
:1029A00050E0CE0101960E945821DFCFCF93DF93F4
:1029B00000D00F92CDB7DEB7282F392F1A82198297
:1029C0001B8221303105B1F022303105C1F08091F8
:1029D0001002909111029C0123533109233132409E
:1029E00098F069817A818B810F900F900F90DF9121
:1029F000CF91089580919C0190919D01ECCF8091A1
:102A0000900190919101E7CF880F991FFC01EE5F33
:102A1000FF4F6081718143E050E0CE0101960E943A
:102A20005821DFCFCF93DF930E94A016C82FD92F54
:102A30000E949B16E091570181E08E0F8093570111
:102A4000F0E0EE0FFF1FE85EFD4FD183C0838530BD
:102A5000A1F080915801909159018C179D0720F4A5
:102A6000D0935901C093580170E060E080E094E099
:102A70000E94B61FDF91CF91089510925701E9CFC0
:102A8000E8E1F2E02081318182819381280F391FB2
:102A900084819581280F391F86819781280F391FDE
:102AA00080859185280F391FADECBCEC0E94212058
:102AB00096958795969587950895CF93DF9300D047
:102AC0000F92CDB7DEB70E944015282F392F223B39
:102AD000310510F021EB30E0220F331FF901E452F1
:102AE000F24E6081718143E050E0CE0101960E9478
:102AF000582169817A818B810F900F900F90DF911F
:102B0000CF910895CF93DF9300D00F92CDB7DEB76A
:102B10008091580190915901823B910530F081EBF1
:102B200090E09093590180935801E0915801F09101
:102B30005901EE0FFF1FE452F24E6081718143E0B4
:102B400050E0CE0101960E94582169817A818B81E3
:102B50000F900F900F90DF91CF910895A82FB92F6C
:102B60008AE0EAE5F1E001900D928A95E1F7089597
:102B7000E82FF92F8AE0AAE5B1E001900D928A953D
:102B8000E1F7089580E290E00E948E172FEF87EA28
:102B900091E6215080409040E1F700C0000080E2C3
:102BA00090E00E9492172FEF89E698E12150804033
:102BB0009040E1F700C00000E5CF80E290E00E9485
:102BC0008E172FEF83ED90E3215080409040E1F786
:102BD00000C0000080E290E00E9492172FEF82E593
:102BE00097E0215080409040E1F700C00000E5CF21
:102BF00080E290E00E948E172FEF81EE94E021504A
:102C000080409040E1F700C0000080E290E00E9428
:102C100092172FEF83ED90E3215080409040E1F731
:102C200000C00000E5CF80E290E00E948E172FEFF9
:102C300080E792E0215080409040E1F700C0000022
:102C400080E290E00E9492172FEF89E698E12150F0
:102C500080409040E1F700C00000E5CF80E290E0C6
:102C60000E948E172FEF80E792E021508040904025
:102C7000E1F700C0000080E290E00E9492172FEF81
:102C800080E792E0215080409040E1F700C00000D2
:102C9000E5CF80E290E00E948E172FEF81EE94E066
:102CA000215080409040E1F700C0000080E290E0B9
:102CB0000E9492172FEF81EE94E0215080409040C7
:102CC000E1F700C00000E5CF282F392FF8941092CB
:102CD0008000109281001092850010928400259A45
:102CE000223081E03807A9F048F0233081E038072E
:102CF00091F02430314089F40E941316211581E0AF
:102D0000380729F02130314041F40E94DD150E943E
:102D1000C2150E94F8150E942E160E9449168AB10B
:102D2000837F8AB98BB18C608BB9E9E6F0E0808152
:102D30008A60808308951092670110926601089559
:102D4000809166019091670108958091640190914E
:102D500065010895E09B0AC080916601909167012A
:102D600001969093670180936601E09AE19B0AC007
:102D70008091640190916501019690936501809323
:102D80006401E19A089580916801882371F02D987B
:102D90001092680130E020E046EB53E060E070E024
:102DA00080E091E00E946F1F08952D9A81E080934A
:102DB000680130E020E042E350E060E070E080E055
:102DC00091E00E946F1F0895189518951895189511
:102DD0001895189518951895189518951F920F9293
:102DE0000FB60F9211242F933F934F935F936F93DE
:102DF0007F938F939F93AF93BF93EF93FF930E9423
:102E00002A1EFF91EF91BF91AF919F918F917F917A
:102E10006F915F914F913F912F910F900FBE0F9047
:102E20001F90189518951895189518951895189538
:102E30001F920F920FB60F9211242F933F934F932F
:102E40005F936F937F938F939F93AF93BF93EF9312
:102E5000FF938091C6000E94B71BFF91EF91BF9135
:102E6000AF919F918F917F916F915F914F913F9122
:102E70002F910F900FBE0F901F9018951F920F92D9
:102E80000FB60F9211242F933F934F935F936F933D
:102E90007F938F939F93AF93BF93EF93FF930E9482
:102EA0006E1CFF91EF91BF91AF919F918F917F9198
:102EB0006F915F914F913F912F910F900FBE0F90A7
:102EC0001F90189518951F920F920FB60F9211240C
:102ED0002F933F934F935F936F937F938F939F9322
:102EE000AF93BF93EF93FF930E946113FF91EF9114
:102EF000BF91AF919F918F917F916F915F914F9112
:102F00003F912F910F900FBE0F901F90189518951D
:102F1000189518951895259A209A089595B1982B8B
:102F200095B9089595B18095892385B90895F89448
:102F30000E947F1C0E948B170E947E180E94CB1A51
:102F40000E9452130E948F16789408950E9497173A
:102F50008AEA96E10E94FA1E80E290E00E948E17B3
:102F600086E090E00E94861E6BE87CE180E096E0BF
:102F70000E94FF1E63EC76E180E091E00E94FF1E5C
:102F80006DEA73E180E093E00E94FF1E62E175E16B
:102F900080E094E00E94FF1E67E078E180E095E029
:102FA0000E94FF1E69E978E180E092E00E94FF1E26
:102FB00030E020E04AEF50E060E070E080E096E032
:102FC0000E946F1F30E020E048EB5BE060E070E0C3
:102FD00080E091E00E946F1F30E020E048EE53E077
:102FE00060E070E080E094E00E946F1F30E020E03D
:102FF00040E85EEE66E370E080E095E00E946F1FBF
:103000000E945B130E94F31F8FEF9FEF08950E94B1
:10301000A51690936C0180936B0170E060E080E0F6
:1030200095E00E94B61F0895CF93DF9300D00F92D2
:10303000CDB7DEB780916B0190916C018F3F910508
:1030400030F08EEF90E090936C0180936B01E091F3
:103050006B01F0916C01EE0FFF1FEA5AFE4D60818B
:10306000718143E050E0CE0101960E945821809189
:10307000690190916A0120916B0130916C01820F7E
:10308000931F90936A018093690110926C011092D2
:103090006B0169817A818B810F900F900F90DF9186
:1030A000CF910895CF93DF9300D00F92CDB7DEB7C5
:1030B0008091690190916A018F3F910530F08EEF08
:1030C00090E090936A0180936901E0916901F09129
:1030D0006A01EE0FFF1FEA5AFE4D6081718143E0E5
:1030E00050E0CE0101960E94582169817A818B813E
:1030F0000F900F900F90DF91CF9108951092800064
:10310000E1E8F0E01082109285001092840083EFD5
:1031100091E090938900809388008081886080830B
:10312000808182608083EFE6F0E08081826080832E
:1031300008956F927F928F929F92AF92BF92CF929B
:10314000DF92EF92FF920F931F93CF93DF9300D004
:1031500000D000D0CDB7DEB78D839E83ED81FE8198
:10316000EE5AFF4F408141110DC0ED81FE81638118
:10317000EFEFE60FEF3008F004C2F0E0EC5AFB4D41
:103180000C941B20AD81BE8113966C9113976295B0
:10319000607F12968C910E942A1B26960FB6F89497
:1031A000DEBF0FBECDBFDF91CF911F910F91FF907A
:1031B000EF90DF90CF90BF90AF909F908F907F90D7
:1031C0006F9008950EE312E090E080E00E94D61424
:1031D000D8016D937D938C9390E080E00E949A14C7
:1031E000F80163837483858390E080E00E945E141D
:1031F000D80116966D937D938C93ED81FE8163814A
:103200006295607F29E030E0A80182810E94781BEE
:10321000C4CF0EE312E082E090E00E94D614D80101
:103220006D937D938C9382E090E00E949A14F80154
:1032300063837483858382E090E00E945E14D801EA
:1032400016966D937D938C93ED81FE8163816295DB
:10325000607F29E030E0A80182810E94781B9DCF29
:103260000EE312E081E090E00E94D614D8016D9345
:103270007D938C9381E090E00E949A14F80163831F
:103280007483858381E090E00E945E14D8011696D5
:103290006D937D938C93ED81FE8163816295607F58
:1032A00029E030E0A80182810E94781B76CF0E943D
:1032B0008713AD81BE8113966C9113976295607FE1
:1032C00030E020E050E040E012968C910E94301BEC
:1032D00064CF6DE671E081E791E00E94571EC090D7
:1032E0007101D0907201E0907301F09074018090B0
:1032F0006D0190906E01A0906F01B0907001C814A4
:10330000D904EA04FB0409F45CC0C501B4010E94BD
:10331000091D20E030E048EC52E469837A838B8316
:103320009C8369817A818B819C810E94971D662E86
:10333000772E082F192FD701C60188199909AA09D4
:10334000BB0989839A83AB83BC83BC01CD010E94F6
:10335000091D262F372F482F592F69827A820B8318
:103360001C8369817A818B819C810E94971C9F9329
:103370008F937F936F9384E191E09F938F938DE47C
:1033800092E09F938F930E947C210FB6F894DEBF4A
:103390000FBECDBF2DE432E0F90101900020E9F726
:1033A0009F012E543240AD81BE8113966C911397CC
:1033B0006295607F4DE452E012968C910E94301B22
:1033C000ECCEEDE4F2E08EE49FE29183808381E431
:1033D00090E093838283DECF07E412E00E945D15C4
:1033E000F8016083718382830E948215D80113964D
:1033F0006D937D938C93ED81FE8163816295607FF7
:1034000026E030E0A80182810E94781BC6CE08E346
:1034100012E00E941418D8016D937D938C930E9442
:103420005218F801638374838583AD81BE8113963E
:103430006C9113976295607F26E030E0A8011296A8
:103440008C910E94781BA9CE1092110130E020E0EF
:1034500050E040E060E8ED81FE8182810E94301BF7
:103460009CCE0E941820682F792F8DE492E00E9454
:1034700075212DE432E0D9010D900020E9F79D017E
:103480002E543240ED81FE8163816295607F4DE470
:1034900052E082810E94301B80CE0E94791C682FEE
:1034A000792F8DE492E00E9475210DE412E0F8017D
:1034B00001900020E9F7319780E29BE591838083BA
:1034C00012820E947C1C682F792FC8010E946A21F9
:1034D000F80101900020E9F731978DE590E09183A4
:1034E0008083D8010D900020E9F79D012E543240D1
:1034F000ED81FE8163816295607FA80182810E94D7
:10350000301B4BCE8DE992E00E94AE15AD81BE819D
:1035100013966C9113976295607F2AE030E04DE935
:1035200052E012968C910E94781B37CEED81FE817D
:1035300041814250550BBF016C5F7F4F8DE992E096
:103540000E9461218DE992E00E94B815AD81BE8193
:1035500013966C9113976295607F30E020E050E005
:1035600040E012968C910E94301B17CE30E020E094
:1035700050E040E060EFED81FE8182810E94301BCF
:103580000CCE6295607F41E0AD81BE8112968C9138
:103590000E942A1B02CE1092C50080E18093C400D5
:1035A000E0ECF0E08081826080838EE08093C20056
:1035B00088ED8093C1000895811110927601E09109
:1035C000760180917701E81751F081E08E0F8093AA
:1035D0007601F0E0E550FD4F808190E00895E1EC48
:1035E000F0E080818F7D80838FEF9FEF0895282FFB
:1035F000392F962F613508F090E5662351F0F901D7
:10360000ABEFB2E0290F311D81918D93E217F307E3
:10361000D9F79093770181E00E94DC1A8093C6006D
:10362000E1ECF0E08081806280830895E9E0F1E0E0
:1036300094E09183828363834583860F9927991F42
:103640002481820F911D480F592F511D40954683AB
:10365000CF0108950E94161B68E00E94F71A089592
:103660000F931F93CF93DF93042F152F422F532FC8
:10367000E0E5F3E09BE4DF011D929A95E9F7EBE4C6
:10368000F3E09EE79083322F93E0920F9183828341
:10369000638396E09483860F9927991F06961416E4
:1036A00015061CF5F801A0E5B3E0040F151F2191E4
:1036B0002D93EF0121972881820F911D27FD9A9567
:1036C000E017F107A1F7FA01E55BFC4F80958583D0
:1036D00081E8868367E0630F8BE493E00E94F71A2A
:1036E000DF91CF911F910F91089550E040E0EBCF13
:1036F000CF93DF93C42FD52F422F532FE0E5F3E074
:103700009BE4DF011D929A95E9F7EBE4F3E09EE775
:103710009083322F93E0920F91838283638396E0AC
:103720009483860F9927991F069614161506E4F4BC
:10373000FE01A0E5B3E0C40FD51F21912D93820FA8
:10374000911DEC17FD07C9F7FA01E55BFC4F809569
:10375000858381E8868367E0630F8BE493E00E94B2
:10376000F71ADF91CF91089550E040E0EDCFE0915E
:103770000601E150E73008F0B0C0F0E0ED59FB4D34
:103780000C941B208E3709F0A8C0E0910701F0913E
:103790000801808382E0809306010895E09107018B
:1037A000F09108018183E0910701F0910801818186
:1037B0008D3450F08CE48183E0910701F091080191
:1037C000EE5AFF4F88E0808383E0809306010895DE
:1037D000E0910701F09108018283E05BFF4F90E0E8
:1037E0009183808384E0809306010895E09107012E
:1037F000F09108018383DF01A05BBF4F2D913C91C5
:103800001197820F932F911D8D939C93818182300C
:1038100031F085E08093060110927501089586E0ED
:10382000809306010895A0910701B0910801E091ED
:10383000750141E04E0F40937501EA0FFB2FF11D1A
:103840008483FD01E05BFF4F20813181820F932F44
:10385000911D9183808311968C918250990B48170A
:103860001906D9F586E08093060110927501089536
:103870004091070150910801FA01E25BFF4F8083FC
:10388000329620813181820F932F911D9183808305
:1038900099278F3F910529F04E5A5F4F82E0FA0138
:1038A000808387E0809306010895813839F0E091A4
:1038B0000701F0910801EE5AFF4F808381E0809369
:1038C000060120910701309108014AE050E060E0D4
:1038D00070E080E092E00E946F1F089580E00E94F7
:1038E000DC1A282F392F2F3F320711F02093C60002
:1038F000089589E191E0089581E291E00895A89505
:1039000084B7877F84BFE0E6F0E0808188618083B0
:103910008FE08083089580911101882309F0A89594
:1039200070E060E080E096E00E94B61F08950E947B
:10393000AB1C0C945D1D0E94561D58F00E944F1D3B
:1039400040F029F45F3F29F00C94461D51110C946E
:10395000911D0C944C1D0E946E1D68F39923B1F3C8
:10396000552391F3951B550BBB27AA2762177307A5
:10397000840738F09F5F5F4F220F331F441FAA1F39
:10398000A9F335D00E2E3AF0E0E832D091505040F5
:10399000E695001CCAF72BD0FE2F29D0660F771FA3
:1039A000881FBB1F261737074807AB07B0E809F089
:1039B000BB0B802DBF01FF2793585F4F3AF09E3F0E
:1039C000510578F00C94461D0C94911D5F3FE4F373
:1039D000983ED4F3869577956795B795F7959F5F51
:1039E000C9F7880F911D9695879597F90895E1E09D
:1039F000660F771F881FBB1F621773078407BA07FC
:103A000020F0621B730B840BBA0BEE1F88F7E09556
:103A10000895E89409C097FB3EF4909580957095C1
:103A200061957F4F8F4F9F4F9923A9F0F92F96E90A
:103A3000BB279395F695879577956795B795F1117F
:103A4000F8CFFAF4BB0F11F460FF1BC06F5F7F4F1C
:103A50008F4F9F4F16C0882311F096E911C077232E
:103A600021F09EE8872F762F05C0662371F096E837
:103A7000862F70E060E02AF09A95660F771F881F06
:103A8000DAF7880F9695879597F9089597F99F67C4
:103A900080E870E060E008959FEF80EC08950024D6
:103AA0000A941616170618060906089500240A94A3
:103AB00012161306140605060895092E0394000C29
:103AC00011F4882352F0BB0F40F4BF2B11F460FFB8
:103AD00004C06F5F7F4F8F4F9F4F089557FD9058E1
:103AE000440F551F59F05F3F71F04795880F97FBC2
:103AF000991F61F09F3F79F087950895121613067C
:103B00001406551FF2CF4695F1DF08C016161706AA
:103B10001806991FF1CF86957105610508940895DF
:103B2000E894BB2766277727CB0197F908950E9471
:103B3000AA1D0C945D1D0E944F1D38F00E94561D59
:103B400020F0952311F00C94461D0C944C1D11246B
:103B50000C94911D0E946E1D70F3959FC1F3950FFB
:103B600050E0551F629FF001729FBB27F00DB11D01
:103B7000639FAA27F00DB11DAA1F649F6627B00D91
:103B8000A11D661F829F2227B00DA11D621F739F7A
:103B9000B00DA11D621F839FA00D611D221F749F88
:103BA0003327A00D611D231F849F600D211D822FCF
:103BB000762F6A2F11249F5750409AF0F1F08823F6
:103BC0004AF0EE0FFF1FBB1F661F771F881F915023
:103BD0005040A9F79E3F510580F00C94461D0C946F
:103BE000911D5F3FE4F3983ED4F3869577956795F2
:103BF000B795F795E7959F5FC1F7FE2B880F911D4D
:103C00009695879597F908950895682F792FA09133
:103C10009D03B0919E031A161B06A4F4E0919B032A
:103C2000F0919C0330E020E08E2F9F2F4081518146
:103C30004617570749F02F5F3F4F78962A173B07E3
:103C400099F7089580E090E0089584E091E00E9463
:103C5000641608958091800190918101019690935E
:103C6000810180938001809180019091810104976E
:103C700031F0E0911201F0911301099508958091BE
:103C8000820190918301A0918401B09185010196F8
:103C9000A11DB11D8093820190938301A0938401A3
:103CA000B09385011092810110928001E2CF0F93B1
:103CB0001F93009178011091790120917A01309140
:103CC0007B01FC01008311832283338380917C017B
:103CD00090917D01A0917E01B0917F01FB018083D5
:103CE0009183A283B38310927C0110927D01109284
:103CF0007E0110927F01109278011092790110924A
:103D00007A0110927B011F910F910895282F392F6E
:103D1000121613065CF4213131050CF461C080E108
:103D200090E090939E0380939D0306C080E190E015
:103D300090939E0380939D0320919D0330919E0359
:103D4000C901880F991F820F931F880F991F880F31
:103D5000991F880F991F0E943020282F392F3093E8
:103D60009C0320939B03232B09F43FC010928B01EB
:103D700010928A0180919D0390919E031816190656
:103D800074F530E020E090E080E065E27EE1E091D3
:103D90009B03F0919C03E20FF31F118210821282A9
:103DA000138214821582168217821086118612865B
:103DB00013861486158616861786118A108A738BC9
:103DC000628B158A148A178A168A0196285E3F4FDD
:103DD00040919D0350919E0384179507C4F2089566
:103DE00030939E0320939D03A7CF81E091E00E9432
:103DF0006416BCCF90931301809312010895CF9362
:103E0000DF93C0919D03D0919E031C161D0684F480
:103E1000E0919B03F0919C0330E020E0DF014785B7
:103E20004423C9F02F5F3F4F78962C173D07B1F719
:103E300080E091E00E94641620918A0130918B010C
:103E400080919D0390919E03821793070CF442C0CA
:103E5000DF91CF9108958083918381E08787628B82
:103E6000738B80918A0190918B01019690938B01C5
:103E700080938A01E0918601F0918701309799F053
:103E80005796FC93EE935697809188019091890103
:103E900055969C938E935497B58BA48BB0938701C2
:103EA000A0938601C9CFB0938701A0938601B093F8
:103EB0008901A09388010A2E1B2E55961C920E9202
:103EC000112454970A2E1B2E57961C920E921124E1
:103ED0005697B2CF81E091E00E946416B9CFCF929D
:103EE000DF92EF92FF92CF93DF93C42ED52EE62E72
:103EF000F72ED22FC32F0E94051EE82FF92F3097DF
:103F000049F18091820190918301A0918401B09147
:103F1000850182839383A483B583C286D386E48696
:103F2000F586AC01BD0140955095609570954C1596
:103F30005D056E057F05A8F4D701C601841B950BAE
:103F4000A60BB70B86839783A087B18781E086870E
:103F5000D08BC18BDF91CF91FF90EF90DF90CF900E
:103F600008958C0D9D1DAE1DBF1DECCF0F931F93AB
:103F7000CF93DF93D62FC72F0E94051EE82FF92F6E
:103F8000309739F140918201509183016091840111
:103F90007091850142835383648375838285938501
:103FA000A485B5858A019B010095109520953095D3
:103FB000081719072A073B0788F4801B910BA20BEF
:103FC000B30B86839783A087B18781E08687D08BE8
:103FD000C18BDF91CF911F910F910895840F951F91
:103FE000A61FB71FEECFC0918801D09189012097FD
:103FF000F1F303C00C88DD89C02D8E858823D1F3B1
:104000008091820190918301A0918401B0918501FA
:104010004E815F816885798584179507A607B70764
:1040200048F31E86EA89FB89888999890995E2CF38
:1040300085E391E00895EE0FFF1F0590F491E02DC8
:104040000994A29FB001B39FC001A39F700D811D71
:104050001124911DB29F700D811D1124911D089591
:104060000F931F93CF93DF939C01029710F422E0EC
:1040700030E0E091A103F091A20390E080E0B0E095
:10408000A0E0309791F4009709F445C0821B930B90
:1040900084309105B8F58A819B816115710569F1BC
:1040A000FB0193838283FE0111C040815181028113
:1040B000138142175307F0F04217530799F41097F2
:1040C00061F012960C93129713961C933296CF01BF
:1040D000DF91CF911F910F9108950093A103109349
:1040E000A203F4CF009719F04817590718F4CA0132
:1040F000BD01EF01DF01F801C4CF9093A2038093CB
:10410000A103D1CFFE01E80FF91F2193319302974C
:1041100099838883DCCF80919F039091A003892BA2
:1041200041F480910201909103019093A003809348
:104130009F038091000190910101009741F48DB798
:104140009EB74091040150910501841B950B40914D
:104150009F035091A0034817590708F0B8CF841B5C
:10416000950B8217930708F4B2CFB9016E5F7F4FAA
:104170008617970708F4ABCF640F751F7093A003E1
:1041800060939F03FA0121933193A1CFCF93DF93E3
:104190009C010097E9F0FC01329713821282C091D2
:1041A000A103D091A203DE0190E080E02097A1F46A
:1041B00080819181280F391F80919F039091A003E6
:1041C0008217930709F067C0F093A003E0939F0361
:1041D000DF91CF910895DA01AE17BF0708F041C013
:1041E00012964D915C911397CD014115510599F7A8
:1041F000DC011396FC93EE9312974D915D91A40F01
:10420000B51FEA17FB0781F4208131812E5F3F4FF4
:10421000240F351FDC0111963C932E9322813381AC
:1042200013963C932E931297B0E0A0E08A819B8175
:104230000097B1F5FE0181919191E80FF91F8091EE
:104240009F039091A0038E179F0711F6109759F5C1
:104250001092A2031092A103D093A003C0939F03D6
:10426000B7CFB383A28340815181240F351FA2179A
:10427000B30771F44E5F5F4F2D913C911197420F40
:10428000531F5183408312962D913C913383228397
:10429000009709F0ADCFF093A203E093A10398CF6C
:1042A000DE01EC01C3CF13961C921E921297D4CF5D
:1042B000FB01DC0102C005900D9241505040D8F73F
:1042C0000895FB01DC0102C001900D924150504065
:1042D000D8F70895FB01DC010D900020E9F7119754
:1042E00001900D920020E1F70895FB01DC0101909F
:1042F0000D920020E1F70895AEE0B0E0E2E8F1E2CF
:104300000C9429240D891E8986E08C831A830983E5
:104310008FEF9FE79E838D83AE01475E5F4F6F896E
:10432000788DCE0101960E949F212F813885020F42
:10433000131FF80110822E96E4E00C944524AFE0A0
:10434000B0E0E5EAF1E20C941B247C013B018A0118
:10435000DC0117961C921E92169713968C9181FF82
:10436000C3C19AE0292EFE0131964F01D701139661
:104370009C91F30193FD859193FF81913F018823E7
:1043800009F448C1853239F493FD859193FF8191F9
:104390003F01853229F4B70190E00E948D23E6CFDA
:1043A000B12C412C512CBFE1B51538F08B3209F1FD
:1043B00088F4803201F1833221F157FC3AC020EDBC
:1043C000280F2A3040F556FE1FC0B29C200D112444
:1043D000B22E06C08D3291F0803379F7689450F890
:1043E000F30193FD859193FF81913F018111DBCF13
:1043F00020C0689451F8689452F8F2CF689453F84A
:10440000EFCF689454F8ECCF429C200D1124422E3B
:10441000689455F8E5CF8E3229F456FCFBC06894B9
:1044200056F8DECF8C3619F4689457F8D9CF883611
:10443000B9F2982F9F7D95549330C0F08336A1F147
:104440008337C1F1833509F05BC0D801CD90DD9091
:104450008D016B2D70E056FC02C06FEF7FEFC6013F
:104460000E9477235C01689457F80AC00C5F1F4FC5
:10447000EFE3E983AA24A394B12C6401E89457F8EC
:1044800053FC04C04A141B0409F018F5342CA11481
:10449000B10431F5332009F469CFB70180E290E02F
:1044A0000E948D233A94F6CFD8018C9189830E5FB8
:1044B0001F4FE0CFF801C190D1908F016B2D70E0BC
:1044C00056FC02C06FEF7FEFC6010E9482235C01A1
:1044D000D5CFB70180E290E00E948D234A94D2CFDD
:1044E000F60157FC859157FE81916F01B70190E06D
:1044F0000E948D2331103A94B1E0AB1AB108C7CFB6
:10450000843619F0893609F074C0F80157FE6AC084
:1045100061917191819191918F01E52DEF76DE2E60
:1045200097FF09C090958095709561957F4F8F4F4B
:104530009F4F6894D7F82AE030E0A4010E94BD2381
:10454000C82EC818AC2C5D2CD6FE0CC0E89450F8D0
:10455000CB1440F4D4FE05C0D2FC03C05D2D5E7EBA
:10456000552EAB2C54FE98C0FE01EC0DF11D808140
:10457000803309F08AC0652D697E562E752D7870BE
:10458000372E53FC98C050FE92C0BC2CA41418F4D3
:104590004C0CB42CBA1854FE94C0B70180E390E0E0
:1045A0000E948D2352FE09C088E790E051FE02C0B0
:1045B00088E590E0B7010E948D23CB1408F48DC0EC
:1045C000CA94D12C8FEFC81AD80AC80CD91CD601AE
:1045D0008E916D01B70190E00E948D238C149D0493
:1045E000B1F758CF61917191072E000C880B990B90
:1045F00093CFD52CE894D4F82AE030E0853739F110
:10460000F52DF97FDF2E8037A9F058F48835A9F011
:104610008F36D9F0F701868197812F96E2E10C94CD
:1046200037248837B9F7D4FE02C06894D2F820E165
:1046300030E00DC06894D4F8F6CF54FE03C02F2F9D
:104640002660D22E20E132E002C028E030E0F801FE
:10465000D7FE15C041915191619171914C875D8751
:104660006E877F878F01A4016C857D858E859F85F0
:104670000E94BD23C82EC818E894D7F863CF819153
:104680009191AC0170E060E0E9CF52FC02C0A394CC
:1046900075CFA394A39472CF852D867809F46ECF3D
:1046A000F6CFB70180E290E00E948D23A394A4147A
:1046B000C0F3312C70CF342C3A18A41408F46BCF0B
:1046C000F8CF852D867809F478CF8BE251FE80E211
:1046D00057FC8DE2B70190E06ECFB70180E390E028
:1046E0000E948D23BA9469CF8FEF9FEF96CFFC0184
:1046F0000590615070400110D8F7809590958E0F0D
:104700009F1F0895FC016150704001900110D8F77F
:10471000809590958E0F9F1F08950F931F93CF93B1
:10472000DF93182F092FEB018B8181FD09C01FEF4B
:104730000FEF812F902FDF91CF911F910F9108954F
:1047400082FF14C02E813F818C819D8128173907FB
:104750003CF4E881F981CF01019699838883108325
:104760008E819F8101969F838E83E3CFE885F985B3
:10477000812F0995892BA1F3DACFFA01AA272830D6
:1047800051F1203181F1E8946F936E7F6E5F7F4F1E
:104790008F4F9F4FAF4FB1E03ED0B4E03CD0670F9A
:1047A000781F891F9A1FA11D680F791F8A1F911DED
:1047B000A11D6A0F711D811D911DA11D20D009F43D
:1047C00068943F912AE0269F11243019305D31937F
:1047D000DEF6CF010895462F4770405D4193B3E068
:1047E0000FD0C9F7F6CF462F4F70405D4A3318F00F
:1047F000495D31FD4052419302D0A9F7EACFB4E0C0
:10480000A6959795879577956795BA95C9F7009777
:104810006105710508959B01AC010A2E0694579518
:10482000479537952795BA95C9F7620F731F841F6F
:10483000951FA01D08952F923F924F925F926F9205
:104840007F928F929F92AF92BF92CF92DF92EF9220
:10485000FF920F931F93CF93DF93CDB7DEB7CA1BA1
:10486000DB0B0FB6F894DEBF0FBECDBF09942A88CC
:10487000398848885F846E847D848C849B84AA8474
:10488000B984C884DF80EE80FD800C811B81AA8101
:10489000B981CE0FD11D0FB6F894DEBF0FBECDBFCC
:1048A000ED010895F894FFCFE2180919301957194E
:1048B000EC19071A6919241A311A4D1A821A961A14
:1048C000C11AC11AB61AC21BCE1BE81BF61B131C59
:0448D000381C551C1F
:1048D4000000A303200001A7027E000000150000D1
:1048E4008101041E252E336600312E332E303031E3
:1048F40000323031392D30392D32352030373A34C9
:10490400343A303300312E322E30312032303139C6
:104914002D30372D33302031373A33373A323000A7
:00000001FF
